{
  "contractName": "DexBase",
  "abi": [
    {
      "anonymous": false,
      "inputs": [
        {
          "indexed": true,
          "internalType": "address",
          "name": "previousOwner",
          "type": "address"
        },
        {
          "indexed": true,
          "internalType": "address",
          "name": "newOwner",
          "type": "address"
        }
      ],
      "name": "OwnershipTransferred",
      "type": "event"
    },
    {
      "anonymous": false,
      "inputs": [
        {
          "indexed": false,
          "internalType": "address",
          "name": "account",
          "type": "address"
        }
      ],
      "name": "Paused",
      "type": "event"
    },
    {
      "anonymous": false,
      "inputs": [
        {
          "indexed": false,
          "internalType": "address",
          "name": "account",
          "type": "address"
        }
      ],
      "name": "Unpaused",
      "type": "event"
    },
    {
      "inputs": [],
      "name": "owner",
      "outputs": [
        {
          "internalType": "address",
          "name": "",
          "type": "address"
        }
      ],
      "stateMutability": "view",
      "type": "function"
    },
    {
      "inputs": [],
      "name": "paused",
      "outputs": [
        {
          "internalType": "bool",
          "name": "",
          "type": "bool"
        }
      ],
      "stateMutability": "view",
      "type": "function"
    },
    {
      "inputs": [],
      "name": "renounceOwnership",
      "outputs": [],
      "stateMutability": "nonpayable",
      "type": "function"
    },
    {
      "inputs": [
        {
          "internalType": "address",
          "name": "newOwner",
          "type": "address"
        }
      ],
      "name": "transferOwnership",
      "outputs": [],
      "stateMutability": "nonpayable",
      "type": "function"
    },
    {
      "inputs": [],
      "name": "__DexBase_init",
      "outputs": [],
      "stateMutability": "nonpayable",
      "type": "function"
    },
    {
      "inputs": [
        {
          "internalType": "address",
          "name": "nftFractionsRepositoryAddress",
          "type": "address"
        }
      ],
      "name": "setNftFractionsRepository",
      "outputs": [],
      "stateMutability": "nonpayable",
      "type": "function"
    },
    {
      "inputs": [],
      "name": "depositEth",
      "outputs": [],
      "stateMutability": "payable",
      "type": "function"
    },
    {
      "inputs": [
        {
          "internalType": "uint256",
          "name": "amount",
          "type": "uint256"
        }
      ],
      "name": "withdrawEth",
      "outputs": [],
      "stateMutability": "nonpayable",
      "type": "function"
    },
    {
      "inputs": [],
      "name": "pause",
      "outputs": [],
      "stateMutability": "nonpayable",
      "type": "function"
    },
    {
      "inputs": [
        {
          "internalType": "uint256",
          "name": "tokenId",
          "type": "uint256"
        },
        {
          "internalType": "uint256",
          "name": "amount",
          "type": "uint256"
        },
        {
          "internalType": "uint256",
          "name": "price",
          "type": "uint256"
        },
        {
          "internalType": "enum DexBase.Side",
          "name": "side",
          "type": "uint8"
        }
      ],
      "name": "createLimitOrder",
      "outputs": [],
      "stateMutability": "nonpayable",
      "type": "function"
    },
    {
      "inputs": [
        {
          "internalType": "uint256",
          "name": "tokenId",
          "type": "uint256"
        },
        {
          "internalType": "uint256",
          "name": "amount",
          "type": "uint256"
        },
        {
          "internalType": "enum DexBase.Side",
          "name": "side",
          "type": "uint8"
        }
      ],
      "name": "createMarketOrder",
      "outputs": [],
      "stateMutability": "nonpayable",
      "type": "function"
    },
    {
      "inputs": [
        {
          "internalType": "uint256",
          "name": "tokenId",
          "type": "uint256"
        },
        {
          "internalType": "enum DexBase.Side",
          "name": "side",
          "type": "uint8"
        },
        {
          "internalType": "uint256",
          "name": "orderId",
          "type": "uint256"
        }
      ],
      "name": "deleteOrder",
      "outputs": [],
      "stateMutability": "nonpayable",
      "type": "function"
    }
  ],
  "bytecode": "0x608060405234801561001057600080fd5b50613ce8806100206000396000f3fe6080604052600436106100a75760003560e01c80638da5cb5b116100645780638da5cb5b146101615780639c793bac1461018c578063b85b9e40146101b5578063c311d049146101cc578063f2fde38b146101f5578063fbe276741461021e576100a7565b80630bbf2085146100ac578063439370b1146100d557806354c0cde4146100df5780635c975abb14610108578063715018a6146101335780638456cb591461014a575b600080fd5b3480156100b857600080fd5b506100d360048036038101906100ce91906130a3565b610247565b005b6100dd610e0c565b005b3480156100eb57600080fd5b506101066004803603810190610101919061310a565b610ef5565b005b34801561011457600080fd5b5061011d6121a1565b60405161012a9190613178565b60405180910390f35b34801561013f57600080fd5b506101486121b8565b005b34801561015657600080fd5b5061015f612240565b005b34801561016d57600080fd5b506101766122c6565b60405161018391906131d4565b60405180910390f35b34801561019857600080fd5b506101b360048036038101906101ae91906131ef565b6122f0565b005b3480156101c157600080fd5b506101ca612841565b005b3480156101d857600080fd5b506101f360048036038101906101ee9190613242565b61293d565b005b34801561020157600080fd5b5061021c6004803603810190610217919061329b565b612b90565b005b34801561022a57600080fd5b506102456004803603810190610240919061329b565b612c88565b005b83600060cf60009054906101000a900473ffffffffffffffffffffffffffffffffffffffff1673ffffffffffffffffffffffffffffffffffffffff166366d0330c836040518263ffffffff1660e01b81526004016102a591906132d7565b6020604051808303816000875af11580156102c4573d6000803e3d6000fd5b505050506040513d601f19601f820116820180604052508101906102e89190613307565b9050600073ffffffffffffffffffffffffffffffffffffffff168173ffffffffffffffffffffffffffffffffffffffff16141561035a576040517f08c379a000000000000000000000000000000000000000000000000000000000815260040161035190613391565b60405180910390fd5b6103626121a1565b156103a2576040517f08c379a0000000000000000000000000000000000000000000000000000000008152600401610399906133fd565b60405180910390fd5b6001808111156103b5576103b461341d565b5b8360018111156103c8576103c761341d565b5b141561057a57600060cf60009054906101000a900473ffffffffffffffffffffffffffffffffffffffff1673ffffffffffffffffffffffffffffffffffffffff1662fdd58e33896040518363ffffffff1660e01b815260040161042c92919061344c565b602060405180830381865afa158015610449573d6000803e3d6000fd5b505050506040513d601f19601f8201168201806040525081019061046d919061348a565b9050858110156104b2576040517f08c379a00000000000000000000000000000000000000000000000000000000081526004016104a990613529565b60405180910390fd5b8560ce60003373ffffffffffffffffffffffffffffffffffffffff1673ffffffffffffffffffffffffffffffffffffffff168152602001908152602001600020600089815260200190815260200160002060008282546105129190613578565b92505081905550610574338860ce60003373ffffffffffffffffffffffffffffffffffffffff1673ffffffffffffffffffffffffffffffffffffffff16815260200190815260200160002060008b815260200190815260200160002054612d48565b506107e2565b600060cf60009054906101000a900473ffffffffffffffffffffffffffffffffffffffff1673ffffffffffffffffffffffffffffffffffffffff166333d59207886040518263ffffffff1660e01b81526004016105d791906132d7565b6020604051808303816000875af11580156105f6573d6000803e3d6000fd5b505050506040513d601f19601f8201168201806040525081019061061a919061348a565b90508581101561065f576040517f08c379a000000000000000000000000000000000000000000000000000000000815260040161065690613640565b60405180910390fd5b848661066b9190613660565b60cc60003373ffffffffffffffffffffffffffffffffffffffff1673ffffffffffffffffffffffffffffffffffffffff1681526020019081526020016000205460cb60003373ffffffffffffffffffffffffffffffffffffffff1673ffffffffffffffffffffffffffffffffffffffff168152602001908152602001600020546106f591906136ba565b1015610736576040517f08c379a000000000000000000000000000000000000000000000000000000000815260040161072d9061373a565b60405180910390fd5b84866107429190613660565b60cc60003373ffffffffffffffffffffffffffffffffffffffff1673ffffffffffffffffffffffffffffffffffffffff16815260200190815260200160002060008282546107909190613578565b925050819055506107e03360cc60003373ffffffffffffffffffffffffffffffffffffffff1673ffffffffffffffffffffffffffffffffffffffff16815260200190815260200160002054612d4d565b505b600060cd6000888152602001908152602001600020600085600181111561080c5761080b61341d565b5b8152602001908152602001600020905061082660c9612d51565b600061083260c9612d67565b9050816040518061010001604052808381526020013373ffffffffffffffffffffffffffffffffffffffff1681526020018760018111156108765761087561341d565b5b81526020018a8152602001898152602001600081526020018881526020014281525090806001815401808255809150506001900390600052602060002090600702016000909190919091506000820151816000015560208201518160010160006101000a81548173ffffffffffffffffffffffffffffffffffffffff021916908373ffffffffffffffffffffffffffffffffffffffff16021790555060408201518160010160146101000a81548160ff0219169083600181111561093d5761093c61341d565b5b0217905550606082015181600201556080820151816003015560a0820151816004015560c0820151816005015560e0820151816006015550506109878133878b8b60008c42612d75565b60008083805490501161099b5760006109ad565b600183805490506109ac91906136ba565b5b90505b6000811115610e0157600060018111156109cd576109cc61341d565b5b8660018111156109e0576109df61341d565b5b148015610a4057508281815481106109fb576109fa61375a565b5b90600052602060002090600702016005015483600183610a1b91906136ba565b81548110610a2c57610a2b61375a565b5b906000526020600020906007020160050154115b15610a4a57610e01565b600180811115610a5d57610a5c61341d565b5b866001811115610a7057610a6f61341d565b5b148015610ad05750828181548110610a8b57610a8a61375a565b5b90600052602060002090600702016005015483600183610aab91906136ba565b81548110610abc57610abb61375a565b5b906000526020600020906007020160050154105b15610ada57610e01565b600083600183610aea91906136ba565b81548110610afb57610afa61375a565b5b906000526020600020906007020160405180610100016040529081600082015481526020016001820160009054906101000a900473ffffffffffffffffffffffffffffffffffffffff1673ffffffffffffffffffffffffffffffffffffffff1673ffffffffffffffffffffffffffffffffffffffff1681526020016001820160149054906101000a900460ff166001811115610b9a57610b9961341d565b5b6001811115610bac57610bab61341d565b5b8152602001600282015481526020016003820154815260200160048201548152602001600582015481526020016006820154815250509050838281548110610bf757610bf661375a565b5b906000526020600020906007020184600184610c1391906136ba565b81548110610c2457610c2361375a565b5b9060005260206000209060070201600082015481600001556001820160009054906101000a900473ffffffffffffffffffffffffffffffffffffffff168160010160006101000a81548173ffffffffffffffffffffffffffffffffffffffff021916908373ffffffffffffffffffffffffffffffffffffffff1602179055506001820160149054906101000a900460ff168160010160146101000a81548160ff02191690836001811115610cdb57610cda61341d565b5b0217905550600282015481600201556003820154816003015560048201548160040155600582015481600501556006820154816006015590505080848381548110610d2957610d2861375a565b5b90600052602060002090600702016000820151816000015560208201518160010160006101000a81548173ffffffffffffffffffffffffffffffffffffffff021916908373ffffffffffffffffffffffffffffffffffffffff16021790555060408201518160010160146101000a81548160ff02191690836001811115610db357610db261341d565b5b0217905550606082015181600201556080820151816003015560a0820151816004015560c0820151816005015560e082015181600601559050508180610df890613789565b925050506109b0565b505050505050505050565b610e146121a1565b15610e54576040517f08c379a0000000000000000000000000000000000000000000000000000000008152600401610e4b906133fd565b60405180910390fd5b3460cb60003373ffffffffffffffffffffffffffffffffffffffff1673ffffffffffffffffffffffffffffffffffffffff1681526020019081526020016000206000828254610ea39190613578565b92505081905550610ef33360cb60003373ffffffffffffffffffffffffffffffffffffffff1673ffffffffffffffffffffffffffffffffffffffff16815260200190815260200160002054612d7f565b565b60026097541415610f3b576040517f08c379a0000000000000000000000000000000000000000000000000000000008152600401610f32906137ff565b60405180910390fd5b600260978190555082600060cf60009054906101000a900473ffffffffffffffffffffffffffffffffffffffff1673ffffffffffffffffffffffffffffffffffffffff166366d0330c836040518263ffffffff1660e01b8152600401610fa191906132d7565b6020604051808303816000875af1158015610fc0573d6000803e3d6000fd5b505050506040513d601f19601f82011682018060405250810190610fe49190613307565b9050600073ffffffffffffffffffffffffffffffffffffffff168173ffffffffffffffffffffffffffffffffffffffff161415611056576040517f08c379a000000000000000000000000000000000000000000000000000000000815260040161104d90613391565b60405180910390fd5b61105e6121a1565b1561109e576040517f08c379a0000000000000000000000000000000000000000000000000000000008152600401611095906133fd565b60405180910390fd5b6001808111156110b1576110b061341d565b5b8360018111156110c4576110c361341d565b5b14156111b057600060cf60009054906101000a900473ffffffffffffffffffffffffffffffffffffffff1673ffffffffffffffffffffffffffffffffffffffff1662fdd58e33886040518363ffffffff1660e01b815260040161112892919061344c565b602060405180830381865afa158015611145573d6000803e3d6000fd5b505050506040513d601f19601f82011682018060405250810190611169919061348a565b9050848110156111ae576040517f08c379a00000000000000000000000000000000000000000000000000000000081526004016111a590613529565b60405180910390fd5b505b600060cd600087815260200190815260200160002060008060018111156111da576111d961341d565b5b8660018111156111ed576111ec61341d565b5b146111f95760006111fc565b60015b600181111561120e5761120d61341d565b5b815260200190815260200160002090506000808690505b8280549050821080156112385750600081115b15611ef35760008383815481106112525761125161375a565b5b9060005260206000209060070201600401548484815481106112775761127661375a565b5b90600052602060002090600702016003015461129391906136ba565b905060008183116112a457826112a6565b815b905080836112b491906136ba565b9250808585815481106112ca576112c961375a565b5b9060005260206000209060070201600401546112e69190613578565b8585815481106112f9576112f861375a565b5b90600052602060002090600702016004018190555061131860ca612d51565b600061132460ca612d67565b90506113c28187878154811061133d5761133c61375a565b5b9060005260206000209060070201600001548d8989815481106113635761136261375a565b5b906000526020600020906007020160010160009054906101000a900473ffffffffffffffffffffffffffffffffffffffff1633878c8c815481106113aa576113a961375a565b5b90600052602060002090600702016005015442612d83565b6114fb8686815481106113d8576113d761375a565b5b9060005260206000209060070201600001548787815481106113fd576113fc61375a565b5b906000526020600020906007020160010160009054906101000a900473ffffffffffffffffffffffffffffffffffffffff168888815481106114425761144161375a565b5b906000526020600020906007020160010160149054906101000a900460ff168989815481106114745761147361375a565b5b9060005260206000209060070201600201548a8a815481106114995761149861375a565b5b9060005260206000209060070201600301548b8b815481106114be576114bd61375a565b5b9060005260206000209060070201600401548c8c815481106114e3576114e261375a565b5b90600052602060002090600702016005015442612d75565b60018081111561150e5761150d61341d565b5b8960018111156115215761152061341d565b5b14156118e75760cf60009054906101000a900473ffffffffffffffffffffffffffffffffffffffff1673ffffffffffffffffffffffffffffffffffffffff1663605105f0338888815481106115795761157861375a565b5b906000526020600020906007020160010160009054906101000a900473ffffffffffffffffffffffffffffffffffffffff168e866040518563ffffffff1660e01b81526004016115cc9493929190613856565b600060405180830381600087803b1580156115e657600080fd5b505af11580156115fa573d6000803e3d6000fd5b50505050818686815481106116125761161161375a565b5b90600052602060002090600702016005015461162e9190613660565b60cb60003373ffffffffffffffffffffffffffffffffffffffff1673ffffffffffffffffffffffffffffffffffffffff168152602001908152602001600020600082825461167c9190613578565b92505081905550818686815481106116975761169661375a565b5b9060005260206000209060070201600501546116b39190613660565b60cb60008888815481106116ca576116c961375a565b5b906000526020600020906007020160010160009054906101000a900473ffffffffffffffffffffffffffffffffffffffff1673ffffffffffffffffffffffffffffffffffffffff1673ffffffffffffffffffffffffffffffffffffffff168152602001908152602001600020600082825461174591906136ba565b92505081905550818686815481106117605761175f61375a565b5b90600052602060002090600702016005015461177c9190613660565b60cc60008888815481106117935761179261375a565b5b906000526020600020906007020160010160009054906101000a900473ffffffffffffffffffffffffffffffffffffffff1673ffffffffffffffffffffffffffffffffffffffff1673ffffffffffffffffffffffffffffffffffffffff168152602001908152602001600020600082825461180e91906136ba565b925050819055506118e686868154811061182b5761182a61375a565b5b906000526020600020906007020160010160009054906101000a900473ffffffffffffffffffffffffffffffffffffffff1660cc60008989815481106118745761187361375a565b5b906000526020600020906007020160010160009054906101000a900473ffffffffffffffffffffffffffffffffffffffff1673ffffffffffffffffffffffffffffffffffffffff1673ffffffffffffffffffffffffffffffffffffffff16815260200190815260200160002054612d4d565b5b600060018111156118fb576118fa61341d565b5b89600181111561190e5761190d61341d565b5b1415611dc357818686815481106119285761192761375a565b5b9060005260206000209060070201600501546119449190613660565b60cc60003373ffffffffffffffffffffffffffffffffffffffff1673ffffffffffffffffffffffffffffffffffffffff1681526020019081526020016000205460cb60003373ffffffffffffffffffffffffffffffffffffffff1673ffffffffffffffffffffffffffffffffffffffff168152602001908152602001600020546119ce91906136ba565b1015611a0f576040517f08c379a0000000000000000000000000000000000000000000000000000000008152600401611a069061373a565b60405180910390fd5b60cf60009054906101000a900473ffffffffffffffffffffffffffffffffffffffff1673ffffffffffffffffffffffffffffffffffffffff1663605105f0878781548110611a6057611a5f61375a565b5b906000526020600020906007020160010160009054906101000a900473ffffffffffffffffffffffffffffffffffffffff16338e866040518563ffffffff1660e01b8152600401611ab49493929190613856565b600060405180830381600087803b158015611ace57600080fd5b505af1158015611ae2573d6000803e3d6000fd5b5050505081868681548110611afa57611af961375a565b5b906000526020600020906007020160050154611b169190613660565b60cb60003373ffffffffffffffffffffffffffffffffffffffff1673ffffffffffffffffffffffffffffffffffffffff1681526020019081526020016000206000828254611b6491906136ba565b9250508190555081868681548110611b7f57611b7e61375a565b5b906000526020600020906007020160050154611b9b9190613660565b60cb6000888881548110611bb257611bb161375a565b5b906000526020600020906007020160010160009054906101000a900473ffffffffffffffffffffffffffffffffffffffff1673ffffffffffffffffffffffffffffffffffffffff1673ffffffffffffffffffffffffffffffffffffffff1681526020019081526020016000206000828254611c2d9190613578565b925050819055508160ce6000888881548110611c4c57611c4b61375a565b5b906000526020600020906007020160010160009054906101000a900473ffffffffffffffffffffffffffffffffffffffff1673ffffffffffffffffffffffffffffffffffffffff1673ffffffffffffffffffffffffffffffffffffffff16815260200190815260200160002060008d81526020019081526020016000206000828254611cd891906136ba565b92505081905550611dc2868681548110611cf557611cf461375a565b5b906000526020600020906007020160010160009054906101000a900473ffffffffffffffffffffffffffffffffffffffff168c60ce60008a8a81548110611d3f57611d3e61375a565b5b906000526020600020906007020160010160009054906101000a900473ffffffffffffffffffffffffffffffffffffffff1673ffffffffffffffffffffffffffffffffffffffff1673ffffffffffffffffffffffffffffffffffffffff16815260200190815260200160002060008f815260200190815260200160002054612d48565b5b611e0c3360cb60003373ffffffffffffffffffffffffffffffffffffffff1673ffffffffffffffffffffffffffffffffffffffff16815260200190815260200160002054612d7f565b611edd868681548110611e2257611e2161375a565b5b906000526020600020906007020160010160009054906101000a900473ffffffffffffffffffffffffffffffffffffffff1660cb6000898981548110611e6b57611e6a61375a565b5b906000526020600020906007020160010160009054906101000a900473ffffffffffffffffffffffffffffffffffffffff1673ffffffffffffffffffffffffffffffffffffffff1673ffffffffffffffffffffffffffffffffffffffff16815260200190815260200160002054612d7f565b8480611ee8906138ae565b955050505050611225565b600091505b828054905082108015611f525750828281548110611f1957611f1861375a565b5b906000526020600020906007020160030154838381548110611f3e57611f3d61375a565b5b906000526020600020906007020160040154145b1561218f57611f84838381548110611f6d57611f6c61375a565b5b906000526020600020906007020160000154612d8d565b60008290505b60018480549050611f9b91906136ba565b8110156120e65783600182611fb09190613578565b81548110611fc157611fc061375a565b5b9060005260206000209060070201848281548110611fe257611fe161375a565b5b9060005260206000209060070201600082015481600001556001820160009054906101000a900473ffffffffffffffffffffffffffffffffffffffff168160010160006101000a81548173ffffffffffffffffffffffffffffffffffffffff021916908373ffffffffffffffffffffffffffffffffffffffff1602179055506001820160149054906101000a900460ff168160010160146101000a81548160ff021916908360018111156120995761209861341d565b5b0217905550600282015481600201556003820154816003015560048201548160040155600582015481600501556006820154816006015590505080806120de906138ae565b915050611f8a565b50828054806120f8576120f76138f7565b5b60019003818190600052602060002090600702016000808201600090556001820160006101000a81549073ffffffffffffffffffffffffffffffffffffffff02191690556001820160146101000a81549060ff021916905560028201600090556003820160009055600482016000905560058201600090556006820160009055505090558180612187906138ae565b925050611ef8565b50505050506001609781905550505050565b6000603360009054906101000a900460ff16905090565b6121c0612d90565b73ffffffffffffffffffffffffffffffffffffffff166121de6122c6565b73ffffffffffffffffffffffffffffffffffffffff1614612234576040517f08c379a000000000000000000000000000000000000000000000000000000000815260040161222b90613972565b60405180910390fd5b61223e6000612d98565b565b612248612d90565b73ffffffffffffffffffffffffffffffffffffffff166122666122c6565b73ffffffffffffffffffffffffffffffffffffffff16146122bc576040517f08c379a00000000000000000000000000000000000000000000000000000000081526004016122b390613972565b60405180910390fd5b6122c4612e5e565b565b6000606560009054906101000a900473ffffffffffffffffffffffffffffffffffffffff16905090565b600060cd6000858152602001908152602001600020600084600181111561231a5761231961341d565b5b8152602001908152602001600020905060005b818054905081101561283a578282828154811061234d5761234c61375a565b5b9060005260206000209060070201600001541415612827578181815481106123785761237761375a565b5b906000526020600020906007020160010160009054906101000a900473ffffffffffffffffffffffffffffffffffffffff1673ffffffffffffffffffffffffffffffffffffffff163373ffffffffffffffffffffffffffffffffffffffff1614612417576040517f08c379a000000000000000000000000000000000000000000000000000000000815260040161240e90613a04565b60405180910390fd5b6000600181111561242b5761242a61341d565b5b82828154811061243e5761243d61375a565b5b906000526020600020906007020160010160149054906101000a900460ff16600181111561246f5761246e61341d565b5b141561256c578181815481106124885761248761375a565b5b9060005260206000209060070201600501548282815481106124ad576124ac61375a565b5b9060005260206000209060070201600301546124c99190613660565b60cc60003373ffffffffffffffffffffffffffffffffffffffff1673ffffffffffffffffffffffffffffffffffffffff168152602001908152602001600020600082825461251791906136ba565b925050819055506125673360cc60003373ffffffffffffffffffffffffffffffffffffffff1673ffffffffffffffffffffffffffffffffffffffff16815260200190815260200160002054612d4d565b612653565b81818154811061257f5761257e61375a565b5b90600052602060002090600702016003015460ce60003373ffffffffffffffffffffffffffffffffffffffff1673ffffffffffffffffffffffffffffffffffffffff168152602001908152602001600020600087815260200190815260200160002060008282546125f091906136ba565b92505081905550612652338660ce60003373ffffffffffffffffffffffffffffffffffffffff1673ffffffffffffffffffffffffffffffffffffffff168152602001908152602001600020600089815260200190815260200160002054612d48565b5b816001838054905061266591906136ba565b815481106126765761267561375a565b5b90600052602060002090600702018282815481106126975761269661375a565b5b9060005260206000209060070201600082015481600001556001820160009054906101000a900473ffffffffffffffffffffffffffffffffffffffff168160010160006101000a81548173ffffffffffffffffffffffffffffffffffffffff021916908373ffffffffffffffffffffffffffffffffffffffff1602179055506001820160149054906101000a900460ff168160010160146101000a81548160ff0219169083600181111561274e5761274d61341d565b5b0217905550600282015481600201556003820154816003015560048201548160040155600582015481600501556006820154816006015590505081805480612799576127986138f7565b5b60019003818190600052602060002090600702016000808201600090556001820160006101000a81549073ffffffffffffffffffffffffffffffffffffffff02191690556001820160146101000a81549060ff0219169055600282016000905560038201600090556004820160009055600582016000905560068201600090555050905561282683612d8d565b5b8080612832906138ae565b91505061232d565b5050505050565b600060019054906101000a900460ff166128695760008054906101000a900460ff1615612872565b612871612f01565b5b6128b1576040517f08c379a00000000000000000000000000000000000000000000000000000000081526004016128a890613a96565b60405180910390fd5b60008060019054906101000a900460ff161590508015612901576001600060016101000a81548160ff02191690831515021790555060016000806101000a81548160ff0219169083151502179055505b612909612f12565b612911612f63565b612919612fcf565b801561293a5760008060016101000a81548160ff0219169083151502179055505b50565b60026097541415612983576040517f08c379a000000000000000000000000000000000000000000000000000000000815260040161297a906137ff565b60405180910390fd5b60026097819055506129936121a1565b156129d3576040517f08c379a00000000000000000000000000000000000000000000000000000000081526004016129ca906133fd565b60405180910390fd5b8060cc60003373ffffffffffffffffffffffffffffffffffffffff1673ffffffffffffffffffffffffffffffffffffffff1681526020019081526020016000205460cb60003373ffffffffffffffffffffffffffffffffffffffff1673ffffffffffffffffffffffffffffffffffffffff16815260200190815260200160002054612a5e91906136ba565b1015612a9f576040517f08c379a0000000000000000000000000000000000000000000000000000000008152600401612a9690613b02565b60405180910390fd5b8060cb60003373ffffffffffffffffffffffffffffffffffffffff1673ffffffffffffffffffffffffffffffffffffffff1681526020019081526020016000206000828254612aee91906136ba565b925050819055503373ffffffffffffffffffffffffffffffffffffffff166108fc829081150290604051600060405180830381858888f19350505050158015612b3b573d6000803e3d6000fd5b50612b853360cb60003373ffffffffffffffffffffffffffffffffffffffff1673ffffffffffffffffffffffffffffffffffffffff16815260200190815260200160002054612d7f565b600160978190555050565b612b98612d90565b73ffffffffffffffffffffffffffffffffffffffff16612bb66122c6565b73ffffffffffffffffffffffffffffffffffffffff1614612c0c576040517f08c379a0000000000000000000000000000000000000000000000000000000008152600401612c0390613972565b60405180910390fd5b600073ffffffffffffffffffffffffffffffffffffffff168173ffffffffffffffffffffffffffffffffffffffff161415612c7c576040517f08c379a0000000000000000000000000000000000000000000000000000000008152600401612c7390613b94565b60405180910390fd5b612c8581612d98565b50565b612c90612d90565b73ffffffffffffffffffffffffffffffffffffffff16612cae6122c6565b73ffffffffffffffffffffffffffffffffffffffff1614612d04576040517f08c379a0000000000000000000000000000000000000000000000000000000008152600401612cfb90613972565b60405180910390fd5b8060cf60006101000a81548173ffffffffffffffffffffffffffffffffffffffff021916908373ffffffffffffffffffffffffffffffffffffffff16021790555050565b505050565b5050565b6001816000016000828254019250508190555050565b600081600001549050919050565b5050505050505050565b5050565b5050505050505050565b50565b600033905090565b6000606560009054906101000a900473ffffffffffffffffffffffffffffffffffffffff16905081606560006101000a81548173ffffffffffffffffffffffffffffffffffffffff021916908373ffffffffffffffffffffffffffffffffffffffff1602179055508173ffffffffffffffffffffffffffffffffffffffff168173ffffffffffffffffffffffffffffffffffffffff167f8be0079c531659141344cd1fd0a4f28419497f9722a3daafe3b4186f6b6457e060405160405180910390a35050565b612e666121a1565b15612ea6576040517f08c379a0000000000000000000000000000000000000000000000000000000008152600401612e9d90613c00565b60405180910390fd5b6001603360006101000a81548160ff0219169083151502179055507f62e78cea01bee320cd4e420270b5ea74000d11b0c9f74754ebdbfc544b05a258612eea612d90565b604051612ef791906131d4565b60405180910390a1565b6000612f0c30613030565b15905090565b600060019054906101000a900460ff16612f61576040517f08c379a0000000000000000000000000000000000000000000000000000000008152600401612f5890613c92565b60405180910390fd5b565b600060019054906101000a900460ff16612fb2576040517f08c379a0000000000000000000000000000000000000000000000000000000008152600401612fa990613c92565b60405180910390fd5b6000603360006101000a81548160ff021916908315150217905550565b600060019054906101000a900460ff1661301e576040517f08c379a000000000000000000000000000000000000000000000000000000000815260040161301590613c92565b60405180910390fd5b61302e613029612d90565b612d98565b565b600080823b905060008111915050919050565b600080fd5b6000819050919050565b61305b81613048565b811461306657600080fd5b50565b60008135905061307881613052565b92915050565b6002811061308b57600080fd5b50565b60008135905061309d8161307e565b92915050565b600080600080608085870312156130bd576130bc613043565b5b60006130cb87828801613069565b94505060206130dc87828801613069565b93505060406130ed87828801613069565b92505060606130fe8782880161308e565b91505092959194509250565b60008060006060848603121561312357613122613043565b5b600061313186828701613069565b935050602061314286828701613069565b92505060406131538682870161308e565b9150509250925092565b60008115159050919050565b6131728161315d565b82525050565b600060208201905061318d6000830184613169565b92915050565b600073ffffffffffffffffffffffffffffffffffffffff82169050919050565b60006131be82613193565b9050919050565b6131ce816131b3565b82525050565b60006020820190506131e960008301846131c5565b92915050565b60008060006060848603121561320857613207613043565b5b600061321686828701613069565b93505060206132278682870161308e565b925050604061323886828701613069565b9150509250925092565b60006020828403121561325857613257613043565b5b600061326684828501613069565b91505092915050565b613278816131b3565b811461328357600080fd5b50565b6000813590506132958161326f565b92915050565b6000602082840312156132b1576132b0613043565b5b60006132bf84828501613286565b91505092915050565b6132d181613048565b82525050565b60006020820190506132ec60008301846132c8565b92915050565b6000815190506133018161326f565b92915050565b60006020828403121561331d5761331c613043565b5b600061332b848285016132f2565b91505092915050565b600082825260208201905092915050565b7f7468697320746f6b656e20646f6573206e6f7420657869737400000000000000600082015250565b600061337b601983613334565b915061338682613345565b602082019050919050565b600060208201905081810360008301526133aa8161336e565b9050919050565b7f4e6f7420616c6c6f776564207768696c65207061757365640000000000000000600082015250565b60006133e7601883613334565b91506133f2826133b1565b602082019050919050565b60006020820190508181036000830152613416816133da565b9050919050565b7f4e487b7100000000000000000000000000000000000000000000000000000000600052602160045260246000fd5b600060408201905061346160008301856131c5565b61346e60208301846132c8565b9392505050565b60008151905061348481613052565b92915050565b6000602082840312156134a05761349f613043565b5b60006134ae84828501613475565b91505092915050565b7f6d6573736167652073656e646572277320746f6b656e2062616c616e6365206960008201527f7320746f6f206c6f770000000000000000000000000000000000000000000000602082015250565b6000613513602983613334565b915061351e826134b7565b604082019050919050565b6000602082019050818103600083015261354281613506565b9050919050565b7f4e487b7100000000000000000000000000000000000000000000000000000000600052601160045260246000fd5b600061358382613048565b915061358e83613048565b9250827fffffffffffffffffffffffffffffffffffffffffffffffffffffffffffffffff038211156135c3576135c2613549565b5b828201905092915050565b7f746f74616c20616d6f756e74206f66206672616374696f6e73206973206c6f7760008201527f6572207468616e2074686520676976656e20616d6f756e740000000000000000602082015250565b600061362a603883613334565b9150613635826135ce565b604082019050919050565b600060208201905081810360008301526136598161361d565b9050919050565b600061366b82613048565b915061367683613048565b9250817fffffffffffffffffffffffffffffffffffffffffffffffffffffffffffffffff04831182151516156136af576136ae613549565b5b828202905092915050565b60006136c582613048565b91506136d083613048565b9250828210156136e3576136e2613549565b5b828203905092915050565b7f6574682062616c616e636520746f6f206c6f7700000000000000000000000000600082015250565b6000613724601383613334565b915061372f826136ee565b602082019050919050565b6000602082019050818103600083015261375381613717565b9050919050565b7f4e487b7100000000000000000000000000000000000000000000000000000000600052603260045260246000fd5b600061379482613048565b915060008214156137a8576137a7613549565b5b600182039050919050565b7f5265656e7472616e637947756172643a207265656e7472616e742063616c6c00600082015250565b60006137e9601f83613334565b91506137f4826137b3565b602082019050919050565b60006020820190508181036000830152613818816137dc565b9050919050565b600082825260208201905092915050565b50565b600061384060008361381f565b915061384b82613830565b600082019050919050565b600060a08201905061386b60008301876131c5565b61387860208301866131c5565b61388560408301856132c8565b61389260608301846132c8565b81810360808301526138a381613833565b905095945050505050565b60006138b982613048565b91507fffffffffffffffffffffffffffffffffffffffffffffffffffffffffffffffff8214156138ec576138eb613549565b5b600182019050919050565b7f4e487b7100000000000000000000000000000000000000000000000000000000600052603160045260246000fd5b7f4f776e61626c653a2063616c6c6572206973206e6f7420746865206f776e6572600082015250565b600061395c602083613334565b915061396782613926565b602082019050919050565b6000602082019050818103600083015261398b8161394f565b9050919050565b7f4f6e6c7920746865207472616465722063616e2064656c65746520686973206f60008201527f7264657200000000000000000000000000000000000000000000000000000000602082015250565b60006139ee602483613334565b91506139f982613992565b604082019050919050565b60006020820190508181036000830152613a1d816139e1565b9050919050565b7f496e697469616c697a61626c653a20636f6e747261637420697320616c72656160008201527f647920696e697469616c697a6564000000000000000000000000000000000000602082015250565b6000613a80602e83613334565b9150613a8b82613a24565b604082019050919050565b60006020820190508181036000830152613aaf81613a73565b9050919050565b7f4554482062616c616e6365206973206e6f7420656e6f75676800000000000000600082015250565b6000613aec601983613334565b9150613af782613ab6565b602082019050919050565b60006020820190508181036000830152613b1b81613adf565b9050919050565b7f4f776e61626c653a206e6577206f776e657220697320746865207a65726f206160008201527f6464726573730000000000000000000000000000000000000000000000000000602082015250565b6000613b7e602683613334565b9150613b8982613b22565b604082019050919050565b60006020820190508181036000830152613bad81613b71565b9050919050565b7f5061757361626c653a2070617573656400000000000000000000000000000000600082015250565b6000613bea601083613334565b9150613bf582613bb4565b602082019050919050565b60006020820190508181036000830152613c1981613bdd565b9050919050565b7f496e697469616c697a61626c653a20636f6e7472616374206973206e6f74206960008201527f6e697469616c697a696e67000000000000000000000000000000000000000000602082015250565b6000613c7c602b83613334565b9150613c8782613c20565b604082019050919050565b60006020820190508181036000830152613cab81613c6f565b905091905056fea26469706673582212207be393a1b0a1f0a4e79dee25483c7960dc078329c38d2360b9e4c9bb7ed8bd7d64736f6c634300080a0033",
  "immutableReferences": {},
  "source": "// SPDX-License-Identifier: MIT\n\npragma solidity ^0.8.0;\n\nimport \"@openzeppelin/contracts-upgradeable/security/PausableUpgradeable.sol\";\nimport \"@openzeppelin/contracts-upgradeable/security/ReentrancyGuardUpgradeable.sol\";\nimport \"@openzeppelin/contracts-upgradeable/proxy/utils/Initializable.sol\";\nimport \"@openzeppelin/contracts-upgradeable/utils/CountersUpgradeable.sol\";\nimport \"@openzeppelin/contracts-upgradeable/access/OwnableUpgradeable.sol\";\nimport \"./INftFractionsRepository.sol\";\n\ncontract DexBase is Initializable, PausableUpgradeable, OwnableUpgradeable, ReentrancyGuardUpgradeable {\n\n  using CountersUpgradeable for CountersUpgradeable.Counter;\n\n  enum Side {\n    BUY,\n    SELL\n  }\n\n  struct Order {\n    uint256 id;\n    address trader;\n    Side side;\n    uint256 tokenId;\n    uint256 amount;\n    uint256 filled;\n    uint256 price;\n    uint256 date;\n  }\n\n  CountersUpgradeable.Counter private _orderIds;\n  CountersUpgradeable.Counter private _tradeIds;\n\n  mapping(address => uint256) ethBalance;\n  mapping(address => uint256) ethReservedBalance;\n  mapping(uint256 => mapping(uint256 => Order[])) orderBook;\n  mapping(address => mapping(uint256 => uint256)) sharesReserved;\n  INftFractionsRepository nftFractionsRepository;\n\n  function __DexBase_init() public initializer {\n    __Context_init_unchained();\n    __Pausable_init_unchained();\n    __Ownable_init_unchained();\n  }\n\n  function setNftFractionsRepository(address nftFractionsRepositoryAddress) public onlyOwner {\n    nftFractionsRepository = INftFractionsRepository(nftFractionsRepositoryAddress);\n  }\n\n  function depositEth() public payable {\n    require(!paused(), \"Not allowed while paused\");\n    ethBalance[msg.sender] += msg.value;\n\n    _onEthBalanceChange(msg.sender, ethBalance[msg.sender]);\n  }\n\n  function withdrawEth(uint256 amount) public nonReentrant {\n    require(!paused(), \"Not allowed while paused\");\n    require(ethBalance[msg.sender] - ethReservedBalance[msg.sender] >= amount, \"ETH balance is not enough\");\n    ethBalance[msg.sender] -= amount;\n    payable(msg.sender).transfer(amount);\n    \n    _onEthBalanceChange(msg.sender, ethBalance[msg.sender]);\n  }\n\n  function pause() public onlyOwner {\n    _pause();\n  }\n\n  function createLimitOrder(uint256 tokenId, uint256 amount, uint256 price, Side side) external tokenExist(tokenId) {\n    require(!paused(), \"Not allowed while paused\");\n    if (side == Side.SELL) {\n      uint256 senderBalance = nftFractionsRepository.balanceOf(msg.sender, tokenId);\n      require(senderBalance >= amount, \"message sender's token balance is too low\");\n      sharesReserved[msg.sender][tokenId] += amount;\n      _onSharesReservedChange(msg.sender, tokenId, sharesReserved[msg.sender][tokenId]);\n    } else {\n      uint256 totalFractionsAmount;\n      totalFractionsAmount = nftFractionsRepository.getTotalFractionsAmount(tokenId);\n      require(totalFractionsAmount >= amount, \"total amount of fractions is lower than the given amount\");\n      require(ethBalance[msg.sender] - ethReservedBalance[msg.sender] >= amount * price, \"eth balance too low\");\n      ethReservedBalance[msg.sender] += amount * price;\n\n      _onEthReservedBalanceChange(msg.sender, ethReservedBalance[msg.sender]);\n    }\n\n    Order[] storage orders = orderBook[tokenId][uint256(side)];\n    _orderIds.increment();\n    uint256 newOrderId = _orderIds.current();\n    orders.push(Order(newOrderId, msg.sender, side, tokenId, amount, 0, price, block.timestamp));\n\n    _onOrderUpsert(newOrderId, msg.sender, side, tokenId, amount, 0, price, block.timestamp);\n\n    uint256 i = orders.length > 0 ? orders.length - 1 : 0;\n    while (i > 0) {\n      if (side == Side.BUY && orders[i - 1].price > orders[i].price) {\n        break;\n      }\n      if (side == Side.SELL && orders[i - 1].price < orders[i].price) {\n        break;\n      }\n      Order memory order = orders[i - 1];\n      orders[i - 1] = orders[i];\n      orders[i] = order;\n      i--;\n    }\n  }\n\n  function createMarketOrder(uint256 tokenId, uint256 amount, Side side) external nonReentrant tokenExist(tokenId) {\n    require(!paused(), \"Not allowed while paused\");\n    if (side == Side.SELL) {\n      uint256 sendersBalance = nftFractionsRepository.balanceOf(msg.sender, tokenId);\n      require(sendersBalance >= amount, \"message sender's token balance is too low\");\n    }\n\n    Order[] storage orders = orderBook[tokenId][uint256(side == Side.BUY ? Side.SELL : Side.BUY)];\n    uint256 i;\n    uint256 remaining = amount;\n\n    while (i < orders.length && remaining > 0) {\n      uint256 available = orders[i].amount - orders[i].filled;\n      uint256 matched = (remaining > available) ? available : remaining;\n      remaining = remaining - matched;\n      orders[i].filled = orders[i].filled + matched;\n      _tradeIds.increment();\n      uint256 newTradeId = _tradeIds.current();\n      _onTradeExecution(newTradeId, orders[i].id, tokenId, orders[i].trader, msg.sender, matched, orders[i].price, block.timestamp);\n      _onOrderUpsert(orders[i].id, orders[i].trader, orders[i].side, orders[i].tokenId, orders[i].amount, orders[i].filled, orders[i].price, block.timestamp);\n\n      if (side == Side.SELL) {\n        nftFractionsRepository.transferFrom(msg.sender, orders[i].trader, tokenId, matched, \"\");\n        ethBalance[msg.sender] += orders[i].price * matched;\n        ethBalance[orders[i].trader] -= orders[i].price * matched;\n        ethReservedBalance[orders[i].trader] -= orders[i].price * matched;\n        _onEthReservedBalanceChange(orders[i].trader, ethReservedBalance[orders[i].trader]);\n      }\n\n      if (side == Side.BUY) {\n        require(ethBalance[msg.sender] - ethReservedBalance[msg.sender] >= orders[i].price * matched, \"eth balance too low\");\n        nftFractionsRepository.transferFrom(orders[i].trader, msg.sender, tokenId, matched, \"\");\n        ethBalance[msg.sender] -= orders[i].price * matched;\n        ethBalance[orders[i].trader] += orders[i].price * matched;\n        sharesReserved[orders[i].trader][tokenId] -= matched;\n        _onSharesReservedChange(orders[i].trader, tokenId, sharesReserved[orders[i].trader][tokenId]);\n      }\n      _onEthBalanceChange(msg.sender, ethBalance[msg.sender]);\n      _onEthBalanceChange(orders[i].trader, ethBalance[orders[i].trader]);\n      i++;\n    }\n\n    i = 0;\n    while (i < orders.length && orders[i].filled == orders[i].amount) {\n      _onOrderRemoval(orders[i].id);\n      for (uint256 j = i; j < orders.length - 1; j++) {\n        orders[j] = orders[j + 1];\n      }\n      orders.pop();\n      i++;\n    }\n  }\n\n  function deleteOrder(uint256 tokenId, Side side, uint256 orderId) public {\n    Order[] storage orders = orderBook[tokenId][uint256(side)];\n    for(uint256 i = 0; i < orders.length; i++) {\n      if (orders[i].id == orderId) {\n        require(msg.sender == orders[i].trader, \"Only the trader can delete his order\");\n\n        if (orders[i].side == Side.BUY) {\n          ethReservedBalance[msg.sender] -= orders[i].amount * orders[i].price;\n          _onEthReservedBalanceChange(msg.sender, ethReservedBalance[msg.sender]);\n        } else {\n          sharesReserved[msg.sender][tokenId] -= orders[i].amount;\n          _onSharesReservedChange(msg.sender, tokenId, sharesReserved[msg.sender][tokenId]);\n        }\n        orders[i] = orders[orders.length - 1];\n        orders.pop();\n        _onOrderRemoval(orderId);\n      }\n    }\n  }\n\n  modifier tokenExist(uint256 tokenId) {\n    address erc721ContractAddress;\n    (erc721ContractAddress) = nftFractionsRepository.getErc721ContractAddress(tokenId);\n    require(erc721ContractAddress != address(0), \"this token does not exist\");\n    _;\n  }\n\n  function _onOrderUpsert(uint256 orderId, address trader, Side side, uint256 tokenId, uint256 amount, uint256 filled, uint256 price, uint256 timestamp) internal virtual {}\n\n  function _onOrderRemoval(uint256 orderId) internal virtual {}\n\n  function _onTradeExecution(uint256 tradeId, uint256 orderId, uint256 tokenId, address trader1, address trader2, uint256 matchedAmount, uint256 price, uint256 timestamp) internal virtual {}\n\n  function _onEthBalanceChange(address account, uint256 balance) internal virtual {}\n\n  function _onEthReservedBalanceChange(address account, uint256 reservedBalance) internal virtual {}\n\n  function _onSharesReservedChange(address account, uint256 tokenId, uint256 sharesReservedBalance) internal virtual {}\n}",
  "sourcePath": "/home/janus/work/react.js-solidity_nft-fractions-dex/contracts/DexBase.sol",
  "compiler": {
    "name": "solc",
    "version": "0.8.10+commit.fc410830.Emscripten.clang"
  },
  "schemaVersion": "3.4.3",
  "updatedAt": "2021-12-18T18:29:34.979Z",
  "devdoc": {
    "kind": "dev",
    "methods": {
      "owner()": {
        "details": "Returns the address of the current owner."
      },
      "paused()": {
        "details": "Returns true if the contract is paused, and false otherwise."
      },
      "renounceOwnership()": {
        "details": "Leaves the contract without owner. It will not be possible to call `onlyOwner` functions anymore. Can only be called by the current owner. NOTE: Renouncing ownership will leave the contract without an owner, thereby removing any functionality that is only available to the owner."
      },
      "transferOwnership(address)": {
        "details": "Transfers ownership of the contract to a new account (`newOwner`). Can only be called by the current owner."
      }
    },
    "version": 1
  },
  "userdoc": {
    "kind": "user",
    "methods": {},
    "version": 1
  }
}