{
  "contractName": "BridgeBase",
  "abi": [
    {
      "anonymous": false,
      "inputs": [
        {
          "indexed": true,
          "internalType": "address",
          "name": "previousOwner",
          "type": "address"
        },
        {
          "indexed": true,
          "internalType": "address",
          "name": "newOwner",
          "type": "address"
        }
      ],
      "name": "OwnershipTransferred",
      "type": "event"
    },
    {
      "anonymous": false,
      "inputs": [
        {
          "indexed": false,
          "internalType": "address",
          "name": "account",
          "type": "address"
        }
      ],
      "name": "Paused",
      "type": "event"
    },
    {
      "anonymous": false,
      "inputs": [
        {
          "indexed": false,
          "internalType": "address",
          "name": "from",
          "type": "address"
        },
        {
          "indexed": false,
          "internalType": "address",
          "name": "to",
          "type": "address"
        },
        {
          "indexed": false,
          "internalType": "uint256",
          "name": "ecr1155TokenId",
          "type": "uint256"
        },
        {
          "indexed": false,
          "internalType": "uint256",
          "name": "erc1155Amount",
          "type": "uint256"
        },
        {
          "indexed": false,
          "internalType": "uint256",
          "name": "totalFractionsAmount",
          "type": "uint256"
        },
        {
          "indexed": false,
          "internalType": "address",
          "name": "erc721ContractAddress",
          "type": "address"
        },
        {
          "indexed": false,
          "internalType": "uint256",
          "name": "erc721TokenId",
          "type": "uint256"
        },
        {
          "indexed": false,
          "internalType": "string",
          "name": "tokenURI",
          "type": "string"
        },
        {
          "indexed": false,
          "internalType": "uint256",
          "name": "date",
          "type": "uint256"
        },
        {
          "indexed": false,
          "internalType": "uint256",
          "name": "nonce",
          "type": "uint256"
        },
        {
          "indexed": true,
          "internalType": "enum BridgeBase.Step",
          "name": "step",
          "type": "uint8"
        }
      ],
      "name": "Transfer",
      "type": "event"
    },
    {
      "anonymous": false,
      "inputs": [
        {
          "indexed": false,
          "internalType": "address",
          "name": "account",
          "type": "address"
        }
      ],
      "name": "Unpaused",
      "type": "event"
    },
    {
      "inputs": [],
      "name": "nonce",
      "outputs": [
        {
          "internalType": "uint256",
          "name": "",
          "type": "uint256"
        }
      ],
      "stateMutability": "view",
      "type": "function"
    },
    {
      "inputs": [],
      "name": "owner",
      "outputs": [
        {
          "internalType": "address",
          "name": "",
          "type": "address"
        }
      ],
      "stateMutability": "view",
      "type": "function"
    },
    {
      "inputs": [],
      "name": "paused",
      "outputs": [
        {
          "internalType": "bool",
          "name": "",
          "type": "bool"
        }
      ],
      "stateMutability": "view",
      "type": "function"
    },
    {
      "inputs": [
        {
          "internalType": "uint256",
          "name": "",
          "type": "uint256"
        }
      ],
      "name": "processedNonces",
      "outputs": [
        {
          "internalType": "bool",
          "name": "",
          "type": "bool"
        }
      ],
      "stateMutability": "view",
      "type": "function"
    },
    {
      "inputs": [],
      "name": "renounceOwnership",
      "outputs": [],
      "stateMutability": "nonpayable",
      "type": "function"
    },
    {
      "inputs": [
        {
          "internalType": "address",
          "name": "newOwner",
          "type": "address"
        }
      ],
      "name": "transferOwnership",
      "outputs": [],
      "stateMutability": "nonpayable",
      "type": "function"
    },
    {
      "inputs": [
        {
          "internalType": "address",
          "name": "nftFractionsRepositoryAddress",
          "type": "address"
        }
      ],
      "name": "setNftFractionsRepository",
      "outputs": [],
      "stateMutability": "nonpayable",
      "type": "function"
    },
    {
      "inputs": [
        {
          "internalType": "address",
          "name": "to",
          "type": "address"
        },
        {
          "internalType": "uint256",
          "name": "erc1155TokenId",
          "type": "uint256"
        },
        {
          "internalType": "uint256",
          "name": "erc1155Amount",
          "type": "uint256"
        }
      ],
      "name": "burn",
      "outputs": [],
      "stateMutability": "nonpayable",
      "type": "function"
    },
    {
      "inputs": [
        {
          "internalType": "address",
          "name": "from",
          "type": "address"
        },
        {
          "internalType": "address",
          "name": "to",
          "type": "address"
        },
        {
          "internalType": "address",
          "name": "erc721ContractAddress",
          "type": "address"
        },
        {
          "internalType": "uint256",
          "name": "erc721TokenId",
          "type": "uint256"
        },
        {
          "internalType": "uint256",
          "name": "erc1155TokenId",
          "type": "uint256"
        },
        {
          "internalType": "uint256",
          "name": "erc1155Amount",
          "type": "uint256"
        },
        {
          "internalType": "uint256",
          "name": "totalFractionsAmount",
          "type": "uint256"
        },
        {
          "internalType": "uint256",
          "name": "otherChainNonce",
          "type": "uint256"
        },
        {
          "internalType": "string",
          "name": "tokenURI",
          "type": "string"
        }
      ],
      "name": "mint",
      "outputs": [],
      "stateMutability": "nonpayable",
      "type": "function"
    },
    {
      "inputs": [],
      "name": "pause",
      "outputs": [],
      "stateMutability": "nonpayable",
      "type": "function"
    }
  ],
  "bytecode": "0x608060405234801561001057600080fd5b5061002d61002261004c60201b60201c565b61005460201b60201c565b60008060146101000a81548160ff021916908315150217905550610118565b600033905090565b60008060009054906101000a900473ffffffffffffffffffffffffffffffffffffffff169050816000806101000a81548173ffffffffffffffffffffffffffffffffffffffff021916908373ffffffffffffffffffffffffffffffffffffffff1602179055508173ffffffffffffffffffffffffffffffffffffffff168173ffffffffffffffffffffffffffffffffffffffff167f8be0079c531659141344cd1fd0a4f28419497f9722a3daafe3b4186f6b6457e060405160405180910390a35050565b61169f806101276000396000f3fe608060405234801561001057600080fd5b506004361061009e5760003560e01c8063affed0e011610066578063affed0e014610123578063e92cb24214610141578063f2fde38b1461015d578063f5298aca14610179578063fbe27674146101955761009e565b80635c975abb146100a3578063715018a6146100c15780638456cb59146100cb5780638da5cb5b146100d557806391dae519146100f3575b600080fd5b6100ab6101b1565b6040516100b89190610bb3565b60405180910390f35b6100c96101c7565b005b6100d361024f565b005b6100dd6102d5565b6040516100ea9190610c0f565b60405180910390f35b61010d60048036038101906101089190610c74565b6102fe565b60405161011a9190610bb3565b60405180910390f35b61012b61031e565b6040516101389190610cb0565b60405180910390f35b61015b60048036038101906101569190610e3d565b610324565b005b61017760048036038101906101729190610f23565b61057b565b005b610193600480360381019061018e9190610f50565b610673565b005b6101af60048036038101906101aa9190610f23565b610969565b005b60008060149054906101000a900460ff16905090565b6101cf610a29565b73ffffffffffffffffffffffffffffffffffffffff166101ed6102d5565b73ffffffffffffffffffffffffffffffffffffffff1614610243576040517f08c379a000000000000000000000000000000000000000000000000000000000815260040161023a90611000565b60405180910390fd5b61024d6000610a31565b565b610257610a29565b73ffffffffffffffffffffffffffffffffffffffff166102756102d5565b73ffffffffffffffffffffffffffffffffffffffff16146102cb576040517f08c379a00000000000000000000000000000000000000000000000000000000081526004016102c290611000565b60405180910390fd5b6102d3610af5565b565b60008060009054906101000a900473ffffffffffffffffffffffffffffffffffffffff16905090565b60026020528060005260406000206000915054906101000a900460ff1681565b60015481565b61032c610a29565b73ffffffffffffffffffffffffffffffffffffffff1661034a6102d5565b73ffffffffffffffffffffffffffffffffffffffff16146103a0576040517f08c379a000000000000000000000000000000000000000000000000000000000815260040161039790611000565b60405180910390fd5b6103a86101b1565b156103e8576040517f08c379a00000000000000000000000000000000000000000000000000000000081526004016103df9061106c565b60405180910390fd5b600015156002600084815260200190815260200160002060009054906101000a900460ff1615151461044f576040517f08c379a0000000000000000000000000000000000000000000000000000000008152600401610446906110d8565b60405180910390fd5b60016002600084815260200190815260200160002060006101000a81548160ff021916908315150217905550600360009054906101000a900473ffffffffffffffffffffffffffffffffffffffff1673ffffffffffffffffffffffffffffffffffffffff1663971a584788888888888e886040518863ffffffff1660e01b81526004016104e2979695949392919061116f565b600060405180830381600087803b1580156104fc57600080fd5b505af1158015610510573d6000803e3d6000fd5b50505050600180811115610527576105266111e5565b5b7fe4ce5a0794da1b69234cba98c4c0ec4919904aa312a89d31466539a628e1dede8a8a8888888d8d89428c6040516105689a99989796959493929190611214565b60405180910390a2505050505050505050565b610583610a29565b73ffffffffffffffffffffffffffffffffffffffff166105a16102d5565b73ffffffffffffffffffffffffffffffffffffffff16146105f7576040517f08c379a00000000000000000000000000000000000000000000000000000000081526004016105ee90611000565b60405180910390fd5b600073ffffffffffffffffffffffffffffffffffffffff168173ffffffffffffffffffffffffffffffffffffffff161415610667576040517f08c379a000000000000000000000000000000000000000000000000000000000815260040161065e90611329565b60405180910390fd5b61067081610a31565b50565b61067b6101b1565b156106bb576040517f08c379a00000000000000000000000000000000000000000000000000000000081526004016106b29061106c565b60405180910390fd5b6000600360009054906101000a900473ffffffffffffffffffffffffffffffffffffffff1673ffffffffffffffffffffffffffffffffffffffff1662fdd58e33856040518363ffffffff1660e01b8152600401610719929190611349565b602060405180830381865afa158015610736573d6000803e3d6000fd5b505050506040513d601f19601f8201168201806040525081019061075a9190611387565b90508181101561079f576040517f08c379a000000000000000000000000000000000000000000000000000000000815260040161079690611426565b60405180910390fd5b60008060006060600360009054906101000a900473ffffffffffffffffffffffffffffffffffffffff1673ffffffffffffffffffffffffffffffffffffffff1663b09afec1886040518263ffffffff1660e01b81526004016108019190610cb0565b600060405180830381865afa15801561081e573d6000803e3d6000fd5b505050506040513d6000823e3d601f19601f8201168201806040525081019061084791906114cb565b80945081955082965083975050505050600360009054906101000a900473ffffffffffffffffffffffffffffffffffffffff1673ffffffffffffffffffffffffffffffffffffffff1663749388c48888336040518463ffffffff1660e01b81526004016108b69392919061154e565b600060405180830381600087803b1580156108d057600080fd5b505af11580156108e4573d6000803e3d6000fd5b50505050600060018111156108fc576108fb6111e5565b5b7fe4ce5a0794da1b69234cba98c4c0ec4919904aa312a89d31466539a628e1dede338a8a8a878a8a894260015460405161093f9a99989796959493929190611214565b60405180910390a26001600081548092919061095a906115b4565b91905055505050505050505050565b610971610a29565b73ffffffffffffffffffffffffffffffffffffffff1661098f6102d5565b73ffffffffffffffffffffffffffffffffffffffff16146109e5576040517f08c379a00000000000000000000000000000000000000000000000000000000081526004016109dc90611000565b60405180910390fd5b80600360006101000a81548173ffffffffffffffffffffffffffffffffffffffff021916908373ffffffffffffffffffffffffffffffffffffffff16021790555050565b600033905090565b60008060009054906101000a900473ffffffffffffffffffffffffffffffffffffffff169050816000806101000a81548173ffffffffffffffffffffffffffffffffffffffff021916908373ffffffffffffffffffffffffffffffffffffffff1602179055508173ffffffffffffffffffffffffffffffffffffffff168173ffffffffffffffffffffffffffffffffffffffff167f8be0079c531659141344cd1fd0a4f28419497f9722a3daafe3b4186f6b6457e060405160405180910390a35050565b610afd6101b1565b15610b3d576040517f08c379a0000000000000000000000000000000000000000000000000000000008152600401610b3490611649565b60405180910390fd5b6001600060146101000a81548160ff0219169083151502179055507f62e78cea01bee320cd4e420270b5ea74000d11b0c9f74754ebdbfc544b05a258610b81610a29565b604051610b8e9190610c0f565b60405180910390a1565b60008115159050919050565b610bad81610b98565b82525050565b6000602082019050610bc86000830184610ba4565b92915050565b600073ffffffffffffffffffffffffffffffffffffffff82169050919050565b6000610bf982610bce565b9050919050565b610c0981610bee565b82525050565b6000602082019050610c246000830184610c00565b92915050565b6000604051905090565b600080fd5b600080fd5b6000819050919050565b610c5181610c3e565b8114610c5c57600080fd5b50565b600081359050610c6e81610c48565b92915050565b600060208284031215610c8a57610c89610c34565b5b6000610c9884828501610c5f565b91505092915050565b610caa81610c3e565b82525050565b6000602082019050610cc56000830184610ca1565b92915050565b610cd481610bee565b8114610cdf57600080fd5b50565b600081359050610cf181610ccb565b92915050565b600080fd5b600080fd5b6000601f19601f8301169050919050565b7f4e487b7100000000000000000000000000000000000000000000000000000000600052604160045260246000fd5b610d4a82610d01565b810181811067ffffffffffffffff82111715610d6957610d68610d12565b5b80604052505050565b6000610d7c610c2a565b9050610d888282610d41565b919050565b600067ffffffffffffffff821115610da857610da7610d12565b5b610db182610d01565b9050602081019050919050565b82818337600083830152505050565b6000610de0610ddb84610d8d565b610d72565b905082815260208101848484011115610dfc57610dfb610cfc565b5b610e07848285610dbe565b509392505050565b600082601f830112610e2457610e23610cf7565b5b8135610e34848260208601610dcd565b91505092915050565b60008060008060008060008060006101208a8c031215610e6057610e5f610c34565b5b6000610e6e8c828d01610ce2565b9950506020610e7f8c828d01610ce2565b9850506040610e908c828d01610ce2565b9750506060610ea18c828d01610c5f565b9650506080610eb28c828d01610c5f565b95505060a0610ec38c828d01610c5f565b94505060c0610ed48c828d01610c5f565b93505060e0610ee58c828d01610c5f565b9250506101008a013567ffffffffffffffff811115610f0757610f06610c39565b5b610f138c828d01610e0f565b9150509295985092959850929598565b600060208284031215610f3957610f38610c34565b5b6000610f4784828501610ce2565b91505092915050565b600080600060608486031215610f6957610f68610c34565b5b6000610f7786828701610ce2565b9350506020610f8886828701610c5f565b9250506040610f9986828701610c5f565b9150509250925092565b600082825260208201905092915050565b7f4f776e61626c653a2063616c6c6572206973206e6f7420746865206f776e6572600082015250565b6000610fea602083610fa3565b9150610ff582610fb4565b602082019050919050565b6000602082019050818103600083015261101981610fdd565b9050919050565b7f4e6f7420616c6c6f776564207768696c65207061757365640000000000000000600082015250565b6000611056601883610fa3565b915061106182611020565b602082019050919050565b6000602082019050818103600083015261108581611049565b9050919050565b7f7472616e7366657220616c72656164792070726f636573736564000000000000600082015250565b60006110c2601a83610fa3565b91506110cd8261108c565b602082019050919050565b600060208201905081810360008301526110f1816110b5565b9050919050565b600081519050919050565b60005b83811015611121578082015181840152602081019050611106565b83811115611130576000848401525b50505050565b6000611141826110f8565b61114b8185610fa3565b935061115b818560208601611103565b61116481610d01565b840191505092915050565b600060e082019050611184600083018a610c00565b6111916020830189610ca1565b61119e6040830188610ca1565b6111ab6060830187610ca1565b6111b86080830186610ca1565b6111c560a0830185610c00565b81810360c08301526111d78184611136565b905098975050505050505050565b7f4e487b7100000000000000000000000000000000000000000000000000000000600052602160045260246000fd5b60006101408201905061122a600083018d610c00565b611237602083018c610c00565b611244604083018b610ca1565b611251606083018a610ca1565b61125e6080830189610ca1565b61126b60a0830188610c00565b61127860c0830187610ca1565b81810360e083015261128a8186611136565b905061129a610100830185610ca1565b6112a8610120830184610ca1565b9b9a5050505050505050505050565b7f4f776e61626c653a206e6577206f776e657220697320746865207a65726f206160008201527f6464726573730000000000000000000000000000000000000000000000000000602082015250565b6000611313602683610fa3565b915061131e826112b7565b604082019050919050565b6000602082019050818103600083015261134281611306565b9050919050565b600060408201905061135e6000830185610c00565b61136b6020830184610ca1565b9392505050565b60008151905061138181610c48565b92915050565b60006020828403121561139d5761139c610c34565b5b60006113ab84828501611372565b91505092915050565b7f6d6573736167652073656e646572277320746f6b656e2062616c616e6365206960008201527f7320746f6f206c6f770000000000000000000000000000000000000000000000602082015250565b6000611410602983610fa3565b915061141b826113b4565b604082019050919050565b6000602082019050818103600083015261143f81611403565b9050919050565b60008151905061145581610ccb565b92915050565b600061146e61146984610d8d565b610d72565b90508281526020810184848401111561148a57611489610cfc565b5b611495848285611103565b509392505050565b600082601f8301126114b2576114b1610cf7565b5b81516114c284826020860161145b565b91505092915050565b600080600080608085870312156114e5576114e4610c34565b5b60006114f387828801611446565b945050602061150487828801611372565b935050604061151587828801611372565b925050606085015167ffffffffffffffff81111561153657611535610c39565b5b6115428782880161149d565b91505092959194509250565b60006060820190506115636000830186610ca1565b6115706020830185610ca1565b61157d6040830184610c00565b949350505050565b7f4e487b7100000000000000000000000000000000000000000000000000000000600052601160045260246000fd5b60006115bf82610c3e565b91507fffffffffffffffffffffffffffffffffffffffffffffffffffffffffffffffff8214156115f2576115f1611585565b5b600182019050919050565b7f5061757361626c653a2070617573656400000000000000000000000000000000600082015250565b6000611633601083610fa3565b915061163e826115fd565b602082019050919050565b6000602082019050818103600083015261166281611626565b905091905056fea2646970667358221220650b8c3f015a490d5b0dcffdea58293fefa352d1c03c6613d7106ec0201d512c64736f6c634300080a0033",
  "immutableReferences": {},
  "source": "// SPDX-License-Identifier: MIT\n\npragma solidity ^0.8.0;\n\nimport \"@openzeppelin/contracts/access/Ownable.sol\";\nimport \"@openzeppelin/contracts/security/Pausable.sol\";\nimport \"./NftFractionsRepositoryBase.sol\";\n\ncontract BridgeBase is Ownable, Pausable {\n  uint256 public nonce;\n  mapping(uint256 => bool) public processedNonces;\n  NftFractionsRepositoryBase nftFractionsRepository;\n\n  enum Step {\n    Burn,\n    Mint\n  }\n\n  event Transfer(address from, address to, uint256 ecr1155TokenId, uint256 erc1155Amount, uint256 totalFractionsAmount, address erc721ContractAddress, uint256 erc721TokenId, string tokenURI, uint256 date, uint256 nonce, Step indexed step);\n\n  function setNftFractionsRepository(address nftFractionsRepositoryAddress) public onlyOwner() {\n    nftFractionsRepository = NftFractionsRepositoryBase(nftFractionsRepositoryAddress);\n  }\n\n  function burn(address to, uint256 erc1155TokenId, uint256 erc1155Amount) external {\n    require(!paused(), \"Not allowed while paused\");\n    uint256 transfererBalance = nftFractionsRepository.balanceOf(msg.sender, erc1155TokenId);\n    require(transfererBalance >= erc1155Amount, \"message sender's token balance is too low\");\n    address erc721ContractAddress;\n    uint256 erc721TokenId;\n    uint256 totalFractionsAmount;\n    string memory tokenURI;\n    (erc721ContractAddress, erc721TokenId, totalFractionsAmount, tokenURI) = nftFractionsRepository.getTokenData(erc1155TokenId);\n    nftFractionsRepository.burn(erc1155TokenId, erc1155Amount, msg.sender);\n    emit Transfer(msg.sender, to, erc1155TokenId, erc1155Amount, totalFractionsAmount, erc721ContractAddress, erc721TokenId, tokenURI, block.timestamp, nonce, Step.Burn);\n    nonce++;\n  }\n\n  function mint(address from, address to, address erc721ContractAddress, uint256 erc721TokenId, uint256 erc1155TokenId, uint256 erc1155Amount, uint256 totalFractionsAmount, uint256 otherChainNonce, string memory tokenURI) external onlyOwner() {\n    require(!paused(), \"Not allowed while paused\");\n    require(processedNonces[otherChainNonce] == false, \"transfer already processed\");\n    processedNonces[otherChainNonce] = true;\n    nftFractionsRepository.mint(erc721ContractAddress, erc721TokenId, erc1155TokenId, erc1155Amount, totalFractionsAmount, to, tokenURI);\n    emit Transfer(from, to, erc1155TokenId, erc1155Amount, totalFractionsAmount, erc721ContractAddress, erc721TokenId, tokenURI, block.timestamp, otherChainNonce, Step.Mint);\n  }\n\n  function pause() public onlyOwner() {\n    _pause();\n  }\n}",
  "sourcePath": "/home/janus/work/react.js-solidity_nft-fractions-dex/contracts/BridgeBase.sol",
  "compiler": {
    "name": "solc",
    "version": "0.8.10+commit.fc410830.Emscripten.clang"
  },
  "schemaVersion": "3.4.3",
  "updatedAt": "2021-12-20T05:12:28.187Z",
  "devdoc": {
    "kind": "dev",
    "methods": {
      "owner()": {
        "details": "Returns the address of the current owner."
      },
      "paused()": {
        "details": "Returns true if the contract is paused, and false otherwise."
      },
      "renounceOwnership()": {
        "details": "Leaves the contract without owner. It will not be possible to call `onlyOwner` functions anymore. Can only be called by the current owner. NOTE: Renouncing ownership will leave the contract without an owner, thereby removing any functionality that is only available to the owner."
      },
      "transferOwnership(address)": {
        "details": "Transfers ownership of the contract to a new account (`newOwner`). Can only be called by the current owner."
      }
    },
    "version": 1
  },
  "userdoc": {
    "kind": "user",
    "methods": {},
    "version": 1
  }
}