{
  "contractName": "BscDex",
  "abi": [
    {
      "anonymous": false,
      "inputs": [
        {
          "indexed": true,
          "internalType": "address",
          "name": "previousOwner",
          "type": "address"
        },
        {
          "indexed": true,
          "internalType": "address",
          "name": "newOwner",
          "type": "address"
        }
      ],
      "name": "OwnershipTransferred",
      "type": "event"
    },
    {
      "anonymous": false,
      "inputs": [
        {
          "indexed": false,
          "internalType": "address",
          "name": "account",
          "type": "address"
        }
      ],
      "name": "Paused",
      "type": "event"
    },
    {
      "anonymous": false,
      "inputs": [
        {
          "indexed": false,
          "internalType": "address",
          "name": "account",
          "type": "address"
        }
      ],
      "name": "Unpaused",
      "type": "event"
    },
    {
      "inputs": [],
      "name": "__DexBase_init",
      "outputs": [],
      "stateMutability": "nonpayable",
      "type": "function"
    },
    {
      "inputs": [
        {
          "internalType": "uint256",
          "name": "tokenId",
          "type": "uint256"
        },
        {
          "internalType": "uint256",
          "name": "amount",
          "type": "uint256"
        },
        {
          "internalType": "uint256",
          "name": "price",
          "type": "uint256"
        },
        {
          "internalType": "enum DexBase.Side",
          "name": "side",
          "type": "uint8"
        }
      ],
      "name": "createLimitOrder",
      "outputs": [],
      "stateMutability": "nonpayable",
      "type": "function"
    },
    {
      "inputs": [
        {
          "internalType": "uint256",
          "name": "tokenId",
          "type": "uint256"
        },
        {
          "internalType": "uint256",
          "name": "amount",
          "type": "uint256"
        },
        {
          "internalType": "enum DexBase.Side",
          "name": "side",
          "type": "uint8"
        }
      ],
      "name": "createMarketOrder",
      "outputs": [],
      "stateMutability": "nonpayable",
      "type": "function"
    },
    {
      "inputs": [
        {
          "internalType": "uint256",
          "name": "tokenId",
          "type": "uint256"
        },
        {
          "internalType": "enum DexBase.Side",
          "name": "side",
          "type": "uint8"
        },
        {
          "internalType": "uint256",
          "name": "orderId",
          "type": "uint256"
        }
      ],
      "name": "deleteOrder",
      "outputs": [],
      "stateMutability": "nonpayable",
      "type": "function"
    },
    {
      "inputs": [],
      "name": "depositEth",
      "outputs": [],
      "stateMutability": "payable",
      "type": "function"
    },
    {
      "inputs": [],
      "name": "owner",
      "outputs": [
        {
          "internalType": "address",
          "name": "",
          "type": "address"
        }
      ],
      "stateMutability": "view",
      "type": "function"
    },
    {
      "inputs": [],
      "name": "pause",
      "outputs": [],
      "stateMutability": "nonpayable",
      "type": "function"
    },
    {
      "inputs": [],
      "name": "paused",
      "outputs": [
        {
          "internalType": "bool",
          "name": "",
          "type": "bool"
        }
      ],
      "stateMutability": "view",
      "type": "function"
    },
    {
      "inputs": [],
      "name": "renounceOwnership",
      "outputs": [],
      "stateMutability": "nonpayable",
      "type": "function"
    },
    {
      "inputs": [
        {
          "internalType": "address",
          "name": "nftFractionsRepositoryAddress",
          "type": "address"
        }
      ],
      "name": "setNftFractionsRepository",
      "outputs": [],
      "stateMutability": "nonpayable",
      "type": "function"
    },
    {
      "inputs": [
        {
          "internalType": "address",
          "name": "newOwner",
          "type": "address"
        }
      ],
      "name": "transferOwnership",
      "outputs": [],
      "stateMutability": "nonpayable",
      "type": "function"
    },
    {
      "inputs": [
        {
          "internalType": "uint256",
          "name": "amount",
          "type": "uint256"
        }
      ],
      "name": "withdrawEth",
      "outputs": [],
      "stateMutability": "nonpayable",
      "type": "function"
    },
    {
      "inputs": [],
      "name": "initialize",
      "outputs": [],
      "stateMutability": "nonpayable",
      "type": "function"
    },
    {
      "inputs": [
        {
          "internalType": "uint256",
          "name": "tokenId",
          "type": "uint256"
        },
        {
          "internalType": "enum DexBase.Side",
          "name": "side",
          "type": "uint8"
        }
      ],
      "name": "getOrders",
      "outputs": [
        {
          "components": [
            {
              "internalType": "uint256",
              "name": "id",
              "type": "uint256"
            },
            {
              "internalType": "address",
              "name": "trader",
              "type": "address"
            },
            {
              "internalType": "enum DexBase.Side",
              "name": "side",
              "type": "uint8"
            },
            {
              "internalType": "uint256",
              "name": "tokenId",
              "type": "uint256"
            },
            {
              "internalType": "uint256",
              "name": "amount",
              "type": "uint256"
            },
            {
              "internalType": "uint256",
              "name": "filled",
              "type": "uint256"
            },
            {
              "internalType": "uint256",
              "name": "price",
              "type": "uint256"
            },
            {
              "internalType": "uint256",
              "name": "date",
              "type": "uint256"
            }
          ],
          "internalType": "struct DexBase.Order[]",
          "name": "",
          "type": "tuple[]"
        }
      ],
      "stateMutability": "view",
      "type": "function"
    },
    {
      "inputs": [
        {
          "internalType": "address",
          "name": "owner",
          "type": "address"
        }
      ],
      "name": "getEthBalance",
      "outputs": [
        {
          "internalType": "uint256",
          "name": "",
          "type": "uint256"
        }
      ],
      "stateMutability": "view",
      "type": "function"
    },
    {
      "inputs": [
        {
          "internalType": "address",
          "name": "owner",
          "type": "address"
        }
      ],
      "name": "getEthReserveBalance",
      "outputs": [
        {
          "internalType": "uint256",
          "name": "",
          "type": "uint256"
        }
      ],
      "stateMutability": "view",
      "type": "function"
    },
    {
      "inputs": [
        {
          "internalType": "address",
          "name": "owner",
          "type": "address"
        },
        {
          "internalType": "uint256",
          "name": "tokenId",
          "type": "uint256"
        }
      ],
      "name": "getSharesReserveBalance",
      "outputs": [
        {
          "internalType": "uint256",
          "name": "",
          "type": "uint256"
        }
      ],
      "stateMutability": "view",
      "type": "function"
    }
  ],
  "bytecode": "0x608060405234801561001057600080fd5b506143e1806100206000396000f3fe6080604052600436106100fe5760003560e01c80638456cb5911610095578063b85b9e4011610064578063b85b9e40146102da578063b8737fba146102f1578063c311d0491461032e578063f2fde38b14610357578063fbe2767414610380576100fe565b80638456cb59146102325780638da5cb5b146102495780639c793bac14610274578063b141bd391461029d576100fe565b806354c0cde4116100d157806354c0cde4146101b05780635c975abb146101d9578063715018a6146102045780638129fc1c1461021b576100fe565b80630bbf2085146101035780631f9af29c1461012c578063439370b1146101695780634d2301cc14610173575b600080fd5b34801561010f57600080fd5b5061012a60048036038101906101259190613542565b6103a9565b005b34801561013857600080fd5b50610153600480360381019061014e9190613607565b610f6e565b6040516101609190613643565b60405180910390f35b610171610fb7565b005b34801561017f57600080fd5b5061019a60048036038101906101959190613607565b6110a0565b6040516101a79190613643565b60405180910390f35b3480156101bc57600080fd5b506101d760048036038101906101d2919061365e565b6110e9565b005b3480156101e557600080fd5b506101ee612395565b6040516101fb91906136cc565b60405180910390f35b34801561021057600080fd5b506102196123ac565b005b34801561022757600080fd5b50610230612434565b005b34801561023e57600080fd5b50610247612520565b005b34801561025557600080fd5b5061025e6125a6565b60405161026b91906136f6565b60405180910390f35b34801561028057600080fd5b5061029b60048036038101906102969190613711565b6125d0565b005b3480156102a957600080fd5b506102c460048036038101906102bf9190613764565b612b21565b6040516102d1919061398b565b60405180910390f35b3480156102e657600080fd5b506102ef612c85565b005b3480156102fd57600080fd5b50610318600480360381019061031391906139ad565b612d81565b6040516103259190613643565b60405180910390f35b34801561033a57600080fd5b50610355600480360381019061035091906139ed565b612ddc565b005b34801561036357600080fd5b5061037e60048036038101906103799190613607565b61302f565b005b34801561038c57600080fd5b506103a760048036038101906103a29190613607565b613127565b005b83600060cf60009054906101000a900473ffffffffffffffffffffffffffffffffffffffff1673ffffffffffffffffffffffffffffffffffffffff166366d0330c836040518263ffffffff1660e01b81526004016104079190613643565b6020604051808303816000875af1158015610426573d6000803e3d6000fd5b505050506040513d601f19601f8201168201806040525081019061044a9190613a2f565b9050600073ffffffffffffffffffffffffffffffffffffffff168173ffffffffffffffffffffffffffffffffffffffff1614156104bc576040517f08c379a00000000000000000000000000000000000000000000000000000000081526004016104b390613ab9565b60405180910390fd5b6104c4612395565b15610504576040517f08c379a00000000000000000000000000000000000000000000000000000000081526004016104fb90613b25565b60405180910390fd5b600180811115610517576105166137ee565b5b83600181111561052a576105296137ee565b5b14156106dc57600060cf60009054906101000a900473ffffffffffffffffffffffffffffffffffffffff1673ffffffffffffffffffffffffffffffffffffffff1662fdd58e33896040518363ffffffff1660e01b815260040161058e929190613b45565b602060405180830381865afa1580156105ab573d6000803e3d6000fd5b505050506040513d601f19601f820116820180604052508101906105cf9190613b83565b905085811015610614576040517f08c379a000000000000000000000000000000000000000000000000000000000815260040161060b90613c22565b60405180910390fd5b8560ce60003373ffffffffffffffffffffffffffffffffffffffff1673ffffffffffffffffffffffffffffffffffffffff168152602001908152602001600020600089815260200190815260200160002060008282546106749190613c71565b925050819055506106d6338860ce60003373ffffffffffffffffffffffffffffffffffffffff1673ffffffffffffffffffffffffffffffffffffffff16815260200190815260200160002060008b8152602001908152602001600020546131e7565b50610944565b600060cf60009054906101000a900473ffffffffffffffffffffffffffffffffffffffff1673ffffffffffffffffffffffffffffffffffffffff166333d59207886040518263ffffffff1660e01b81526004016107399190613643565b6020604051808303816000875af1158015610758573d6000803e3d6000fd5b505050506040513d601f19601f8201168201806040525081019061077c9190613b83565b9050858110156107c1576040517f08c379a00000000000000000000000000000000000000000000000000000000081526004016107b890613d39565b60405180910390fd5b84866107cd9190613d59565b60cc60003373ffffffffffffffffffffffffffffffffffffffff1673ffffffffffffffffffffffffffffffffffffffff1681526020019081526020016000205460cb60003373ffffffffffffffffffffffffffffffffffffffff1673ffffffffffffffffffffffffffffffffffffffff168152602001908152602001600020546108579190613db3565b1015610898576040517f08c379a000000000000000000000000000000000000000000000000000000000815260040161088f90613e33565b60405180910390fd5b84866108a49190613d59565b60cc60003373ffffffffffffffffffffffffffffffffffffffff1673ffffffffffffffffffffffffffffffffffffffff16815260200190815260200160002060008282546108f29190613c71565b925050819055506109423360cc60003373ffffffffffffffffffffffffffffffffffffffff1673ffffffffffffffffffffffffffffffffffffffff168152602001908152602001600020546131ec565b505b600060cd6000888152602001908152602001600020600085600181111561096e5761096d6137ee565b5b8152602001908152602001600020905061098860c96131f0565b600061099460c9613206565b9050816040518061010001604052808381526020013373ffffffffffffffffffffffffffffffffffffffff1681526020018760018111156109d8576109d76137ee565b5b81526020018a8152602001898152602001600081526020018881526020014281525090806001815401808255809150506001900390600052602060002090600702016000909190919091506000820151816000015560208201518160010160006101000a81548173ffffffffffffffffffffffffffffffffffffffff021916908373ffffffffffffffffffffffffffffffffffffffff16021790555060408201518160010160146101000a81548160ff02191690836001811115610a9f57610a9e6137ee565b5b0217905550606082015181600201556080820151816003015560a0820151816004015560c0820151816005015560e082015181600601555050610ae98133878b8b60008c42613214565b600080838054905011610afd576000610b0f565b60018380549050610b0e9190613db3565b5b90505b6000811115610f635760006001811115610b2f57610b2e6137ee565b5b866001811115610b4257610b416137ee565b5b148015610ba25750828181548110610b5d57610b5c613e53565b5b90600052602060002090600702016005015483600183610b7d9190613db3565b81548110610b8e57610b8d613e53565b5b906000526020600020906007020160050154115b15610bac57610f63565b600180811115610bbf57610bbe6137ee565b5b866001811115610bd257610bd16137ee565b5b148015610c325750828181548110610bed57610bec613e53565b5b90600052602060002090600702016005015483600183610c0d9190613db3565b81548110610c1e57610c1d613e53565b5b906000526020600020906007020160050154105b15610c3c57610f63565b600083600183610c4c9190613db3565b81548110610c5d57610c5c613e53565b5b906000526020600020906007020160405180610100016040529081600082015481526020016001820160009054906101000a900473ffffffffffffffffffffffffffffffffffffffff1673ffffffffffffffffffffffffffffffffffffffff1673ffffffffffffffffffffffffffffffffffffffff1681526020016001820160149054906101000a900460ff166001811115610cfc57610cfb6137ee565b5b6001811115610d0e57610d0d6137ee565b5b8152602001600282015481526020016003820154815260200160048201548152602001600582015481526020016006820154815250509050838281548110610d5957610d58613e53565b5b906000526020600020906007020184600184610d759190613db3565b81548110610d8657610d85613e53565b5b9060005260206000209060070201600082015481600001556001820160009054906101000a900473ffffffffffffffffffffffffffffffffffffffff168160010160006101000a81548173ffffffffffffffffffffffffffffffffffffffff021916908373ffffffffffffffffffffffffffffffffffffffff1602179055506001820160149054906101000a900460ff168160010160146101000a81548160ff02191690836001811115610e3d57610e3c6137ee565b5b0217905550600282015481600201556003820154816003015560048201548160040155600582015481600501556006820154816006015590505080848381548110610e8b57610e8a613e53565b5b90600052602060002090600702016000820151816000015560208201518160010160006101000a81548173ffffffffffffffffffffffffffffffffffffffff021916908373ffffffffffffffffffffffffffffffffffffffff16021790555060408201518160010160146101000a81548160ff02191690836001811115610f1557610f146137ee565b5b0217905550606082015181600201556080820151816003015560a0820151816004015560c0820151816005015560e082015181600601559050508180610f5a90613e82565b92505050610b12565b505050505050505050565b600060cc60008373ffffffffffffffffffffffffffffffffffffffff1673ffffffffffffffffffffffffffffffffffffffff168152602001908152602001600020549050919050565b610fbf612395565b15610fff576040517f08c379a0000000000000000000000000000000000000000000000000000000008152600401610ff690613b25565b60405180910390fd5b3460cb60003373ffffffffffffffffffffffffffffffffffffffff1673ffffffffffffffffffffffffffffffffffffffff168152602001908152602001600020600082825461104e9190613c71565b9250508190555061109e3360cb60003373ffffffffffffffffffffffffffffffffffffffff1673ffffffffffffffffffffffffffffffffffffffff1681526020019081526020016000205461321e565b565b600060cb60008373ffffffffffffffffffffffffffffffffffffffff1673ffffffffffffffffffffffffffffffffffffffff168152602001908152602001600020549050919050565b6002609754141561112f576040517f08c379a000000000000000000000000000000000000000000000000000000000815260040161112690613ef8565b60405180910390fd5b600260978190555082600060cf60009054906101000a900473ffffffffffffffffffffffffffffffffffffffff1673ffffffffffffffffffffffffffffffffffffffff166366d0330c836040518263ffffffff1660e01b81526004016111959190613643565b6020604051808303816000875af11580156111b4573d6000803e3d6000fd5b505050506040513d601f19601f820116820180604052508101906111d89190613a2f565b9050600073ffffffffffffffffffffffffffffffffffffffff168173ffffffffffffffffffffffffffffffffffffffff16141561124a576040517f08c379a000000000000000000000000000000000000000000000000000000000815260040161124190613ab9565b60405180910390fd5b611252612395565b15611292576040517f08c379a000000000000000000000000000000000000000000000000000000000815260040161128990613b25565b60405180910390fd5b6001808111156112a5576112a46137ee565b5b8360018111156112b8576112b76137ee565b5b14156113a457600060cf60009054906101000a900473ffffffffffffffffffffffffffffffffffffffff1673ffffffffffffffffffffffffffffffffffffffff1662fdd58e33886040518363ffffffff1660e01b815260040161131c929190613b45565b602060405180830381865afa158015611339573d6000803e3d6000fd5b505050506040513d601f19601f8201168201806040525081019061135d9190613b83565b9050848110156113a2576040517f08c379a000000000000000000000000000000000000000000000000000000000815260040161139990613c22565b60405180910390fd5b505b600060cd600087815260200190815260200160002060008060018111156113ce576113cd6137ee565b5b8660018111156113e1576113e06137ee565b5b146113ed5760006113f0565b60015b6001811115611402576114016137ee565b5b815260200190815260200160002090506000808690505b82805490508210801561142c5750600081115b156120e757600083838154811061144657611445613e53565b5b90600052602060002090600702016004015484848154811061146b5761146a613e53565b5b9060005260206000209060070201600301546114879190613db3565b90506000818311611498578261149a565b815b905080836114a89190613db3565b9250808585815481106114be576114bd613e53565b5b9060005260206000209060070201600401546114da9190613c71565b8585815481106114ed576114ec613e53565b5b90600052602060002090600702016004018190555061150c60ca6131f0565b600061151860ca613206565b90506115b68187878154811061153157611530613e53565b5b9060005260206000209060070201600001548d89898154811061155757611556613e53565b5b906000526020600020906007020160010160009054906101000a900473ffffffffffffffffffffffffffffffffffffffff1633878c8c8154811061159e5761159d613e53565b5b90600052602060002090600702016005015442613222565b6116ef8686815481106115cc576115cb613e53565b5b9060005260206000209060070201600001548787815481106115f1576115f0613e53565b5b906000526020600020906007020160010160009054906101000a900473ffffffffffffffffffffffffffffffffffffffff1688888154811061163657611635613e53565b5b906000526020600020906007020160010160149054906101000a900460ff1689898154811061166857611667613e53565b5b9060005260206000209060070201600201548a8a8154811061168d5761168c613e53565b5b9060005260206000209060070201600301548b8b815481106116b2576116b1613e53565b5b9060005260206000209060070201600401548c8c815481106116d7576116d6613e53565b5b90600052602060002090600702016005015442613214565b600180811115611702576117016137ee565b5b896001811115611715576117146137ee565b5b1415611adb5760cf60009054906101000a900473ffffffffffffffffffffffffffffffffffffffff1673ffffffffffffffffffffffffffffffffffffffff1663605105f03388888154811061176d5761176c613e53565b5b906000526020600020906007020160010160009054906101000a900473ffffffffffffffffffffffffffffffffffffffff168e866040518563ffffffff1660e01b81526004016117c09493929190613f4f565b600060405180830381600087803b1580156117da57600080fd5b505af11580156117ee573d6000803e3d6000fd5b505050508186868154811061180657611805613e53565b5b9060005260206000209060070201600501546118229190613d59565b60cb60003373ffffffffffffffffffffffffffffffffffffffff1673ffffffffffffffffffffffffffffffffffffffff16815260200190815260200160002060008282546118709190613c71565b925050819055508186868154811061188b5761188a613e53565b5b9060005260206000209060070201600501546118a79190613d59565b60cb60008888815481106118be576118bd613e53565b5b906000526020600020906007020160010160009054906101000a900473ffffffffffffffffffffffffffffffffffffffff1673ffffffffffffffffffffffffffffffffffffffff1673ffffffffffffffffffffffffffffffffffffffff16815260200190815260200160002060008282546119399190613db3565b925050819055508186868154811061195457611953613e53565b5b9060005260206000209060070201600501546119709190613d59565b60cc600088888154811061198757611986613e53565b5b906000526020600020906007020160010160009054906101000a900473ffffffffffffffffffffffffffffffffffffffff1673ffffffffffffffffffffffffffffffffffffffff1673ffffffffffffffffffffffffffffffffffffffff1681526020019081526020016000206000828254611a029190613db3565b92505081905550611ada868681548110611a1f57611a1e613e53565b5b906000526020600020906007020160010160009054906101000a900473ffffffffffffffffffffffffffffffffffffffff1660cc6000898981548110611a6857611a67613e53565b5b906000526020600020906007020160010160009054906101000a900473ffffffffffffffffffffffffffffffffffffffff1673ffffffffffffffffffffffffffffffffffffffff1673ffffffffffffffffffffffffffffffffffffffff168152602001908152602001600020546131ec565b5b60006001811115611aef57611aee6137ee565b5b896001811115611b0257611b016137ee565b5b1415611fb75781868681548110611b1c57611b1b613e53565b5b906000526020600020906007020160050154611b389190613d59565b60cc60003373ffffffffffffffffffffffffffffffffffffffff1673ffffffffffffffffffffffffffffffffffffffff1681526020019081526020016000205460cb60003373ffffffffffffffffffffffffffffffffffffffff1673ffffffffffffffffffffffffffffffffffffffff16815260200190815260200160002054611bc29190613db3565b1015611c03576040517f08c379a0000000000000000000000000000000000000000000000000000000008152600401611bfa90613e33565b60405180910390fd5b60cf60009054906101000a900473ffffffffffffffffffffffffffffffffffffffff1673ffffffffffffffffffffffffffffffffffffffff1663605105f0878781548110611c5457611c53613e53565b5b906000526020600020906007020160010160009054906101000a900473ffffffffffffffffffffffffffffffffffffffff16338e866040518563ffffffff1660e01b8152600401611ca89493929190613f4f565b600060405180830381600087803b158015611cc257600080fd5b505af1158015611cd6573d6000803e3d6000fd5b5050505081868681548110611cee57611ced613e53565b5b906000526020600020906007020160050154611d0a9190613d59565b60cb60003373ffffffffffffffffffffffffffffffffffffffff1673ffffffffffffffffffffffffffffffffffffffff1681526020019081526020016000206000828254611d589190613db3565b9250508190555081868681548110611d7357611d72613e53565b5b906000526020600020906007020160050154611d8f9190613d59565b60cb6000888881548110611da657611da5613e53565b5b906000526020600020906007020160010160009054906101000a900473ffffffffffffffffffffffffffffffffffffffff1673ffffffffffffffffffffffffffffffffffffffff1673ffffffffffffffffffffffffffffffffffffffff1681526020019081526020016000206000828254611e219190613c71565b925050819055508160ce6000888881548110611e4057611e3f613e53565b5b906000526020600020906007020160010160009054906101000a900473ffffffffffffffffffffffffffffffffffffffff1673ffffffffffffffffffffffffffffffffffffffff1673ffffffffffffffffffffffffffffffffffffffff16815260200190815260200160002060008d81526020019081526020016000206000828254611ecc9190613db3565b92505081905550611fb6868681548110611ee957611ee8613e53565b5b906000526020600020906007020160010160009054906101000a900473ffffffffffffffffffffffffffffffffffffffff168c60ce60008a8a81548110611f3357611f32613e53565b5b906000526020600020906007020160010160009054906101000a900473ffffffffffffffffffffffffffffffffffffffff1673ffffffffffffffffffffffffffffffffffffffff1673ffffffffffffffffffffffffffffffffffffffff16815260200190815260200160002060008f8152602001908152602001600020546131e7565b5b6120003360cb60003373ffffffffffffffffffffffffffffffffffffffff1673ffffffffffffffffffffffffffffffffffffffff1681526020019081526020016000205461321e565b6120d186868154811061201657612015613e53565b5b906000526020600020906007020160010160009054906101000a900473ffffffffffffffffffffffffffffffffffffffff1660cb600089898154811061205f5761205e613e53565b5b906000526020600020906007020160010160009054906101000a900473ffffffffffffffffffffffffffffffffffffffff1673ffffffffffffffffffffffffffffffffffffffff1673ffffffffffffffffffffffffffffffffffffffff1681526020019081526020016000205461321e565b84806120dc90613fa7565b955050505050611419565b600091505b828054905082108015612146575082828154811061210d5761210c613e53565b5b90600052602060002090600702016003015483838154811061213257612131613e53565b5b906000526020600020906007020160040154145b156123835761217883838154811061216157612160613e53565b5b90600052602060002090600702016000015461322c565b60008290505b6001848054905061218f9190613db3565b8110156122da57836001826121a49190613c71565b815481106121b5576121b4613e53565b5b90600052602060002090600702018482815481106121d6576121d5613e53565b5b9060005260206000209060070201600082015481600001556001820160009054906101000a900473ffffffffffffffffffffffffffffffffffffffff168160010160006101000a81548173ffffffffffffffffffffffffffffffffffffffff021916908373ffffffffffffffffffffffffffffffffffffffff1602179055506001820160149054906101000a900460ff168160010160146101000a81548160ff0219169083600181111561228d5761228c6137ee565b5b0217905550600282015481600201556003820154816003015560048201548160040155600582015481600501556006820154816006015590505080806122d290613fa7565b91505061217e565b50828054806122ec576122eb613ff0565b5b60019003818190600052602060002090600702016000808201600090556001820160006101000a81549073ffffffffffffffffffffffffffffffffffffffff02191690556001820160146101000a81549060ff02191690556002820160009055600382016000905560048201600090556005820160009055600682016000905550509055818061237b90613fa7565b9250506120ec565b50505050506001609781905550505050565b6000603360009054906101000a900460ff16905090565b6123b461322f565b73ffffffffffffffffffffffffffffffffffffffff166123d26125a6565b73ffffffffffffffffffffffffffffffffffffffff1614612428576040517f08c379a000000000000000000000000000000000000000000000000000000000815260040161241f9061406b565b60405180910390fd5b6124326000613237565b565b600060019054906101000a900460ff1661245c5760008054906101000a900460ff1615612465565b6124646132fd565b5b6124a4576040517f08c379a000000000000000000000000000000000000000000000000000000000815260040161249b906140fd565b60405180910390fd5b60008060019054906101000a900460ff1615905080156124f4576001600060016101000a81548160ff02191690831515021790555060016000806101000a81548160ff0219169083151502179055505b6124fc612c85565b801561251d5760008060016101000a81548160ff0219169083151502179055505b50565b61252861322f565b73ffffffffffffffffffffffffffffffffffffffff166125466125a6565b73ffffffffffffffffffffffffffffffffffffffff161461259c576040517f08c379a00000000000000000000000000000000000000000000000000000000081526004016125939061406b565b60405180910390fd5b6125a461330e565b565b6000606560009054906101000a900473ffffffffffffffffffffffffffffffffffffffff16905090565b600060cd600085815260200190815260200160002060008460018111156125fa576125f96137ee565b5b8152602001908152602001600020905060005b8180549050811015612b1a578282828154811061262d5761262c613e53565b5b9060005260206000209060070201600001541415612b075781818154811061265857612657613e53565b5b906000526020600020906007020160010160009054906101000a900473ffffffffffffffffffffffffffffffffffffffff1673ffffffffffffffffffffffffffffffffffffffff163373ffffffffffffffffffffffffffffffffffffffff16146126f7576040517f08c379a00000000000000000000000000000000000000000000000000000000081526004016126ee9061418f565b60405180910390fd5b6000600181111561270b5761270a6137ee565b5b82828154811061271e5761271d613e53565b5b906000526020600020906007020160010160149054906101000a900460ff16600181111561274f5761274e6137ee565b5b141561284c5781818154811061276857612767613e53565b5b90600052602060002090600702016005015482828154811061278d5761278c613e53565b5b9060005260206000209060070201600301546127a99190613d59565b60cc60003373ffffffffffffffffffffffffffffffffffffffff1673ffffffffffffffffffffffffffffffffffffffff16815260200190815260200160002060008282546127f79190613db3565b925050819055506128473360cc60003373ffffffffffffffffffffffffffffffffffffffff1673ffffffffffffffffffffffffffffffffffffffff168152602001908152602001600020546131ec565b612933565b81818154811061285f5761285e613e53565b5b90600052602060002090600702016003015460ce60003373ffffffffffffffffffffffffffffffffffffffff1673ffffffffffffffffffffffffffffffffffffffff168152602001908152602001600020600087815260200190815260200160002060008282546128d09190613db3565b92505081905550612932338660ce60003373ffffffffffffffffffffffffffffffffffffffff1673ffffffffffffffffffffffffffffffffffffffff1681526020019081526020016000206000898152602001908152602001600020546131e7565b5b81600183805490506129459190613db3565b8154811061295657612955613e53565b5b906000526020600020906007020182828154811061297757612976613e53565b5b9060005260206000209060070201600082015481600001556001820160009054906101000a900473ffffffffffffffffffffffffffffffffffffffff168160010160006101000a81548173ffffffffffffffffffffffffffffffffffffffff021916908373ffffffffffffffffffffffffffffffffffffffff1602179055506001820160149054906101000a900460ff168160010160146101000a81548160ff02191690836001811115612a2e57612a2d6137ee565b5b0217905550600282015481600201556003820154816003015560048201548160040155600582015481600501556006820154816006015590505081805480612a7957612a78613ff0565b5b60019003818190600052602060002090600702016000808201600090556001820160006101000a81549073ffffffffffffffffffffffffffffffffffffffff02191690556001820160146101000a81549060ff02191690556002820160009055600382016000905560048201600090556005820160009055600682016000905550509055612b068361322c565b5b8080612b1290613fa7565b91505061260d565b5050505050565b606060cd60008481526020019081526020016000206000836001811115612b4b57612b4a6137ee565b5b8152602001908152602001600020805480602002602001604051908101604052809291908181526020016000905b82821015612c79578382906000526020600020906007020160405180610100016040529081600082015481526020016001820160009054906101000a900473ffffffffffffffffffffffffffffffffffffffff1673ffffffffffffffffffffffffffffffffffffffff1673ffffffffffffffffffffffffffffffffffffffff1681526020016001820160149054906101000a900460ff166001811115612c2257612c216137ee565b5b6001811115612c3457612c336137ee565b5b81526020016002820154815260200160038201548152602001600482015481526020016005820154815260200160068201548152505081526020019060010190612b79565b50505050905092915050565b600060019054906101000a900460ff16612cad5760008054906101000a900460ff1615612cb6565b612cb56132fd565b5b612cf5576040517f08c379a0000000000000000000000000000000000000000000000000000000008152600401612cec906140fd565b60405180910390fd5b60008060019054906101000a900460ff161590508015612d45576001600060016101000a81548160ff02191690831515021790555060016000806101000a81548160ff0219169083151502179055505b612d4d6133b1565b612d55613402565b612d5d61346e565b8015612d7e5760008060016101000a81548160ff0219169083151502179055505b50565b600060ce60008473ffffffffffffffffffffffffffffffffffffffff1673ffffffffffffffffffffffffffffffffffffffff168152602001908152602001600020600083815260200190815260200160002054905092915050565b60026097541415612e22576040517f08c379a0000000000000000000000000000000000000000000000000000000008152600401612e1990613ef8565b60405180910390fd5b6002609781905550612e32612395565b15612e72576040517f08c379a0000000000000000000000000000000000000000000000000000000008152600401612e6990613b25565b60405180910390fd5b8060cc60003373ffffffffffffffffffffffffffffffffffffffff1673ffffffffffffffffffffffffffffffffffffffff1681526020019081526020016000205460cb60003373ffffffffffffffffffffffffffffffffffffffff1673ffffffffffffffffffffffffffffffffffffffff16815260200190815260200160002054612efd9190613db3565b1015612f3e576040517f08c379a0000000000000000000000000000000000000000000000000000000008152600401612f35906141fb565b60405180910390fd5b8060cb60003373ffffffffffffffffffffffffffffffffffffffff1673ffffffffffffffffffffffffffffffffffffffff1681526020019081526020016000206000828254612f8d9190613db3565b925050819055503373ffffffffffffffffffffffffffffffffffffffff166108fc829081150290604051600060405180830381858888f19350505050158015612fda573d6000803e3d6000fd5b506130243360cb60003373ffffffffffffffffffffffffffffffffffffffff1673ffffffffffffffffffffffffffffffffffffffff1681526020019081526020016000205461321e565b600160978190555050565b61303761322f565b73ffffffffffffffffffffffffffffffffffffffff166130556125a6565b73ffffffffffffffffffffffffffffffffffffffff16146130ab576040517f08c379a00000000000000000000000000000000000000000000000000000000081526004016130a29061406b565b60405180910390fd5b600073ffffffffffffffffffffffffffffffffffffffff168173ffffffffffffffffffffffffffffffffffffffff16141561311b576040517f08c379a00000000000000000000000000000000000000000000000000000000081526004016131129061428d565b60405180910390fd5b61312481613237565b50565b61312f61322f565b73ffffffffffffffffffffffffffffffffffffffff1661314d6125a6565b73ffffffffffffffffffffffffffffffffffffffff16146131a3576040517f08c379a000000000000000000000000000000000000000000000000000000000815260040161319a9061406b565b60405180910390fd5b8060cf60006101000a81548173ffffffffffffffffffffffffffffffffffffffff021916908373ffffffffffffffffffffffffffffffffffffffff16021790555050565b505050565b5050565b6001816000016000828254019250508190555050565b600081600001549050919050565b5050505050505050565b5050565b5050505050505050565b50565b600033905090565b6000606560009054906101000a900473ffffffffffffffffffffffffffffffffffffffff16905081606560006101000a81548173ffffffffffffffffffffffffffffffffffffffff021916908373ffffffffffffffffffffffffffffffffffffffff1602179055508173ffffffffffffffffffffffffffffffffffffffff168173ffffffffffffffffffffffffffffffffffffffff167f8be0079c531659141344cd1fd0a4f28419497f9722a3daafe3b4186f6b6457e060405160405180910390a35050565b6000613308306134cf565b15905090565b613316612395565b15613356576040517f08c379a000000000000000000000000000000000000000000000000000000000815260040161334d906142f9565b60405180910390fd5b6001603360006101000a81548160ff0219169083151502179055507f62e78cea01bee320cd4e420270b5ea74000d11b0c9f74754ebdbfc544b05a25861339a61322f565b6040516133a791906136f6565b60405180910390a1565b600060019054906101000a900460ff16613400576040517f08c379a00000000000000000000000000000000000000000000000000000000081526004016133f79061438b565b60405180910390fd5b565b600060019054906101000a900460ff16613451576040517f08c379a00000000000000000000000000000000000000000000000000000000081526004016134489061438b565b60405180910390fd5b6000603360006101000a81548160ff021916908315150217905550565b600060019054906101000a900460ff166134bd576040517f08c379a00000000000000000000000000000000000000000000000000000000081526004016134b49061438b565b60405180910390fd5b6134cd6134c861322f565b613237565b565b600080823b905060008111915050919050565b600080fd5b6000819050919050565b6134fa816134e7565b811461350557600080fd5b50565b600081359050613517816134f1565b92915050565b6002811061352a57600080fd5b50565b60008135905061353c8161351d565b92915050565b6000806000806080858703121561355c5761355b6134e2565b5b600061356a87828801613508565b945050602061357b87828801613508565b935050604061358c87828801613508565b925050606061359d8782880161352d565b91505092959194509250565b600073ffffffffffffffffffffffffffffffffffffffff82169050919050565b60006135d4826135a9565b9050919050565b6135e4816135c9565b81146135ef57600080fd5b50565b600081359050613601816135db565b92915050565b60006020828403121561361d5761361c6134e2565b5b600061362b848285016135f2565b91505092915050565b61363d816134e7565b82525050565b60006020820190506136586000830184613634565b92915050565b600080600060608486031215613677576136766134e2565b5b600061368586828701613508565b935050602061369686828701613508565b92505060406136a78682870161352d565b9150509250925092565b60008115159050919050565b6136c6816136b1565b82525050565b60006020820190506136e160008301846136bd565b92915050565b6136f0816135c9565b82525050565b600060208201905061370b60008301846136e7565b92915050565b60008060006060848603121561372a576137296134e2565b5b600061373886828701613508565b93505060206137498682870161352d565b925050604061375a86828701613508565b9150509250925092565b6000806040838503121561377b5761377a6134e2565b5b600061378985828601613508565b925050602061379a8582860161352d565b9150509250929050565b600081519050919050565b600082825260208201905092915050565b6000819050602082019050919050565b6137d9816134e7565b82525050565b6137e8816135c9565b82525050565b7f4e487b7100000000000000000000000000000000000000000000000000000000600052602160045260246000fd5b6002811061382e5761382d6137ee565b5b50565b600081905061383f8261381d565b919050565b600061384f82613831565b9050919050565b61385f81613844565b82525050565b6101008201600082015161387c60008501826137d0565b50602082015161388f60208501826137df565b5060408201516138a26040850182613856565b5060608201516138b560608501826137d0565b5060808201516138c860808501826137d0565b5060a08201516138db60a08501826137d0565b5060c08201516138ee60c08501826137d0565b5060e082015161390160e08501826137d0565b50505050565b60006139138383613865565b6101008301905092915050565b6000602082019050919050565b6000613938826137a4565b61394281856137af565b935061394d836137c0565b8060005b8381101561397e5781516139658882613907565b975061397083613920565b925050600181019050613951565b5085935050505092915050565b600060208201905081810360008301526139a5818461392d565b905092915050565b600080604083850312156139c4576139c36134e2565b5b60006139d2858286016135f2565b92505060206139e385828601613508565b9150509250929050565b600060208284031215613a0357613a026134e2565b5b6000613a1184828501613508565b91505092915050565b600081519050613a29816135db565b92915050565b600060208284031215613a4557613a446134e2565b5b6000613a5384828501613a1a565b91505092915050565b600082825260208201905092915050565b7f7468697320746f6b656e20646f6573206e6f7420657869737400000000000000600082015250565b6000613aa3601983613a5c565b9150613aae82613a6d565b602082019050919050565b60006020820190508181036000830152613ad281613a96565b9050919050565b7f4e6f7420616c6c6f776564207768696c65207061757365640000000000000000600082015250565b6000613b0f601883613a5c565b9150613b1a82613ad9565b602082019050919050565b60006020820190508181036000830152613b3e81613b02565b9050919050565b6000604082019050613b5a60008301856136e7565b613b676020830184613634565b9392505050565b600081519050613b7d816134f1565b92915050565b600060208284031215613b9957613b986134e2565b5b6000613ba784828501613b6e565b91505092915050565b7f6d6573736167652073656e646572277320746f6b656e2062616c616e6365206960008201527f7320746f6f206c6f770000000000000000000000000000000000000000000000602082015250565b6000613c0c602983613a5c565b9150613c1782613bb0565b604082019050919050565b60006020820190508181036000830152613c3b81613bff565b9050919050565b7f4e487b7100000000000000000000000000000000000000000000000000000000600052601160045260246000fd5b6000613c7c826134e7565b9150613c87836134e7565b9250827fffffffffffffffffffffffffffffffffffffffffffffffffffffffffffffffff03821115613cbc57613cbb613c42565b5b828201905092915050565b7f746f74616c20616d6f756e74206f66206672616374696f6e73206973206c6f7760008201527f6572207468616e2074686520676976656e20616d6f756e740000000000000000602082015250565b6000613d23603883613a5c565b9150613d2e82613cc7565b604082019050919050565b60006020820190508181036000830152613d5281613d16565b9050919050565b6000613d64826134e7565b9150613d6f836134e7565b9250817fffffffffffffffffffffffffffffffffffffffffffffffffffffffffffffffff0483118215151615613da857613da7613c42565b5b828202905092915050565b6000613dbe826134e7565b9150613dc9836134e7565b925082821015613ddc57613ddb613c42565b5b828203905092915050565b7f6574682062616c616e636520746f6f206c6f7700000000000000000000000000600082015250565b6000613e1d601383613a5c565b9150613e2882613de7565b602082019050919050565b60006020820190508181036000830152613e4c81613e10565b9050919050565b7f4e487b7100000000000000000000000000000000000000000000000000000000600052603260045260246000fd5b6000613e8d826134e7565b91506000821415613ea157613ea0613c42565b5b600182039050919050565b7f5265656e7472616e637947756172643a207265656e7472616e742063616c6c00600082015250565b6000613ee2601f83613a5c565b9150613eed82613eac565b602082019050919050565b60006020820190508181036000830152613f1181613ed5565b9050919050565b600082825260208201905092915050565b50565b6000613f39600083613f18565b9150613f4482613f29565b600082019050919050565b600060a082019050613f6460008301876136e7565b613f7160208301866136e7565b613f7e6040830185613634565b613f8b6060830184613634565b8181036080830152613f9c81613f2c565b905095945050505050565b6000613fb2826134e7565b91507fffffffffffffffffffffffffffffffffffffffffffffffffffffffffffffffff821415613fe557613fe4613c42565b5b600182019050919050565b7f4e487b7100000000000000000000000000000000000000000000000000000000600052603160045260246000fd5b7f4f776e61626c653a2063616c6c6572206973206e6f7420746865206f776e6572600082015250565b6000614055602083613a5c565b91506140608261401f565b602082019050919050565b6000602082019050818103600083015261408481614048565b9050919050565b7f496e697469616c697a61626c653a20636f6e747261637420697320616c72656160008201527f647920696e697469616c697a6564000000000000000000000000000000000000602082015250565b60006140e7602e83613a5c565b91506140f28261408b565b604082019050919050565b60006020820190508181036000830152614116816140da565b9050919050565b7f4f6e6c7920746865207472616465722063616e2064656c65746520686973206f60008201527f7264657200000000000000000000000000000000000000000000000000000000602082015250565b6000614179602483613a5c565b91506141848261411d565b604082019050919050565b600060208201905081810360008301526141a88161416c565b9050919050565b7f4554482062616c616e6365206973206e6f7420656e6f75676800000000000000600082015250565b60006141e5601983613a5c565b91506141f0826141af565b602082019050919050565b60006020820190508181036000830152614214816141d8565b9050919050565b7f4f776e61626c653a206e6577206f776e657220697320746865207a65726f206160008201527f6464726573730000000000000000000000000000000000000000000000000000602082015250565b6000614277602683613a5c565b91506142828261421b565b604082019050919050565b600060208201905081810360008301526142a68161426a565b9050919050565b7f5061757361626c653a2070617573656400000000000000000000000000000000600082015250565b60006142e3601083613a5c565b91506142ee826142ad565b602082019050919050565b60006020820190508181036000830152614312816142d6565b9050919050565b7f496e697469616c697a61626c653a20636f6e7472616374206973206e6f74206960008201527f6e697469616c697a696e67000000000000000000000000000000000000000000602082015250565b6000614375602b83613a5c565b915061438082614319565b604082019050919050565b600060208201905081810360008301526143a481614368565b905091905056fea2646970667358221220e343192d6063bed3047d1fb59ce67399b4367323fdbcb6addbe417d90053e2c564736f6c634300080a0033",
  "immutableReferences": {},
  "source": "// SPDX-License-Identifier: MIT\n\npragma solidity ^0.8.0;\n\nimport \"./DexBase.sol\";\n\ncontract BscDex is DexBase {\n  function initialize() public initializer {\n    __DexBase_init();\n  }\n\n  function getOrders(uint256 tokenId, Side side) external view returns (Order[] memory) {\n    return orderBook[tokenId][uint256(side)];\n  }\n\n  function getEthBalance(address owner) public view returns (uint256) {\n    return ethBalance[owner];\n  }\n\n  function getEthReserveBalance(address owner) public view returns (uint256) {\n    return ethReservedBalance[owner];\n  }\n\n  function getSharesReserveBalance(address owner, uint256 tokenId) public view returns (uint256) {\n    return sharesReserved[owner][tokenId];\n  }\n}",
  "sourcePath": "/home/janus/work/react.js-solidity_nft-fractions-dex/contracts/BscDex.sol",
  "compiler": {
    "name": "solc",
    "version": "0.8.10+commit.fc410830.Emscripten.clang"
  },
  "schemaVersion": "3.4.3",
  "updatedAt": "2021-12-27T06:36:34.243Z",
  "devdoc": {
    "kind": "dev",
    "methods": {
      "owner()": {
        "details": "Returns the address of the current owner."
      },
      "paused()": {
        "details": "Returns true if the contract is paused, and false otherwise."
      },
      "renounceOwnership()": {
        "details": "Leaves the contract without owner. It will not be possible to call `onlyOwner` functions anymore. Can only be called by the current owner. NOTE: Renouncing ownership will leave the contract without an owner, thereby removing any functionality that is only available to the owner."
      },
      "transferOwnership(address)": {
        "details": "Transfers ownership of the contract to a new account (`newOwner`). Can only be called by the current owner."
      }
    },
    "version": 1
  },
  "userdoc": {
    "kind": "user",
    "methods": {},
    "version": 1
  }
}