{
  "contractName": "ERC721Mock",
  "abi": [
    {
      "inputs": [],
      "stateMutability": "nonpayable",
      "type": "constructor"
    },
    {
      "anonymous": false,
      "inputs": [
        {
          "indexed": true,
          "internalType": "address",
          "name": "owner",
          "type": "address"
        },
        {
          "indexed": true,
          "internalType": "address",
          "name": "approved",
          "type": "address"
        },
        {
          "indexed": true,
          "internalType": "uint256",
          "name": "tokenId",
          "type": "uint256"
        }
      ],
      "name": "Approval",
      "type": "event"
    },
    {
      "anonymous": false,
      "inputs": [
        {
          "indexed": true,
          "internalType": "address",
          "name": "owner",
          "type": "address"
        },
        {
          "indexed": true,
          "internalType": "address",
          "name": "operator",
          "type": "address"
        },
        {
          "indexed": false,
          "internalType": "bool",
          "name": "approved",
          "type": "bool"
        }
      ],
      "name": "ApprovalForAll",
      "type": "event"
    },
    {
      "anonymous": false,
      "inputs": [
        {
          "indexed": true,
          "internalType": "address",
          "name": "from",
          "type": "address"
        },
        {
          "indexed": true,
          "internalType": "address",
          "name": "to",
          "type": "address"
        },
        {
          "indexed": true,
          "internalType": "uint256",
          "name": "tokenId",
          "type": "uint256"
        }
      ],
      "name": "Transfer",
      "type": "event"
    },
    {
      "inputs": [
        {
          "internalType": "address",
          "name": "to",
          "type": "address"
        },
        {
          "internalType": "uint256",
          "name": "tokenId",
          "type": "uint256"
        }
      ],
      "name": "approve",
      "outputs": [],
      "stateMutability": "nonpayable",
      "type": "function"
    },
    {
      "inputs": [
        {
          "internalType": "address",
          "name": "owner",
          "type": "address"
        }
      ],
      "name": "balanceOf",
      "outputs": [
        {
          "internalType": "uint256",
          "name": "",
          "type": "uint256"
        }
      ],
      "stateMutability": "view",
      "type": "function"
    },
    {
      "inputs": [
        {
          "internalType": "uint256",
          "name": "tokenId",
          "type": "uint256"
        }
      ],
      "name": "getApproved",
      "outputs": [
        {
          "internalType": "address",
          "name": "",
          "type": "address"
        }
      ],
      "stateMutability": "view",
      "type": "function"
    },
    {
      "inputs": [
        {
          "internalType": "address",
          "name": "owner",
          "type": "address"
        },
        {
          "internalType": "address",
          "name": "operator",
          "type": "address"
        }
      ],
      "name": "isApprovedForAll",
      "outputs": [
        {
          "internalType": "bool",
          "name": "",
          "type": "bool"
        }
      ],
      "stateMutability": "view",
      "type": "function"
    },
    {
      "inputs": [],
      "name": "name",
      "outputs": [
        {
          "internalType": "string",
          "name": "",
          "type": "string"
        }
      ],
      "stateMutability": "view",
      "type": "function"
    },
    {
      "inputs": [
        {
          "internalType": "uint256",
          "name": "tokenId",
          "type": "uint256"
        }
      ],
      "name": "ownerOf",
      "outputs": [
        {
          "internalType": "address",
          "name": "",
          "type": "address"
        }
      ],
      "stateMutability": "view",
      "type": "function"
    },
    {
      "inputs": [
        {
          "internalType": "address",
          "name": "from",
          "type": "address"
        },
        {
          "internalType": "address",
          "name": "to",
          "type": "address"
        },
        {
          "internalType": "uint256",
          "name": "tokenId",
          "type": "uint256"
        }
      ],
      "name": "safeTransferFrom",
      "outputs": [],
      "stateMutability": "nonpayable",
      "type": "function"
    },
    {
      "inputs": [
        {
          "internalType": "address",
          "name": "from",
          "type": "address"
        },
        {
          "internalType": "address",
          "name": "to",
          "type": "address"
        },
        {
          "internalType": "uint256",
          "name": "tokenId",
          "type": "uint256"
        },
        {
          "internalType": "bytes",
          "name": "_data",
          "type": "bytes"
        }
      ],
      "name": "safeTransferFrom",
      "outputs": [],
      "stateMutability": "nonpayable",
      "type": "function"
    },
    {
      "inputs": [
        {
          "internalType": "address",
          "name": "operator",
          "type": "address"
        },
        {
          "internalType": "bool",
          "name": "approved",
          "type": "bool"
        }
      ],
      "name": "setApprovalForAll",
      "outputs": [],
      "stateMutability": "nonpayable",
      "type": "function"
    },
    {
      "inputs": [
        {
          "internalType": "bytes4",
          "name": "interfaceId",
          "type": "bytes4"
        }
      ],
      "name": "supportsInterface",
      "outputs": [
        {
          "internalType": "bool",
          "name": "",
          "type": "bool"
        }
      ],
      "stateMutability": "view",
      "type": "function"
    },
    {
      "inputs": [],
      "name": "symbol",
      "outputs": [
        {
          "internalType": "string",
          "name": "",
          "type": "string"
        }
      ],
      "stateMutability": "view",
      "type": "function"
    },
    {
      "inputs": [
        {
          "internalType": "uint256",
          "name": "tokenId",
          "type": "uint256"
        }
      ],
      "name": "tokenURI",
      "outputs": [
        {
          "internalType": "string",
          "name": "",
          "type": "string"
        }
      ],
      "stateMutability": "view",
      "type": "function"
    },
    {
      "inputs": [
        {
          "internalType": "address",
          "name": "from",
          "type": "address"
        },
        {
          "internalType": "address",
          "name": "to",
          "type": "address"
        },
        {
          "internalType": "uint256",
          "name": "tokenId",
          "type": "uint256"
        }
      ],
      "name": "transferFrom",
      "outputs": [],
      "stateMutability": "nonpayable",
      "type": "function"
    },
    {
      "inputs": [
        {
          "internalType": "address",
          "name": "to",
          "type": "address"
        },
        {
          "internalType": "uint256",
          "name": "tokenId",
          "type": "uint256"
        }
      ],
      "name": "mint",
      "outputs": [],
      "stateMutability": "nonpayable",
      "type": "function"
    },
    {
      "inputs": [
        {
          "internalType": "uint256",
          "name": "tokenId",
          "type": "uint256"
        },
        {
          "internalType": "string",
          "name": "tokenURI",
          "type": "string"
        }
      ],
      "name": "setTokenURI",
      "outputs": [],
      "stateMutability": "nonpayable",
      "type": "function"
    }
  ],
  "bytecode": "0x60806040523480156200001157600080fd5b506040518060400160405280600981526020017f4e465420436f696e7400000000000000000000000000000000000000000000008152506040518060400160405280600381526020017f4e46540000000000000000000000000000000000000000000000000000000000815250816000908051906020019062000096929190620000b8565b508060019080519060200190620000af929190620000b8565b505050620001cd565b828054620000c69062000197565b90600052602060002090601f016020900481019282620000ea576000855562000136565b82601f106200010557805160ff191683800117855562000136565b8280016001018555821562000136579182015b828111156200013557825182559160200191906001019062000118565b5b50905062000145919062000149565b5090565b5b80821115620001645760008160009055506001016200014a565b5090565b7f4e487b7100000000000000000000000000000000000000000000000000000000600052602260045260246000fd5b60006002820490506001821680620001b057607f821691505b60208210811415620001c757620001c662000168565b5b50919050565b612b6980620001dd6000396000f3fe608060405234801561001057600080fd5b50600436106100f55760003560e01c806342842e0e11610097578063a22cb46511610066578063a22cb46514610282578063b88d4fde1461029e578063c87b56dd146102ba578063e985e9c5146102ea576100f5565b806342842e0e146101e85780636352211e1461020457806370a082311461023457806395d89b4114610264576100f5565b8063095ea7b3116100d3578063095ea7b314610178578063162094c41461019457806323b872dd146101b057806340c10f19146101cc576100f5565b806301ffc9a7146100fa57806306fdde031461012a578063081812fc14610148575b600080fd5b610114600480360381019061010f91906118cb565b61031a565b6040516101219190611913565b60405180910390f35b6101326103fc565b60405161013f91906119c7565b60405180910390f35b610162600480360381019061015d9190611a1f565b61048e565b60405161016f9190611a8d565b60405180910390f35b610192600480360381019061018d9190611ad4565b610513565b005b6101ae60048036038101906101a99190611c49565b61062b565b005b6101ca60048036038101906101c59190611ca5565b610639565b005b6101e660048036038101906101e19190611ad4565b610699565b005b61020260048036038101906101fd9190611ca5565b6106a7565b005b61021e60048036038101906102199190611a1f565b6106c7565b60405161022b9190611a8d565b60405180910390f35b61024e60048036038101906102499190611cf8565b610779565b60405161025b9190611d34565b60405180910390f35b61026c610831565b60405161027991906119c7565b60405180910390f35b61029c60048036038101906102979190611d7b565b6108c3565b005b6102b860048036038101906102b39190611e5c565b6108d9565b005b6102d460048036038101906102cf9190611a1f565b61093b565b6040516102e191906119c7565b60405180910390f35b61030460048036038101906102ff9190611edf565b610a8d565b6040516103119190611913565b60405180910390f35b60007f80ac58cd000000000000000000000000000000000000000000000000000000007bffffffffffffffffffffffffffffffffffffffffffffffffffffffff1916827bffffffffffffffffffffffffffffffffffffffffffffffffffffffff191614806103e557507f5b5e139f000000000000000000000000000000000000000000000000000000007bffffffffffffffffffffffffffffffffffffffffffffffffffffffff1916827bffffffffffffffffffffffffffffffffffffffffffffffffffffffff1916145b806103f557506103f482610b21565b5b9050919050565b60606000805461040b90611f4e565b80601f016020809104026020016040519081016040528092919081815260200182805461043790611f4e565b80156104845780601f1061045957610100808354040283529160200191610484565b820191906000526020600020905b81548152906001019060200180831161046757829003601f168201915b5050505050905090565b600061049982610b8b565b6104d8576040517f08c379a00000000000000000000000000000000000000000000000000000000081526004016104cf90611ff2565b60405180910390fd5b6004600083815260200190815260200160002060009054906101000a900473ffffffffffffffffffffffffffffffffffffffff169050919050565b600061051e826106c7565b90508073ffffffffffffffffffffffffffffffffffffffff168373ffffffffffffffffffffffffffffffffffffffff16141561058f576040517f08c379a000000000000000000000000000000000000000000000000000000000815260040161058690612084565b60405180910390fd5b8073ffffffffffffffffffffffffffffffffffffffff166105ae610bf7565b73ffffffffffffffffffffffffffffffffffffffff1614806105dd57506105dc816105d7610bf7565b610a8d565b5b61061c576040517f08c379a000000000000000000000000000000000000000000000000000000000815260040161061390612116565b60405180910390fd5b6106268383610bff565b505050565b6106358282610cb8565b5050565b61064a610644610bf7565b82610d2c565b610689576040517f08c379a0000000000000000000000000000000000000000000000000000000008152600401610680906121a8565b60405180910390fd5b610694838383610e0a565b505050565b6106a38282611066565b5050565b6106c2838383604051806020016040528060008152506108d9565b505050565b6000806002600084815260200190815260200160002060009054906101000a900473ffffffffffffffffffffffffffffffffffffffff169050600073ffffffffffffffffffffffffffffffffffffffff168173ffffffffffffffffffffffffffffffffffffffff161415610770576040517f08c379a00000000000000000000000000000000000000000000000000000000081526004016107679061223a565b60405180910390fd5b80915050919050565b60008073ffffffffffffffffffffffffffffffffffffffff168273ffffffffffffffffffffffffffffffffffffffff1614156107ea576040517f08c379a00000000000000000000000000000000000000000000000000000000081526004016107e1906122cc565b60405180910390fd5b600360008373ffffffffffffffffffffffffffffffffffffffff1673ffffffffffffffffffffffffffffffffffffffff168152602001908152602001600020549050919050565b60606001805461084090611f4e565b80601f016020809104026020016040519081016040528092919081815260200182805461086c90611f4e565b80156108b95780601f1061088e576101008083540402835291602001916108b9565b820191906000526020600020905b81548152906001019060200180831161089c57829003601f168201915b5050505050905090565b6108d56108ce610bf7565b8383611234565b5050565b6108ea6108e4610bf7565b83610d2c565b610929576040517f08c379a0000000000000000000000000000000000000000000000000000000008152600401610920906121a8565b60405180910390fd5b610935848484846113a1565b50505050565b606061094682610b8b565b610985576040517f08c379a000000000000000000000000000000000000000000000000000000000815260040161097c9061235e565b60405180910390fd5b60006006600084815260200190815260200160002080546109a590611f4e565b80601f01602080910402602001604051908101604052809291908181526020018280546109d190611f4e565b8015610a1e5780601f106109f357610100808354040283529160200191610a1e565b820191906000526020600020905b815481529060010190602001808311610a0157829003601f168201915b505050505090506000610a2f6113fd565b9050600081511415610a45578192505050610a88565b600082511115610a7a578082604051602001610a629291906123ba565b60405160208183030381529060405292505050610a88565b610a8384611414565b925050505b919050565b6000600560008473ffffffffffffffffffffffffffffffffffffffff1673ffffffffffffffffffffffffffffffffffffffff16815260200190815260200160002060008373ffffffffffffffffffffffffffffffffffffffff1673ffffffffffffffffffffffffffffffffffffffff16815260200190815260200160002060009054906101000a900460ff16905092915050565b60007f01ffc9a7000000000000000000000000000000000000000000000000000000007bffffffffffffffffffffffffffffffffffffffffffffffffffffffff1916827bffffffffffffffffffffffffffffffffffffffffffffffffffffffff1916149050919050565b60008073ffffffffffffffffffffffffffffffffffffffff166002600084815260200190815260200160002060009054906101000a900473ffffffffffffffffffffffffffffffffffffffff1673ffffffffffffffffffffffffffffffffffffffff1614159050919050565b600033905090565b816004600083815260200190815260200160002060006101000a81548173ffffffffffffffffffffffffffffffffffffffff021916908373ffffffffffffffffffffffffffffffffffffffff160217905550808273ffffffffffffffffffffffffffffffffffffffff16610c72836106c7565b73ffffffffffffffffffffffffffffffffffffffff167f8c5be1e5ebec7d5bd14f71427d1e84f3dd0314c0f7b2291e5b200ac8c7c3b92560405160405180910390a45050565b610cc182610b8b565b610d00576040517f08c379a0000000000000000000000000000000000000000000000000000000008152600401610cf790612450565b60405180910390fd5b80600660008481526020019081526020016000209080519060200190610d279291906117bc565b505050565b6000610d3782610b8b565b610d76576040517f08c379a0000000000000000000000000000000000000000000000000000000008152600401610d6d906124e2565b60405180910390fd5b6000610d81836106c7565b90508073ffffffffffffffffffffffffffffffffffffffff168473ffffffffffffffffffffffffffffffffffffffff161480610df057508373ffffffffffffffffffffffffffffffffffffffff16610dd88461048e565b73ffffffffffffffffffffffffffffffffffffffff16145b80610e015750610e008185610a8d565b5b91505092915050565b8273ffffffffffffffffffffffffffffffffffffffff16610e2a826106c7565b73ffffffffffffffffffffffffffffffffffffffff1614610e80576040517f08c379a0000000000000000000000000000000000000000000000000000000008152600401610e7790612574565b60405180910390fd5b600073ffffffffffffffffffffffffffffffffffffffff168273ffffffffffffffffffffffffffffffffffffffff161415610ef0576040517f08c379a0000000000000000000000000000000000000000000000000000000008152600401610ee790612606565b60405180910390fd5b610efb8383836114bb565b610f06600082610bff565b6001600360008573ffffffffffffffffffffffffffffffffffffffff1673ffffffffffffffffffffffffffffffffffffffff1681526020019081526020016000206000828254610f569190612655565b925050819055506001600360008473ffffffffffffffffffffffffffffffffffffffff1673ffffffffffffffffffffffffffffffffffffffff1681526020019081526020016000206000828254610fad9190612689565b92505081905550816002600083815260200190815260200160002060006101000a81548173ffffffffffffffffffffffffffffffffffffffff021916908373ffffffffffffffffffffffffffffffffffffffff160217905550808273ffffffffffffffffffffffffffffffffffffffff168473ffffffffffffffffffffffffffffffffffffffff167fddf252ad1be2c89b69c2b068fc378daa952ba7f163c4a11628f55a4df523b3ef60405160405180910390a4505050565b600073ffffffffffffffffffffffffffffffffffffffff168273ffffffffffffffffffffffffffffffffffffffff1614156110d6576040517f08c379a00000000000000000000000000000000000000000000000000000000081526004016110cd9061272b565b60405180910390fd5b6110df81610b8b565b1561111f576040517f08c379a000000000000000000000000000000000000000000000000000000000815260040161111690612797565b60405180910390fd5b61112b600083836114bb565b6001600360008473ffffffffffffffffffffffffffffffffffffffff1673ffffffffffffffffffffffffffffffffffffffff168152602001908152602001600020600082825461117b9190612689565b92505081905550816002600083815260200190815260200160002060006101000a81548173ffffffffffffffffffffffffffffffffffffffff021916908373ffffffffffffffffffffffffffffffffffffffff160217905550808273ffffffffffffffffffffffffffffffffffffffff16600073ffffffffffffffffffffffffffffffffffffffff167fddf252ad1be2c89b69c2b068fc378daa952ba7f163c4a11628f55a4df523b3ef60405160405180910390a45050565b8173ffffffffffffffffffffffffffffffffffffffff168373ffffffffffffffffffffffffffffffffffffffff1614156112a3576040517f08c379a000000000000000000000000000000000000000000000000000000000815260040161129a90612803565b60405180910390fd5b80600560008573ffffffffffffffffffffffffffffffffffffffff1673ffffffffffffffffffffffffffffffffffffffff16815260200190815260200160002060008473ffffffffffffffffffffffffffffffffffffffff1673ffffffffffffffffffffffffffffffffffffffff16815260200190815260200160002060006101000a81548160ff0219169083151502179055508173ffffffffffffffffffffffffffffffffffffffff168373ffffffffffffffffffffffffffffffffffffffff167f17307eab39ab6107e8899845ad3d59bd9653f200f220920489ca2b5937696c31836040516113949190611913565b60405180910390a3505050565b6113ac848484610e0a565b6113b8848484846114c0565b6113f7576040517f08c379a00000000000000000000000000000000000000000000000000000000081526004016113ee90612895565b60405180910390fd5b50505050565b606060405180602001604052806000815250905090565b606061141f82610b8b565b61145e576040517f08c379a000000000000000000000000000000000000000000000000000000000815260040161145590612927565b60405180910390fd5b60006114686113fd565b9050600081511161148857604051806020016040528060008152506114b3565b8061149284611648565b6040516020016114a39291906123ba565b6040516020818303038152906040525b915050919050565b505050565b60006114e18473ffffffffffffffffffffffffffffffffffffffff166117a9565b1561163b578373ffffffffffffffffffffffffffffffffffffffff1663150b7a0261150a610bf7565b8786866040518563ffffffff1660e01b815260040161152c949392919061299c565b6020604051808303816000875af192505050801561156857506040513d601f19601f8201168201806040525081019061156591906129fd565b60015b6115eb573d8060008114611598576040519150601f19603f3d011682016040523d82523d6000602084013e61159d565b606091505b506000815114156115e3576040517f08c379a00000000000000000000000000000000000000000000000000000000081526004016115da90612895565b60405180910390fd5b805181602001fd5b63150b7a0260e01b7bffffffffffffffffffffffffffffffffffffffffffffffffffffffff1916817bffffffffffffffffffffffffffffffffffffffffffffffffffffffff191614915050611640565b600190505b949350505050565b60606000821415611690576040518060400160405280600181526020017f300000000000000000000000000000000000000000000000000000000000000081525090506117a4565b600082905060005b600082146116c25780806116ab90612a2a565b915050600a826116bb9190612aa2565b9150611698565b60008167ffffffffffffffff8111156116de576116dd611b1e565b5b6040519080825280601f01601f1916602001820160405280156117105781602001600182028036833780820191505090505b5090505b6000851461179d576001826117299190612655565b9150600a856117389190612ad3565b60306117449190612689565b60f81b81838151811061175a57611759612b04565b5b60200101907effffffffffffffffffffffffffffffffffffffffffffffffffffffffffffff1916908160001a905350600a856117969190612aa2565b9450611714565b8093505050505b919050565b600080823b905060008111915050919050565b8280546117c890611f4e565b90600052602060002090601f0160209004810192826117ea5760008555611831565b82601f1061180357805160ff1916838001178555611831565b82800160010185558215611831579182015b82811115611830578251825591602001919060010190611815565b5b50905061183e9190611842565b5090565b5b8082111561185b576000816000905550600101611843565b5090565b6000604051905090565b600080fd5b600080fd5b60007fffffffff0000000000000000000000000000000000000000000000000000000082169050919050565b6118a881611873565b81146118b357600080fd5b50565b6000813590506118c58161189f565b92915050565b6000602082840312156118e1576118e0611869565b5b60006118ef848285016118b6565b91505092915050565b60008115159050919050565b61190d816118f8565b82525050565b60006020820190506119286000830184611904565b92915050565b600081519050919050565b600082825260208201905092915050565b60005b8381101561196857808201518184015260208101905061194d565b83811115611977576000848401525b50505050565b6000601f19601f8301169050919050565b60006119998261192e565b6119a38185611939565b93506119b381856020860161194a565b6119bc8161197d565b840191505092915050565b600060208201905081810360008301526119e1818461198e565b905092915050565b6000819050919050565b6119fc816119e9565b8114611a0757600080fd5b50565b600081359050611a19816119f3565b92915050565b600060208284031215611a3557611a34611869565b5b6000611a4384828501611a0a565b91505092915050565b600073ffffffffffffffffffffffffffffffffffffffff82169050919050565b6000611a7782611a4c565b9050919050565b611a8781611a6c565b82525050565b6000602082019050611aa26000830184611a7e565b92915050565b611ab181611a6c565b8114611abc57600080fd5b50565b600081359050611ace81611aa8565b92915050565b60008060408385031215611aeb57611aea611869565b5b6000611af985828601611abf565b9250506020611b0a85828601611a0a565b9150509250929050565b600080fd5b600080fd5b7f4e487b7100000000000000000000000000000000000000000000000000000000600052604160045260246000fd5b611b568261197d565b810181811067ffffffffffffffff82111715611b7557611b74611b1e565b5b80604052505050565b6000611b8861185f565b9050611b948282611b4d565b919050565b600067ffffffffffffffff821115611bb457611bb3611b1e565b5b611bbd8261197d565b9050602081019050919050565b82818337600083830152505050565b6000611bec611be784611b99565b611b7e565b905082815260208101848484011115611c0857611c07611b19565b5b611c13848285611bca565b509392505050565b600082601f830112611c3057611c2f611b14565b5b8135611c40848260208601611bd9565b91505092915050565b60008060408385031215611c6057611c5f611869565b5b6000611c6e85828601611a0a565b925050602083013567ffffffffffffffff811115611c8f57611c8e61186e565b5b611c9b85828601611c1b565b9150509250929050565b600080600060608486031215611cbe57611cbd611869565b5b6000611ccc86828701611abf565b9350506020611cdd86828701611abf565b9250506040611cee86828701611a0a565b9150509250925092565b600060208284031215611d0e57611d0d611869565b5b6000611d1c84828501611abf565b91505092915050565b611d2e816119e9565b82525050565b6000602082019050611d496000830184611d25565b92915050565b611d58816118f8565b8114611d6357600080fd5b50565b600081359050611d7581611d4f565b92915050565b60008060408385031215611d9257611d91611869565b5b6000611da085828601611abf565b9250506020611db185828601611d66565b9150509250929050565b600067ffffffffffffffff821115611dd657611dd5611b1e565b5b611ddf8261197d565b9050602081019050919050565b6000611dff611dfa84611dbb565b611b7e565b905082815260208101848484011115611e1b57611e1a611b19565b5b611e26848285611bca565b509392505050565b600082601f830112611e4357611e42611b14565b5b8135611e53848260208601611dec565b91505092915050565b60008060008060808587031215611e7657611e75611869565b5b6000611e8487828801611abf565b9450506020611e9587828801611abf565b9350506040611ea687828801611a0a565b925050606085013567ffffffffffffffff811115611ec757611ec661186e565b5b611ed387828801611e2e565b91505092959194509250565b60008060408385031215611ef657611ef5611869565b5b6000611f0485828601611abf565b9250506020611f1585828601611abf565b9150509250929050565b7f4e487b7100000000000000000000000000000000000000000000000000000000600052602260045260246000fd5b60006002820490506001821680611f6657607f821691505b60208210811415611f7a57611f79611f1f565b5b50919050565b7f4552433732313a20617070726f76656420717565727920666f72206e6f6e657860008201527f697374656e7420746f6b656e0000000000000000000000000000000000000000602082015250565b6000611fdc602c83611939565b9150611fe782611f80565b604082019050919050565b6000602082019050818103600083015261200b81611fcf565b9050919050565b7f4552433732313a20617070726f76616c20746f2063757272656e74206f776e6560008201527f7200000000000000000000000000000000000000000000000000000000000000602082015250565b600061206e602183611939565b915061207982612012565b604082019050919050565b6000602082019050818103600083015261209d81612061565b9050919050565b7f4552433732313a20617070726f76652063616c6c6572206973206e6f74206f7760008201527f6e6572206e6f7220617070726f76656420666f7220616c6c0000000000000000602082015250565b6000612100603883611939565b915061210b826120a4565b604082019050919050565b6000602082019050818103600083015261212f816120f3565b9050919050565b7f4552433732313a207472616e736665722063616c6c6572206973206e6f74206f60008201527f776e6572206e6f7220617070726f766564000000000000000000000000000000602082015250565b6000612192603183611939565b915061219d82612136565b604082019050919050565b600060208201905081810360008301526121c181612185565b9050919050565b7f4552433732313a206f776e657220717565727920666f72206e6f6e657869737460008201527f656e7420746f6b656e0000000000000000000000000000000000000000000000602082015250565b6000612224602983611939565b915061222f826121c8565b604082019050919050565b6000602082019050818103600083015261225381612217565b9050919050565b7f4552433732313a2062616c616e636520717565727920666f7220746865207a6560008201527f726f206164647265737300000000000000000000000000000000000000000000602082015250565b60006122b6602a83611939565b91506122c18261225a565b604082019050919050565b600060208201905081810360008301526122e5816122a9565b9050919050565b7f45524337323155524953746f726167653a2055524920717565727920666f722060008201527f6e6f6e6578697374656e7420746f6b656e000000000000000000000000000000602082015250565b6000612348603183611939565b9150612353826122ec565b604082019050919050565b600060208201905081810360008301526123778161233b565b9050919050565b600081905092915050565b60006123948261192e565b61239e818561237e565b93506123ae81856020860161194a565b80840191505092915050565b60006123c68285612389565b91506123d28284612389565b91508190509392505050565b7f45524337323155524953746f726167653a2055524920736574206f66206e6f6e60008201527f6578697374656e7420746f6b656e000000000000000000000000000000000000602082015250565b600061243a602e83611939565b9150612445826123de565b604082019050919050565b600060208201905081810360008301526124698161242d565b9050919050565b7f4552433732313a206f70657261746f7220717565727920666f72206e6f6e657860008201527f697374656e7420746f6b656e0000000000000000000000000000000000000000602082015250565b60006124cc602c83611939565b91506124d782612470565b604082019050919050565b600060208201905081810360008301526124fb816124bf565b9050919050565b7f4552433732313a207472616e73666572206f6620746f6b656e2074686174206960008201527f73206e6f74206f776e0000000000000000000000000000000000000000000000602082015250565b600061255e602983611939565b915061256982612502565b604082019050919050565b6000602082019050818103600083015261258d81612551565b9050919050565b7f4552433732313a207472616e7366657220746f20746865207a65726f2061646460008201527f7265737300000000000000000000000000000000000000000000000000000000602082015250565b60006125f0602483611939565b91506125fb82612594565b604082019050919050565b6000602082019050818103600083015261261f816125e3565b9050919050565b7f4e487b7100000000000000000000000000000000000000000000000000000000600052601160045260246000fd5b6000612660826119e9565b915061266b836119e9565b92508282101561267e5761267d612626565b5b828203905092915050565b6000612694826119e9565b915061269f836119e9565b9250827fffffffffffffffffffffffffffffffffffffffffffffffffffffffffffffffff038211156126d4576126d3612626565b5b828201905092915050565b7f4552433732313a206d696e7420746f20746865207a65726f2061646472657373600082015250565b6000612715602083611939565b9150612720826126df565b602082019050919050565b6000602082019050818103600083015261274481612708565b9050919050565b7f4552433732313a20746f6b656e20616c7265616479206d696e74656400000000600082015250565b6000612781601c83611939565b915061278c8261274b565b602082019050919050565b600060208201905081810360008301526127b081612774565b9050919050565b7f4552433732313a20617070726f766520746f2063616c6c657200000000000000600082015250565b60006127ed601983611939565b91506127f8826127b7565b602082019050919050565b6000602082019050818103600083015261281c816127e0565b9050919050565b7f4552433732313a207472616e7366657220746f206e6f6e20455243373231526560008201527f63656976657220696d706c656d656e7465720000000000000000000000000000602082015250565b600061287f603283611939565b915061288a82612823565b604082019050919050565b600060208201905081810360008301526128ae81612872565b9050919050565b7f4552433732314d657461646174613a2055524920717565727920666f72206e6f60008201527f6e6578697374656e7420746f6b656e0000000000000000000000000000000000602082015250565b6000612911602f83611939565b915061291c826128b5565b604082019050919050565b6000602082019050818103600083015261294081612904565b9050919050565b600081519050919050565b600082825260208201905092915050565b600061296e82612947565b6129788185612952565b935061298881856020860161194a565b6129918161197d565b840191505092915050565b60006080820190506129b16000830187611a7e565b6129be6020830186611a7e565b6129cb6040830185611d25565b81810360608301526129dd8184612963565b905095945050505050565b6000815190506129f78161189f565b92915050565b600060208284031215612a1357612a12611869565b5b6000612a21848285016129e8565b91505092915050565b6000612a35826119e9565b91507fffffffffffffffffffffffffffffffffffffffffffffffffffffffffffffffff821415612a6857612a67612626565b5b600182019050919050565b7f4e487b7100000000000000000000000000000000000000000000000000000000600052601260045260246000fd5b6000612aad826119e9565b9150612ab8836119e9565b925082612ac857612ac7612a73565b5b828204905092915050565b6000612ade826119e9565b9150612ae9836119e9565b925082612af957612af8612a73565b5b828206905092915050565b7f4e487b7100000000000000000000000000000000000000000000000000000000600052603260045260246000fdfea2646970667358221220bd63a8633a1e9f4b8efea2d136ea84728ca44f2caba3944a2b3dec5ed46eae7664736f6c634300080a0033",
  "immutableReferences": {},
  "source": "// SPDX-License-Identifier: MIT\n\npragma solidity ^0.8.0;\n\nimport \"@openzeppelin/contracts/token/ERC721/extensions/ERC721URIStorage.sol\";\n\ncontract ERC721Mock is ERC721URIStorage {\n  constructor() ERC721(\"NFT Coint\", \"NFT\") {}\n\n  function mint(address to, uint256 tokenId) public {\n    _mint(to, tokenId);\n  }\n\n  function setTokenURI(uint256 tokenId, string memory tokenURI) public {\n    _setTokenURI(tokenId, tokenURI);\n  }\n}",
  "sourcePath": "/home/janus/work/react.js-solidity_nft-fractions-dex/contracts/ERC721Mock.sol",
  "compiler": {
    "name": "solc",
    "version": "0.8.10+commit.fc410830.Emscripten.clang"
  },
  "schemaVersion": "3.4.3",
  "updatedAt": "2021-12-20T05:12:28.221Z",
  "devdoc": {
    "kind": "dev",
    "methods": {
      "approve(address,uint256)": {
        "details": "See {IERC721-approve}."
      },
      "balanceOf(address)": {
        "details": "See {IERC721-balanceOf}."
      },
      "getApproved(uint256)": {
        "details": "See {IERC721-getApproved}."
      },
      "isApprovedForAll(address,address)": {
        "details": "See {IERC721-isApprovedForAll}."
      },
      "name()": {
        "details": "See {IERC721Metadata-name}."
      },
      "ownerOf(uint256)": {
        "details": "See {IERC721-ownerOf}."
      },
      "safeTransferFrom(address,address,uint256)": {
        "details": "See {IERC721-safeTransferFrom}."
      },
      "safeTransferFrom(address,address,uint256,bytes)": {
        "details": "See {IERC721-safeTransferFrom}."
      },
      "setApprovalForAll(address,bool)": {
        "details": "See {IERC721-setApprovalForAll}."
      },
      "supportsInterface(bytes4)": {
        "details": "See {IERC165-supportsInterface}."
      },
      "symbol()": {
        "details": "See {IERC721Metadata-symbol}."
      },
      "tokenURI(uint256)": {
        "details": "See {IERC721Metadata-tokenURI}."
      },
      "transferFrom(address,address,uint256)": {
        "details": "See {IERC721-transferFrom}."
      }
    },
    "version": 1
  },
  "userdoc": {
    "kind": "user",
    "methods": {},
    "version": 1
  }
}