{
  "contractName": "MaticDex",
  "abi": [
    {
      "anonymous": false,
      "inputs": [
        {
          "indexed": false,
          "internalType": "address",
          "name": "account",
          "type": "address"
        },
        {
          "indexed": false,
          "internalType": "uint256",
          "name": "balance",
          "type": "uint256"
        }
      ],
      "name": "EthBalanceChange",
      "type": "event"
    },
    {
      "anonymous": false,
      "inputs": [
        {
          "indexed": false,
          "internalType": "address",
          "name": "account",
          "type": "address"
        },
        {
          "indexed": false,
          "internalType": "uint256",
          "name": "balance",
          "type": "uint256"
        }
      ],
      "name": "EthReservedBalanceChange",
      "type": "event"
    },
    {
      "anonymous": false,
      "inputs": [
        {
          "indexed": false,
          "internalType": "uint256",
          "name": "tradeId",
          "type": "uint256"
        },
        {
          "indexed": false,
          "internalType": "uint256",
          "name": "orderId",
          "type": "uint256"
        },
        {
          "indexed": false,
          "internalType": "uint256",
          "name": "tokenId",
          "type": "uint256"
        },
        {
          "indexed": false,
          "internalType": "address",
          "name": "trader1",
          "type": "address"
        },
        {
          "indexed": false,
          "internalType": "address",
          "name": "trader2",
          "type": "address"
        },
        {
          "indexed": false,
          "internalType": "uint256",
          "name": "amount",
          "type": "uint256"
        },
        {
          "indexed": false,
          "internalType": "uint256",
          "name": "price",
          "type": "uint256"
        },
        {
          "indexed": false,
          "internalType": "uint256",
          "name": "date",
          "type": "uint256"
        }
      ],
      "name": "NewTrade",
      "type": "event"
    },
    {
      "anonymous": false,
      "inputs": [
        {
          "indexed": false,
          "internalType": "uint256",
          "name": "orderId",
          "type": "uint256"
        }
      ],
      "name": "OrderRemoval",
      "type": "event"
    },
    {
      "anonymous": false,
      "inputs": [
        {
          "indexed": false,
          "internalType": "uint256",
          "name": "orderId",
          "type": "uint256"
        },
        {
          "indexed": false,
          "internalType": "address",
          "name": "trader",
          "type": "address"
        },
        {
          "indexed": false,
          "internalType": "enum DexBase.Side",
          "name": "side",
          "type": "uint8"
        },
        {
          "indexed": false,
          "internalType": "uint256",
          "name": "tokenId",
          "type": "uint256"
        },
        {
          "indexed": false,
          "internalType": "uint256",
          "name": "amount",
          "type": "uint256"
        },
        {
          "indexed": false,
          "internalType": "uint256",
          "name": "filled",
          "type": "uint256"
        },
        {
          "indexed": false,
          "internalType": "uint256",
          "name": "price",
          "type": "uint256"
        },
        {
          "indexed": false,
          "internalType": "uint256",
          "name": "timestamp",
          "type": "uint256"
        }
      ],
      "name": "OrderUpsert",
      "type": "event"
    },
    {
      "anonymous": false,
      "inputs": [
        {
          "indexed": true,
          "internalType": "address",
          "name": "previousOwner",
          "type": "address"
        },
        {
          "indexed": true,
          "internalType": "address",
          "name": "newOwner",
          "type": "address"
        }
      ],
      "name": "OwnershipTransferred",
      "type": "event"
    },
    {
      "anonymous": false,
      "inputs": [
        {
          "indexed": false,
          "internalType": "address",
          "name": "account",
          "type": "address"
        }
      ],
      "name": "Paused",
      "type": "event"
    },
    {
      "anonymous": false,
      "inputs": [
        {
          "indexed": false,
          "internalType": "address",
          "name": "account",
          "type": "address"
        },
        {
          "indexed": false,
          "internalType": "uint256",
          "name": "tokenId",
          "type": "uint256"
        },
        {
          "indexed": false,
          "internalType": "uint256",
          "name": "sharesReservedBalance",
          "type": "uint256"
        }
      ],
      "name": "SharesReservedBalanceChange",
      "type": "event"
    },
    {
      "anonymous": false,
      "inputs": [
        {
          "indexed": false,
          "internalType": "address",
          "name": "account",
          "type": "address"
        }
      ],
      "name": "Unpaused",
      "type": "event"
    },
    {
      "inputs": [],
      "name": "__DexBase_init",
      "outputs": [],
      "stateMutability": "nonpayable",
      "type": "function"
    },
    {
      "inputs": [
        {
          "internalType": "uint256",
          "name": "tokenId",
          "type": "uint256"
        },
        {
          "internalType": "uint256",
          "name": "amount",
          "type": "uint256"
        },
        {
          "internalType": "uint256",
          "name": "price",
          "type": "uint256"
        },
        {
          "internalType": "enum DexBase.Side",
          "name": "side",
          "type": "uint8"
        }
      ],
      "name": "createLimitOrder",
      "outputs": [],
      "stateMutability": "nonpayable",
      "type": "function"
    },
    {
      "inputs": [
        {
          "internalType": "uint256",
          "name": "tokenId",
          "type": "uint256"
        },
        {
          "internalType": "uint256",
          "name": "amount",
          "type": "uint256"
        },
        {
          "internalType": "enum DexBase.Side",
          "name": "side",
          "type": "uint8"
        }
      ],
      "name": "createMarketOrder",
      "outputs": [],
      "stateMutability": "nonpayable",
      "type": "function"
    },
    {
      "inputs": [
        {
          "internalType": "uint256",
          "name": "tokenId",
          "type": "uint256"
        },
        {
          "internalType": "enum DexBase.Side",
          "name": "side",
          "type": "uint8"
        },
        {
          "internalType": "uint256",
          "name": "orderId",
          "type": "uint256"
        }
      ],
      "name": "deleteOrder",
      "outputs": [],
      "stateMutability": "nonpayable",
      "type": "function"
    },
    {
      "inputs": [],
      "name": "depositEth",
      "outputs": [],
      "stateMutability": "payable",
      "type": "function"
    },
    {
      "inputs": [],
      "name": "owner",
      "outputs": [
        {
          "internalType": "address",
          "name": "",
          "type": "address"
        }
      ],
      "stateMutability": "view",
      "type": "function"
    },
    {
      "inputs": [],
      "name": "pause",
      "outputs": [],
      "stateMutability": "nonpayable",
      "type": "function"
    },
    {
      "inputs": [],
      "name": "paused",
      "outputs": [
        {
          "internalType": "bool",
          "name": "",
          "type": "bool"
        }
      ],
      "stateMutability": "view",
      "type": "function"
    },
    {
      "inputs": [],
      "name": "renounceOwnership",
      "outputs": [],
      "stateMutability": "nonpayable",
      "type": "function"
    },
    {
      "inputs": [
        {
          "internalType": "address",
          "name": "nftFractionsRepositoryAddress",
          "type": "address"
        }
      ],
      "name": "setNftFractionsRepository",
      "outputs": [],
      "stateMutability": "nonpayable",
      "type": "function"
    },
    {
      "inputs": [
        {
          "internalType": "address",
          "name": "newOwner",
          "type": "address"
        }
      ],
      "name": "transferOwnership",
      "outputs": [],
      "stateMutability": "nonpayable",
      "type": "function"
    },
    {
      "inputs": [
        {
          "internalType": "uint256",
          "name": "amount",
          "type": "uint256"
        }
      ],
      "name": "withdrawEth",
      "outputs": [],
      "stateMutability": "nonpayable",
      "type": "function"
    },
    {
      "inputs": [],
      "name": "initialize",
      "outputs": [],
      "stateMutability": "nonpayable",
      "type": "function"
    }
  ],
  "bytecode": "0x608060405234801561001057600080fd5b506140ef806100206000396000f3fe6080604052600436106100c25760003560e01c80638456cb591161007f578063b85b9e4011610059578063b85b9e40146101e7578063c311d049146101fe578063f2fde38b14610227578063fbe2767414610250576100c2565b80638456cb591461017c5780638da5cb5b146101935780639c793bac146101be576100c2565b80630bbf2085146100c7578063439370b1146100f057806354c0cde4146100fa5780635c975abb14610123578063715018a61461014e5780638129fc1c14610165575b600080fd5b3480156100d357600080fd5b506100ee60048036038101906100e9919061332f565b610279565b005b6100f8610e3e565b005b34801561010657600080fd5b50610121600480360381019061011c9190613396565b610f27565b005b34801561012f57600080fd5b506101386121d3565b6040516101459190613404565b60405180910390f35b34801561015a57600080fd5b506101636121ea565b005b34801561017157600080fd5b5061017a612272565b005b34801561018857600080fd5b5061019161235e565b005b34801561019f57600080fd5b506101a86123e4565b6040516101b59190613460565b60405180910390f35b3480156101ca57600080fd5b506101e560048036038101906101e0919061347b565b61240e565b005b3480156101f357600080fd5b506101fc61295f565b005b34801561020a57600080fd5b50610225600480360381019061022091906134ce565b612a5b565b005b34801561023357600080fd5b5061024e60048036038101906102499190613527565b612cae565b005b34801561025c57600080fd5b5061027760048036038101906102729190613527565b612da6565b005b83600060cf60009054906101000a900473ffffffffffffffffffffffffffffffffffffffff1673ffffffffffffffffffffffffffffffffffffffff166366d0330c836040518263ffffffff1660e01b81526004016102d79190613563565b6020604051808303816000875af11580156102f6573d6000803e3d6000fd5b505050506040513d601f19601f8201168201806040525081019061031a9190613593565b9050600073ffffffffffffffffffffffffffffffffffffffff168173ffffffffffffffffffffffffffffffffffffffff16141561038c576040517f08c379a00000000000000000000000000000000000000000000000000000000081526004016103839061361d565b60405180910390fd5b6103946121d3565b156103d4576040517f08c379a00000000000000000000000000000000000000000000000000000000081526004016103cb90613689565b60405180910390fd5b6001808111156103e7576103e66136a9565b5b8360018111156103fa576103f96136a9565b5b14156105ac57600060cf60009054906101000a900473ffffffffffffffffffffffffffffffffffffffff1673ffffffffffffffffffffffffffffffffffffffff1662fdd58e33896040518363ffffffff1660e01b815260040161045e9291906136d8565b602060405180830381865afa15801561047b573d6000803e3d6000fd5b505050506040513d601f19601f8201168201806040525081019061049f9190613716565b9050858110156104e4576040517f08c379a00000000000000000000000000000000000000000000000000000000081526004016104db906137b5565b60405180910390fd5b8560ce60003373ffffffffffffffffffffffffffffffffffffffff1673ffffffffffffffffffffffffffffffffffffffff168152602001908152602001600020600089815260200190815260200160002060008282546105449190613804565b925050819055506105a6338860ce60003373ffffffffffffffffffffffffffffffffffffffff1673ffffffffffffffffffffffffffffffffffffffff16815260200190815260200160002060008b815260200190815260200160002054612e66565b50610814565b600060cf60009054906101000a900473ffffffffffffffffffffffffffffffffffffffff1673ffffffffffffffffffffffffffffffffffffffff166333d59207886040518263ffffffff1660e01b81526004016106099190613563565b6020604051808303816000875af1158015610628573d6000803e3d6000fd5b505050506040513d601f19601f8201168201806040525081019061064c9190613716565b905085811015610691576040517f08c379a0000000000000000000000000000000000000000000000000000000008152600401610688906138cc565b60405180910390fd5b848661069d91906138ec565b60cc60003373ffffffffffffffffffffffffffffffffffffffff1673ffffffffffffffffffffffffffffffffffffffff1681526020019081526020016000205460cb60003373ffffffffffffffffffffffffffffffffffffffff1673ffffffffffffffffffffffffffffffffffffffff168152602001908152602001600020546107279190613946565b1015610768576040517f08c379a000000000000000000000000000000000000000000000000000000000815260040161075f906139c6565b60405180910390fd5b848661077491906138ec565b60cc60003373ffffffffffffffffffffffffffffffffffffffff1673ffffffffffffffffffffffffffffffffffffffff16815260200190815260200160002060008282546107c29190613804565b925050819055506108123360cc60003373ffffffffffffffffffffffffffffffffffffffff1673ffffffffffffffffffffffffffffffffffffffff16815260200190815260200160002054612ea6565b505b600060cd6000888152602001908152602001600020600085600181111561083e5761083d6136a9565b5b8152602001908152602001600020905061085860c9612ee3565b600061086460c9612ef9565b9050816040518061010001604052808381526020013373ffffffffffffffffffffffffffffffffffffffff1681526020018760018111156108a8576108a76136a9565b5b81526020018a8152602001898152602001600081526020018881526020014281525090806001815401808255809150506001900390600052602060002090600702016000909190919091506000820151816000015560208201518160010160006101000a81548173ffffffffffffffffffffffffffffffffffffffff021916908373ffffffffffffffffffffffffffffffffffffffff16021790555060408201518160010160146101000a81548160ff0219169083600181111561096f5761096e6136a9565b5b0217905550606082015181600201556080820151816003015560a0820151816004015560c0820151816005015560e0820151816006015550506109b98133878b8b60008c42612f07565b6000808380549050116109cd5760006109df565b600183805490506109de9190613946565b5b90505b6000811115610e3357600060018111156109ff576109fe6136a9565b5b866001811115610a1257610a116136a9565b5b148015610a725750828181548110610a2d57610a2c6139e6565b5b90600052602060002090600702016005015483600183610a4d9190613946565b81548110610a5e57610a5d6139e6565b5b906000526020600020906007020160050154115b15610a7c57610e33565b600180811115610a8f57610a8e6136a9565b5b866001811115610aa257610aa16136a9565b5b148015610b025750828181548110610abd57610abc6139e6565b5b90600052602060002090600702016005015483600183610add9190613946565b81548110610aee57610aed6139e6565b5b906000526020600020906007020160050154105b15610b0c57610e33565b600083600183610b1c9190613946565b81548110610b2d57610b2c6139e6565b5b906000526020600020906007020160405180610100016040529081600082015481526020016001820160009054906101000a900473ffffffffffffffffffffffffffffffffffffffff1673ffffffffffffffffffffffffffffffffffffffff1673ffffffffffffffffffffffffffffffffffffffff1681526020016001820160149054906101000a900460ff166001811115610bcc57610bcb6136a9565b5b6001811115610bde57610bdd6136a9565b5b8152602001600282015481526020016003820154815260200160048201548152602001600582015481526020016006820154815250509050838281548110610c2957610c286139e6565b5b906000526020600020906007020184600184610c459190613946565b81548110610c5657610c556139e6565b5b9060005260206000209060070201600082015481600001556001820160009054906101000a900473ffffffffffffffffffffffffffffffffffffffff168160010160006101000a81548173ffffffffffffffffffffffffffffffffffffffff021916908373ffffffffffffffffffffffffffffffffffffffff1602179055506001820160149054906101000a900460ff168160010160146101000a81548160ff02191690836001811115610d0d57610d0c6136a9565b5b0217905550600282015481600201556003820154816003015560048201548160040155600582015481600501556006820154816006015590505080848381548110610d5b57610d5a6139e6565b5b90600052602060002090600702016000820151816000015560208201518160010160006101000a81548173ffffffffffffffffffffffffffffffffffffffff021916908373ffffffffffffffffffffffffffffffffffffffff16021790555060408201518160010160146101000a81548160ff02191690836001811115610de557610de46136a9565b5b0217905550606082015181600201556080820151816003015560a0820151816004015560c0820151816005015560e082015181600601559050508180610e2a90613a15565b925050506109e2565b505050505050505050565b610e466121d3565b15610e86576040517f08c379a0000000000000000000000000000000000000000000000000000000008152600401610e7d90613689565b60405180910390fd5b3460cb60003373ffffffffffffffffffffffffffffffffffffffff1673ffffffffffffffffffffffffffffffffffffffff1681526020019081526020016000206000828254610ed59190613804565b92505081905550610f253360cb60003373ffffffffffffffffffffffffffffffffffffffff1673ffffffffffffffffffffffffffffffffffffffff16815260200190815260200160002054612f56565b565b60026097541415610f6d576040517f08c379a0000000000000000000000000000000000000000000000000000000008152600401610f6490613a8b565b60405180910390fd5b600260978190555082600060cf60009054906101000a900473ffffffffffffffffffffffffffffffffffffffff1673ffffffffffffffffffffffffffffffffffffffff166366d0330c836040518263ffffffff1660e01b8152600401610fd39190613563565b6020604051808303816000875af1158015610ff2573d6000803e3d6000fd5b505050506040513d601f19601f820116820180604052508101906110169190613593565b9050600073ffffffffffffffffffffffffffffffffffffffff168173ffffffffffffffffffffffffffffffffffffffff161415611088576040517f08c379a000000000000000000000000000000000000000000000000000000000815260040161107f9061361d565b60405180910390fd5b6110906121d3565b156110d0576040517f08c379a00000000000000000000000000000000000000000000000000000000081526004016110c790613689565b60405180910390fd5b6001808111156110e3576110e26136a9565b5b8360018111156110f6576110f56136a9565b5b14156111e257600060cf60009054906101000a900473ffffffffffffffffffffffffffffffffffffffff1673ffffffffffffffffffffffffffffffffffffffff1662fdd58e33886040518363ffffffff1660e01b815260040161115a9291906136d8565b602060405180830381865afa158015611177573d6000803e3d6000fd5b505050506040513d601f19601f8201168201806040525081019061119b9190613716565b9050848110156111e0576040517f08c379a00000000000000000000000000000000000000000000000000000000081526004016111d7906137b5565b60405180910390fd5b505b600060cd6000878152602001908152602001600020600080600181111561120c5761120b6136a9565b5b86600181111561121f5761121e6136a9565b5b1461122b57600061122e565b60015b60018111156112405761123f6136a9565b5b815260200190815260200160002090506000808690505b82805490508210801561126a5750600081115b15611f25576000838381548110611284576112836139e6565b5b9060005260206000209060070201600401548484815481106112a9576112a86139e6565b5b9060005260206000209060070201600301546112c59190613946565b905060008183116112d657826112d8565b815b905080836112e69190613946565b9250808585815481106112fc576112fb6139e6565b5b9060005260206000209060070201600401546113189190613804565b85858154811061132b5761132a6139e6565b5b90600052602060002090600702016004018190555061134a60ca612ee3565b600061135660ca612ef9565b90506113f48187878154811061136f5761136e6139e6565b5b9060005260206000209060070201600001548d898981548110611395576113946139e6565b5b906000526020600020906007020160010160009054906101000a900473ffffffffffffffffffffffffffffffffffffffff1633878c8c815481106113dc576113db6139e6565b5b90600052602060002090600702016005015442612f93565b61152d86868154811061140a576114096139e6565b5b90600052602060002090600702016000015487878154811061142f5761142e6139e6565b5b906000526020600020906007020160010160009054906101000a900473ffffffffffffffffffffffffffffffffffffffff16888881548110611474576114736139e6565b5b906000526020600020906007020160010160149054906101000a900460ff168989815481106114a6576114a56139e6565b5b9060005260206000209060070201600201548a8a815481106114cb576114ca6139e6565b5b9060005260206000209060070201600301548b8b815481106114f0576114ef6139e6565b5b9060005260206000209060070201600401548c8c81548110611515576115146139e6565b5b90600052602060002090600702016005015442612f07565b6001808111156115405761153f6136a9565b5b896001811115611553576115526136a9565b5b14156119195760cf60009054906101000a900473ffffffffffffffffffffffffffffffffffffffff1673ffffffffffffffffffffffffffffffffffffffff1663605105f0338888815481106115ab576115aa6139e6565b5b906000526020600020906007020160010160009054906101000a900473ffffffffffffffffffffffffffffffffffffffff168e866040518563ffffffff1660e01b81526004016115fe9493929190613ae2565b600060405180830381600087803b15801561161857600080fd5b505af115801561162c573d6000803e3d6000fd5b5050505081868681548110611644576116436139e6565b5b90600052602060002090600702016005015461166091906138ec565b60cb60003373ffffffffffffffffffffffffffffffffffffffff1673ffffffffffffffffffffffffffffffffffffffff16815260200190815260200160002060008282546116ae9190613804565b92505081905550818686815481106116c9576116c86139e6565b5b9060005260206000209060070201600501546116e591906138ec565b60cb60008888815481106116fc576116fb6139e6565b5b906000526020600020906007020160010160009054906101000a900473ffffffffffffffffffffffffffffffffffffffff1673ffffffffffffffffffffffffffffffffffffffff1673ffffffffffffffffffffffffffffffffffffffff16815260200190815260200160002060008282546117779190613946565b9250508190555081868681548110611792576117916139e6565b5b9060005260206000209060070201600501546117ae91906138ec565b60cc60008888815481106117c5576117c46139e6565b5b906000526020600020906007020160010160009054906101000a900473ffffffffffffffffffffffffffffffffffffffff1673ffffffffffffffffffffffffffffffffffffffff1673ffffffffffffffffffffffffffffffffffffffff16815260200190815260200160002060008282546118409190613946565b9250508190555061191886868154811061185d5761185c6139e6565b5b906000526020600020906007020160010160009054906101000a900473ffffffffffffffffffffffffffffffffffffffff1660cc60008989815481106118a6576118a56139e6565b5b906000526020600020906007020160010160009054906101000a900473ffffffffffffffffffffffffffffffffffffffff1673ffffffffffffffffffffffffffffffffffffffff1673ffffffffffffffffffffffffffffffffffffffff16815260200190815260200160002054612ea6565b5b6000600181111561192d5761192c6136a9565b5b8960018111156119405761193f6136a9565b5b1415611df5578186868154811061195a576119596139e6565b5b90600052602060002090600702016005015461197691906138ec565b60cc60003373ffffffffffffffffffffffffffffffffffffffff1673ffffffffffffffffffffffffffffffffffffffff1681526020019081526020016000205460cb60003373ffffffffffffffffffffffffffffffffffffffff1673ffffffffffffffffffffffffffffffffffffffff16815260200190815260200160002054611a009190613946565b1015611a41576040517f08c379a0000000000000000000000000000000000000000000000000000000008152600401611a38906139c6565b60405180910390fd5b60cf60009054906101000a900473ffffffffffffffffffffffffffffffffffffffff1673ffffffffffffffffffffffffffffffffffffffff1663605105f0878781548110611a9257611a916139e6565b5b906000526020600020906007020160010160009054906101000a900473ffffffffffffffffffffffffffffffffffffffff16338e866040518563ffffffff1660e01b8152600401611ae69493929190613ae2565b600060405180830381600087803b158015611b0057600080fd5b505af1158015611b14573d6000803e3d6000fd5b5050505081868681548110611b2c57611b2b6139e6565b5b906000526020600020906007020160050154611b4891906138ec565b60cb60003373ffffffffffffffffffffffffffffffffffffffff1673ffffffffffffffffffffffffffffffffffffffff1681526020019081526020016000206000828254611b969190613946565b9250508190555081868681548110611bb157611bb06139e6565b5b906000526020600020906007020160050154611bcd91906138ec565b60cb6000888881548110611be457611be36139e6565b5b906000526020600020906007020160010160009054906101000a900473ffffffffffffffffffffffffffffffffffffffff1673ffffffffffffffffffffffffffffffffffffffff1673ffffffffffffffffffffffffffffffffffffffff1681526020019081526020016000206000828254611c5f9190613804565b925050819055508160ce6000888881548110611c7e57611c7d6139e6565b5b906000526020600020906007020160010160009054906101000a900473ffffffffffffffffffffffffffffffffffffffff1673ffffffffffffffffffffffffffffffffffffffff1673ffffffffffffffffffffffffffffffffffffffff16815260200190815260200160002060008d81526020019081526020016000206000828254611d0a9190613946565b92505081905550611df4868681548110611d2757611d266139e6565b5b906000526020600020906007020160010160009054906101000a900473ffffffffffffffffffffffffffffffffffffffff168c60ce60008a8a81548110611d7157611d706139e6565b5b906000526020600020906007020160010160009054906101000a900473ffffffffffffffffffffffffffffffffffffffff1673ffffffffffffffffffffffffffffffffffffffff1673ffffffffffffffffffffffffffffffffffffffff16815260200190815260200160002060008f815260200190815260200160002054612e66565b5b611e3e3360cb60003373ffffffffffffffffffffffffffffffffffffffff1673ffffffffffffffffffffffffffffffffffffffff16815260200190815260200160002054612f56565b611f0f868681548110611e5457611e536139e6565b5b906000526020600020906007020160010160009054906101000a900473ffffffffffffffffffffffffffffffffffffffff1660cb6000898981548110611e9d57611e9c6139e6565b5b906000526020600020906007020160010160009054906101000a900473ffffffffffffffffffffffffffffffffffffffff1673ffffffffffffffffffffffffffffffffffffffff1673ffffffffffffffffffffffffffffffffffffffff16815260200190815260200160002054612f56565b8480611f1a90613b3a565b955050505050611257565b600091505b828054905082108015611f845750828281548110611f4b57611f4a6139e6565b5b906000526020600020906007020160030154838381548110611f7057611f6f6139e6565b5b906000526020600020906007020160040154145b156121c157611fb6838381548110611f9f57611f9e6139e6565b5b906000526020600020906007020160000154612fe2565b60008290505b60018480549050611fcd9190613946565b8110156121185783600182611fe29190613804565b81548110611ff357611ff26139e6565b5b9060005260206000209060070201848281548110612014576120136139e6565b5b9060005260206000209060070201600082015481600001556001820160009054906101000a900473ffffffffffffffffffffffffffffffffffffffff168160010160006101000a81548173ffffffffffffffffffffffffffffffffffffffff021916908373ffffffffffffffffffffffffffffffffffffffff1602179055506001820160149054906101000a900460ff168160010160146101000a81548160ff021916908360018111156120cb576120ca6136a9565b5b02179055506002820154816002015560038201548160030155600482015481600401556005820154816005015560068201548160060155905050808061211090613b3a565b915050611fbc565b508280548061212a57612129613b83565b5b60019003818190600052602060002090600702016000808201600090556001820160006101000a81549073ffffffffffffffffffffffffffffffffffffffff02191690556001820160146101000a81549060ff0219169055600282016000905560038201600090556004820160009055600582016000905560068201600090555050905581806121b990613b3a565b925050611f2a565b50505050506001609781905550505050565b6000603360009054906101000a900460ff16905090565b6121f261301c565b73ffffffffffffffffffffffffffffffffffffffff166122106123e4565b73ffffffffffffffffffffffffffffffffffffffff1614612266576040517f08c379a000000000000000000000000000000000000000000000000000000000815260040161225d90613bfe565b60405180910390fd5b6122706000613024565b565b600060019054906101000a900460ff1661229a5760008054906101000a900460ff16156122a3565b6122a26130ea565b5b6122e2576040517f08c379a00000000000000000000000000000000000000000000000000000000081526004016122d990613c90565b60405180910390fd5b60008060019054906101000a900460ff161590508015612332576001600060016101000a81548160ff02191690831515021790555060016000806101000a81548160ff0219169083151502179055505b61233a61295f565b801561235b5760008060016101000a81548160ff0219169083151502179055505b50565b61236661301c565b73ffffffffffffffffffffffffffffffffffffffff166123846123e4565b73ffffffffffffffffffffffffffffffffffffffff16146123da576040517f08c379a00000000000000000000000000000000000000000000000000000000081526004016123d190613bfe565b60405180910390fd5b6123e26130fb565b565b6000606560009054906101000a900473ffffffffffffffffffffffffffffffffffffffff16905090565b600060cd60008581526020019081526020016000206000846001811115612438576124376136a9565b5b8152602001908152602001600020905060005b8180549050811015612958578282828154811061246b5761246a6139e6565b5b906000526020600020906007020160000154141561294557818181548110612496576124956139e6565b5b906000526020600020906007020160010160009054906101000a900473ffffffffffffffffffffffffffffffffffffffff1673ffffffffffffffffffffffffffffffffffffffff163373ffffffffffffffffffffffffffffffffffffffff1614612535576040517f08c379a000000000000000000000000000000000000000000000000000000000815260040161252c90613d22565b60405180910390fd5b60006001811115612549576125486136a9565b5b82828154811061255c5761255b6139e6565b5b906000526020600020906007020160010160149054906101000a900460ff16600181111561258d5761258c6136a9565b5b141561268a578181815481106125a6576125a56139e6565b5b9060005260206000209060070201600501548282815481106125cb576125ca6139e6565b5b9060005260206000209060070201600301546125e791906138ec565b60cc60003373ffffffffffffffffffffffffffffffffffffffff1673ffffffffffffffffffffffffffffffffffffffff16815260200190815260200160002060008282546126359190613946565b925050819055506126853360cc60003373ffffffffffffffffffffffffffffffffffffffff1673ffffffffffffffffffffffffffffffffffffffff16815260200190815260200160002054612ea6565b612771565b81818154811061269d5761269c6139e6565b5b90600052602060002090600702016003015460ce60003373ffffffffffffffffffffffffffffffffffffffff1673ffffffffffffffffffffffffffffffffffffffff1681526020019081526020016000206000878152602001908152602001600020600082825461270e9190613946565b92505081905550612770338660ce60003373ffffffffffffffffffffffffffffffffffffffff1673ffffffffffffffffffffffffffffffffffffffff168152602001908152602001600020600089815260200190815260200160002054612e66565b5b81600183805490506127839190613946565b81548110612794576127936139e6565b5b90600052602060002090600702018282815481106127b5576127b46139e6565b5b9060005260206000209060070201600082015481600001556001820160009054906101000a900473ffffffffffffffffffffffffffffffffffffffff168160010160006101000a81548173ffffffffffffffffffffffffffffffffffffffff021916908373ffffffffffffffffffffffffffffffffffffffff1602179055506001820160149054906101000a900460ff168160010160146101000a81548160ff0219169083600181111561286c5761286b6136a9565b5b02179055506002820154816002015560038201548160030155600482015481600401556005820154816005015560068201548160060155905050818054806128b7576128b6613b83565b5b60019003818190600052602060002090600702016000808201600090556001820160006101000a81549073ffffffffffffffffffffffffffffffffffffffff02191690556001820160146101000a81549060ff0219169055600282016000905560038201600090556004820160009055600582016000905560068201600090555050905561294483612fe2565b5b808061295090613b3a565b91505061244b565b5050505050565b600060019054906101000a900460ff166129875760008054906101000a900460ff1615612990565b61298f6130ea565b5b6129cf576040517f08c379a00000000000000000000000000000000000000000000000000000000081526004016129c690613c90565b60405180910390fd5b60008060019054906101000a900460ff161590508015612a1f576001600060016101000a81548160ff02191690831515021790555060016000806101000a81548160ff0219169083151502179055505b612a2761319e565b612a2f6131ef565b612a3761325b565b8015612a585760008060016101000a81548160ff0219169083151502179055505b50565b60026097541415612aa1576040517f08c379a0000000000000000000000000000000000000000000000000000000008152600401612a9890613a8b565b60405180910390fd5b6002609781905550612ab16121d3565b15612af1576040517f08c379a0000000000000000000000000000000000000000000000000000000008152600401612ae890613689565b60405180910390fd5b8060cc60003373ffffffffffffffffffffffffffffffffffffffff1673ffffffffffffffffffffffffffffffffffffffff1681526020019081526020016000205460cb60003373ffffffffffffffffffffffffffffffffffffffff1673ffffffffffffffffffffffffffffffffffffffff16815260200190815260200160002054612b7c9190613946565b1015612bbd576040517f08c379a0000000000000000000000000000000000000000000000000000000008152600401612bb490613d8e565b60405180910390fd5b8060cb60003373ffffffffffffffffffffffffffffffffffffffff1673ffffffffffffffffffffffffffffffffffffffff1681526020019081526020016000206000828254612c0c9190613946565b925050819055503373ffffffffffffffffffffffffffffffffffffffff166108fc829081150290604051600060405180830381858888f19350505050158015612c59573d6000803e3d6000fd5b50612ca33360cb60003373ffffffffffffffffffffffffffffffffffffffff1673ffffffffffffffffffffffffffffffffffffffff16815260200190815260200160002054612f56565b600160978190555050565b612cb661301c565b73ffffffffffffffffffffffffffffffffffffffff16612cd46123e4565b73ffffffffffffffffffffffffffffffffffffffff1614612d2a576040517f08c379a0000000000000000000000000000000000000000000000000000000008152600401612d2190613bfe565b60405180910390fd5b600073ffffffffffffffffffffffffffffffffffffffff168173ffffffffffffffffffffffffffffffffffffffff161415612d9a576040517f08c379a0000000000000000000000000000000000000000000000000000000008152600401612d9190613e20565b60405180910390fd5b612da381613024565b50565b612dae61301c565b73ffffffffffffffffffffffffffffffffffffffff16612dcc6123e4565b73ffffffffffffffffffffffffffffffffffffffff1614612e22576040517f08c379a0000000000000000000000000000000000000000000000000000000008152600401612e1990613bfe565b60405180910390fd5b8060cf60006101000a81548173ffffffffffffffffffffffffffffffffffffffff021916908373ffffffffffffffffffffffffffffffffffffffff16021790555050565b7f0900e4995c14b4dddd66912896cf782669558020f363ce2c94a3912722a9c925838383604051612e9993929190613e40565b60405180910390a1505050565b7fb486a8060a6238f98a4851b9c98b78fcd1b052b434dad5b30dc3ca31063df8738282604051612ed79291906136d8565b60405180910390a15050565b6001816000016000828254019250508190555050565b600081600001549050919050565b7f288076ee5e10de6c038192ef83911bfe6b347ecb651d2f6035a1a4d1726084428888888888888888604051612f44989796959493929190613ebf565b60405180910390a15050505050505050565b7f702c3ef9c38697b937aef436b7d6a53cff9a6d4d47aad60c2d14983e931da3cc8282604051612f879291906136d8565b60405180910390a15050565b7fb845d1268702d27ff6f56722cc54204649b096d86c120f1469bd7c446049c01d8888888888888888604051612fd0989796959493929190613f3d565b60405180910390a15050505050505050565b7f4e90531decf11ba7b2cf9c19322f06d9fea54a3707f8d71bf678fdfdfa20f57a816040516130119190613563565b60405180910390a150565b600033905090565b6000606560009054906101000a900473ffffffffffffffffffffffffffffffffffffffff16905081606560006101000a81548173ffffffffffffffffffffffffffffffffffffffff021916908373ffffffffffffffffffffffffffffffffffffffff1602179055508173ffffffffffffffffffffffffffffffffffffffff168173ffffffffffffffffffffffffffffffffffffffff167f8be0079c531659141344cd1fd0a4f28419497f9722a3daafe3b4186f6b6457e060405160405180910390a35050565b60006130f5306132bc565b15905090565b6131036121d3565b15613143576040517f08c379a000000000000000000000000000000000000000000000000000000000815260040161313a90614007565b60405180910390fd5b6001603360006101000a81548160ff0219169083151502179055507f62e78cea01bee320cd4e420270b5ea74000d11b0c9f74754ebdbfc544b05a25861318761301c565b6040516131949190613460565b60405180910390a1565b600060019054906101000a900460ff166131ed576040517f08c379a00000000000000000000000000000000000000000000000000000000081526004016131e490614099565b60405180910390fd5b565b600060019054906101000a900460ff1661323e576040517f08c379a000000000000000000000000000000000000000000000000000000000815260040161323590614099565b60405180910390fd5b6000603360006101000a81548160ff021916908315150217905550565b600060019054906101000a900460ff166132aa576040517f08c379a00000000000000000000000000000000000000000000000000000000081526004016132a190614099565b60405180910390fd5b6132ba6132b561301c565b613024565b565b600080823b905060008111915050919050565b600080fd5b6000819050919050565b6132e7816132d4565b81146132f257600080fd5b50565b600081359050613304816132de565b92915050565b6002811061331757600080fd5b50565b6000813590506133298161330a565b92915050565b60008060008060808587031215613349576133486132cf565b5b6000613357878288016132f5565b9450506020613368878288016132f5565b9350506040613379878288016132f5565b925050606061338a8782880161331a565b91505092959194509250565b6000806000606084860312156133af576133ae6132cf565b5b60006133bd868287016132f5565b93505060206133ce868287016132f5565b92505060406133df8682870161331a565b9150509250925092565b60008115159050919050565b6133fe816133e9565b82525050565b600060208201905061341960008301846133f5565b92915050565b600073ffffffffffffffffffffffffffffffffffffffff82169050919050565b600061344a8261341f565b9050919050565b61345a8161343f565b82525050565b60006020820190506134756000830184613451565b92915050565b600080600060608486031215613494576134936132cf565b5b60006134a2868287016132f5565b93505060206134b38682870161331a565b92505060406134c4868287016132f5565b9150509250925092565b6000602082840312156134e4576134e36132cf565b5b60006134f2848285016132f5565b91505092915050565b6135048161343f565b811461350f57600080fd5b50565b600081359050613521816134fb565b92915050565b60006020828403121561353d5761353c6132cf565b5b600061354b84828501613512565b91505092915050565b61355d816132d4565b82525050565b60006020820190506135786000830184613554565b92915050565b60008151905061358d816134fb565b92915050565b6000602082840312156135a9576135a86132cf565b5b60006135b78482850161357e565b91505092915050565b600082825260208201905092915050565b7f7468697320746f6b656e20646f6573206e6f7420657869737400000000000000600082015250565b60006136076019836135c0565b9150613612826135d1565b602082019050919050565b60006020820190508181036000830152613636816135fa565b9050919050565b7f4e6f7420616c6c6f776564207768696c65207061757365640000000000000000600082015250565b60006136736018836135c0565b915061367e8261363d565b602082019050919050565b600060208201905081810360008301526136a281613666565b9050919050565b7f4e487b7100000000000000000000000000000000000000000000000000000000600052602160045260246000fd5b60006040820190506136ed6000830185613451565b6136fa6020830184613554565b9392505050565b600081519050613710816132de565b92915050565b60006020828403121561372c5761372b6132cf565b5b600061373a84828501613701565b91505092915050565b7f6d6573736167652073656e646572277320746f6b656e2062616c616e6365206960008201527f7320746f6f206c6f770000000000000000000000000000000000000000000000602082015250565b600061379f6029836135c0565b91506137aa82613743565b604082019050919050565b600060208201905081810360008301526137ce81613792565b9050919050565b7f4e487b7100000000000000000000000000000000000000000000000000000000600052601160045260246000fd5b600061380f826132d4565b915061381a836132d4565b9250827fffffffffffffffffffffffffffffffffffffffffffffffffffffffffffffffff0382111561384f5761384e6137d5565b5b828201905092915050565b7f746f74616c20616d6f756e74206f66206672616374696f6e73206973206c6f7760008201527f6572207468616e2074686520676976656e20616d6f756e740000000000000000602082015250565b60006138b66038836135c0565b91506138c18261385a565b604082019050919050565b600060208201905081810360008301526138e5816138a9565b9050919050565b60006138f7826132d4565b9150613902836132d4565b9250817fffffffffffffffffffffffffffffffffffffffffffffffffffffffffffffffff048311821515161561393b5761393a6137d5565b5b828202905092915050565b6000613951826132d4565b915061395c836132d4565b92508282101561396f5761396e6137d5565b5b828203905092915050565b7f6574682062616c616e636520746f6f206c6f7700000000000000000000000000600082015250565b60006139b06013836135c0565b91506139bb8261397a565b602082019050919050565b600060208201905081810360008301526139df816139a3565b9050919050565b7f4e487b7100000000000000000000000000000000000000000000000000000000600052603260045260246000fd5b6000613a20826132d4565b91506000821415613a3457613a336137d5565b5b600182039050919050565b7f5265656e7472616e637947756172643a207265656e7472616e742063616c6c00600082015250565b6000613a75601f836135c0565b9150613a8082613a3f565b602082019050919050565b60006020820190508181036000830152613aa481613a68565b9050919050565b600082825260208201905092915050565b50565b6000613acc600083613aab565b9150613ad782613abc565b600082019050919050565b600060a082019050613af76000830187613451565b613b046020830186613451565b613b116040830185613554565b613b1e6060830184613554565b8181036080830152613b2f81613abf565b905095945050505050565b6000613b45826132d4565b91507fffffffffffffffffffffffffffffffffffffffffffffffffffffffffffffffff821415613b7857613b776137d5565b5b600182019050919050565b7f4e487b7100000000000000000000000000000000000000000000000000000000600052603160045260246000fd5b7f4f776e61626c653a2063616c6c6572206973206e6f7420746865206f776e6572600082015250565b6000613be86020836135c0565b9150613bf382613bb2565b602082019050919050565b60006020820190508181036000830152613c1781613bdb565b9050919050565b7f496e697469616c697a61626c653a20636f6e747261637420697320616c72656160008201527f647920696e697469616c697a6564000000000000000000000000000000000000602082015250565b6000613c7a602e836135c0565b9150613c8582613c1e565b604082019050919050565b60006020820190508181036000830152613ca981613c6d565b9050919050565b7f4f6e6c7920746865207472616465722063616e2064656c65746520686973206f60008201527f7264657200000000000000000000000000000000000000000000000000000000602082015250565b6000613d0c6024836135c0565b9150613d1782613cb0565b604082019050919050565b60006020820190508181036000830152613d3b81613cff565b9050919050565b7f4554482062616c616e6365206973206e6f7420656e6f75676800000000000000600082015250565b6000613d786019836135c0565b9150613d8382613d42565b602082019050919050565b60006020820190508181036000830152613da781613d6b565b9050919050565b7f4f776e61626c653a206e6577206f776e657220697320746865207a65726f206160008201527f6464726573730000000000000000000000000000000000000000000000000000602082015250565b6000613e0a6026836135c0565b9150613e1582613dae565b604082019050919050565b60006020820190508181036000830152613e3981613dfd565b9050919050565b6000606082019050613e556000830186613451565b613e626020830185613554565b613e6f6040830184613554565b949350505050565b60028110613e8857613e876136a9565b5b50565b6000819050613e9982613e77565b919050565b6000613ea982613e8b565b9050919050565b613eb981613e9e565b82525050565b600061010082019050613ed5600083018b613554565b613ee2602083018a613451565b613eef6040830189613eb0565b613efc6060830188613554565b613f096080830187613554565b613f1660a0830186613554565b613f2360c0830185613554565b613f3060e0830184613554565b9998505050505050505050565b600061010082019050613f53600083018b613554565b613f60602083018a613554565b613f6d6040830189613554565b613f7a6060830188613451565b613f876080830187613451565b613f9460a0830186613554565b613fa160c0830185613554565b613fae60e0830184613554565b9998505050505050505050565b7f5061757361626c653a2070617573656400000000000000000000000000000000600082015250565b6000613ff16010836135c0565b9150613ffc82613fbb565b602082019050919050565b6000602082019050818103600083015261402081613fe4565b9050919050565b7f496e697469616c697a61626c653a20636f6e7472616374206973206e6f74206960008201527f6e697469616c697a696e67000000000000000000000000000000000000000000602082015250565b6000614083602b836135c0565b915061408e82614027565b604082019050919050565b600060208201905081810360008301526140b281614076565b905091905056fea264697066735822122075aa8e3dc897fb65ce46c0bb6c15a609c9529474b4ef4597200d4c906daa38e564736f6c634300080a0033",
  "immutableReferences": {},
  "source": "// SPDX-License-Identifier: MIT\n\npragma solidity ^0.8.0;\n\nimport \"@openzeppelin/contracts-upgradeable/utils/CountersUpgradeable.sol\";\nimport \"./DexBase.sol\";\n\ncontract MaticDex is DexBase {\n  using CountersUpgradeable for CountersUpgradeable.Counter;\n\n  event OrderUpsert(uint256 orderId, address trader, Side side, uint256 tokenId, uint256 amount, uint256 filled, uint256 price, uint256 timestamp);\n\n  event OrderRemoval(uint256 orderId);\n\n  event NewTrade(uint256 tradeId, uint256 orderId, uint256 tokenId, address trader1, address trader2, uint256 amount, uint256 price, uint256 date);\n\n  event EthBalanceChange(address account, uint256 balance);\n\n  event EthReservedBalanceChange(address account, uint256 balance);\n\n  event SharesReservedBalanceChange(address account, uint256 tokenId, uint256 sharesReservedBalance);\n\n  CountersUpgradeable.Counter private _ids;\n\n  function initialize() public initializer {\n    __DexBase_init();\n  }\n\n  function _onOrderUpsert(uint256 orderId, address trader, Side side, uint256 tokenId, uint256 amount, uint256 filled, uint256 price, uint256 timestamp) internal override {\n    emit OrderUpsert(orderId, trader, side, tokenId, amount, filled, price, timestamp);\n  }\n\n  function _onOrderRemoval(uint256 orderId) internal override {\n    emit OrderRemoval(orderId);\n  }\n\n  function _onTradeExecution(uint256 tradeId, uint256 orderId, uint256 tokenId, address trader1, address trader2, uint256 matchedAmount, uint256 price, uint256 timestamp) internal override {\n    emit NewTrade(tradeId, orderId, tokenId, trader1, trader2, matchedAmount, price, timestamp);\n  }\n\n  function _onEthBalanceChange(address account, uint256 balance) internal override {\n    emit EthBalanceChange(account, balance);\n  }\n\n  function _onEthReservedBalanceChange(address account, uint256 reservedBalance) internal override {\n    emit EthReservedBalanceChange(account, reservedBalance);\n  }\n\n  function _onSharesReservedChange(address account, uint256 tokenId, uint256 sharesReservedBalance) internal override {\n    emit SharesReservedBalanceChange(account, tokenId, sharesReservedBalance);\n  }\n}",
  "sourcePath": "/home/janus/work/react.js-solidity_nft-fractions-dex/contracts/MaticDex.sol",
  "compiler": {
    "name": "solc",
    "version": "0.8.10+commit.fc410830.Emscripten.clang"
  },
  "schemaVersion": "3.4.3",
  "updatedAt": "2021-12-20T05:12:28.230Z",
  "devdoc": {
    "kind": "dev",
    "methods": {
      "owner()": {
        "details": "Returns the address of the current owner."
      },
      "paused()": {
        "details": "Returns true if the contract is paused, and false otherwise."
      },
      "renounceOwnership()": {
        "details": "Leaves the contract without owner. It will not be possible to call `onlyOwner` functions anymore. Can only be called by the current owner. NOTE: Renouncing ownership will leave the contract without an owner, thereby removing any functionality that is only available to the owner."
      },
      "transferOwnership(address)": {
        "details": "Transfers ownership of the contract to a new account (`newOwner`). Can only be called by the current owner."
      }
    },
    "version": 1
  },
  "userdoc": {
    "kind": "user",
    "methods": {},
    "version": 1
  }
}