{
  "contractName": "NftFractionsRepositoryBase",
  "abi": [
    {
      "anonymous": false,
      "inputs": [
        {
          "indexed": true,
          "internalType": "address",
          "name": "account",
          "type": "address"
        },
        {
          "indexed": true,
          "internalType": "address",
          "name": "operator",
          "type": "address"
        },
        {
          "indexed": false,
          "internalType": "bool",
          "name": "approved",
          "type": "bool"
        }
      ],
      "name": "ApprovalForAll",
      "type": "event"
    },
    {
      "anonymous": false,
      "inputs": [
        {
          "indexed": true,
          "internalType": "address",
          "name": "previousOwner",
          "type": "address"
        },
        {
          "indexed": true,
          "internalType": "address",
          "name": "newOwner",
          "type": "address"
        }
      ],
      "name": "OwnershipTransferred",
      "type": "event"
    },
    {
      "anonymous": false,
      "inputs": [
        {
          "indexed": false,
          "internalType": "address",
          "name": "account",
          "type": "address"
        }
      ],
      "name": "Paused",
      "type": "event"
    },
    {
      "anonymous": false,
      "inputs": [
        {
          "indexed": true,
          "internalType": "address",
          "name": "operator",
          "type": "address"
        },
        {
          "indexed": true,
          "internalType": "address",
          "name": "from",
          "type": "address"
        },
        {
          "indexed": true,
          "internalType": "address",
          "name": "to",
          "type": "address"
        },
        {
          "indexed": false,
          "internalType": "uint256[]",
          "name": "ids",
          "type": "uint256[]"
        },
        {
          "indexed": false,
          "internalType": "uint256[]",
          "name": "values",
          "type": "uint256[]"
        }
      ],
      "name": "TransferBatch",
      "type": "event"
    },
    {
      "anonymous": false,
      "inputs": [
        {
          "indexed": true,
          "internalType": "address",
          "name": "operator",
          "type": "address"
        },
        {
          "indexed": true,
          "internalType": "address",
          "name": "from",
          "type": "address"
        },
        {
          "indexed": true,
          "internalType": "address",
          "name": "to",
          "type": "address"
        },
        {
          "indexed": false,
          "internalType": "uint256",
          "name": "id",
          "type": "uint256"
        },
        {
          "indexed": false,
          "internalType": "uint256",
          "name": "value",
          "type": "uint256"
        }
      ],
      "name": "TransferSingle",
      "type": "event"
    },
    {
      "anonymous": false,
      "inputs": [
        {
          "indexed": false,
          "internalType": "string",
          "name": "value",
          "type": "string"
        },
        {
          "indexed": true,
          "internalType": "uint256",
          "name": "id",
          "type": "uint256"
        }
      ],
      "name": "URI",
      "type": "event"
    },
    {
      "anonymous": false,
      "inputs": [
        {
          "indexed": false,
          "internalType": "address",
          "name": "account",
          "type": "address"
        }
      ],
      "name": "Unpaused",
      "type": "event"
    },
    {
      "inputs": [
        {
          "internalType": "address",
          "name": "account",
          "type": "address"
        },
        {
          "internalType": "uint256",
          "name": "id",
          "type": "uint256"
        }
      ],
      "name": "balanceOf",
      "outputs": [
        {
          "internalType": "uint256",
          "name": "",
          "type": "uint256"
        }
      ],
      "stateMutability": "view",
      "type": "function"
    },
    {
      "inputs": [
        {
          "internalType": "address[]",
          "name": "accounts",
          "type": "address[]"
        },
        {
          "internalType": "uint256[]",
          "name": "ids",
          "type": "uint256[]"
        }
      ],
      "name": "balanceOfBatch",
      "outputs": [
        {
          "internalType": "uint256[]",
          "name": "",
          "type": "uint256[]"
        }
      ],
      "stateMutability": "view",
      "type": "function"
    },
    {
      "inputs": [
        {
          "internalType": "address",
          "name": "account",
          "type": "address"
        },
        {
          "internalType": "address",
          "name": "operator",
          "type": "address"
        }
      ],
      "name": "isApprovedForAll",
      "outputs": [
        {
          "internalType": "bool",
          "name": "",
          "type": "bool"
        }
      ],
      "stateMutability": "view",
      "type": "function"
    },
    {
      "inputs": [],
      "name": "owner",
      "outputs": [
        {
          "internalType": "address",
          "name": "",
          "type": "address"
        }
      ],
      "stateMutability": "view",
      "type": "function"
    },
    {
      "inputs": [],
      "name": "paused",
      "outputs": [
        {
          "internalType": "bool",
          "name": "",
          "type": "bool"
        }
      ],
      "stateMutability": "view",
      "type": "function"
    },
    {
      "inputs": [],
      "name": "renounceOwnership",
      "outputs": [],
      "stateMutability": "nonpayable",
      "type": "function"
    },
    {
      "inputs": [
        {
          "internalType": "address",
          "name": "from",
          "type": "address"
        },
        {
          "internalType": "address",
          "name": "to",
          "type": "address"
        },
        {
          "internalType": "uint256[]",
          "name": "ids",
          "type": "uint256[]"
        },
        {
          "internalType": "uint256[]",
          "name": "amounts",
          "type": "uint256[]"
        },
        {
          "internalType": "bytes",
          "name": "data",
          "type": "bytes"
        }
      ],
      "name": "safeBatchTransferFrom",
      "outputs": [],
      "stateMutability": "nonpayable",
      "type": "function"
    },
    {
      "inputs": [
        {
          "internalType": "address",
          "name": "from",
          "type": "address"
        },
        {
          "internalType": "address",
          "name": "to",
          "type": "address"
        },
        {
          "internalType": "uint256",
          "name": "id",
          "type": "uint256"
        },
        {
          "internalType": "uint256",
          "name": "amount",
          "type": "uint256"
        },
        {
          "internalType": "bytes",
          "name": "data",
          "type": "bytes"
        }
      ],
      "name": "safeTransferFrom",
      "outputs": [],
      "stateMutability": "nonpayable",
      "type": "function"
    },
    {
      "inputs": [
        {
          "internalType": "address",
          "name": "operator",
          "type": "address"
        },
        {
          "internalType": "bool",
          "name": "approved",
          "type": "bool"
        }
      ],
      "name": "setApprovalForAll",
      "outputs": [],
      "stateMutability": "nonpayable",
      "type": "function"
    },
    {
      "inputs": [
        {
          "internalType": "bytes4",
          "name": "interfaceId",
          "type": "bytes4"
        }
      ],
      "name": "supportsInterface",
      "outputs": [
        {
          "internalType": "bool",
          "name": "",
          "type": "bool"
        }
      ],
      "stateMutability": "view",
      "type": "function"
    },
    {
      "inputs": [
        {
          "internalType": "address",
          "name": "newOwner",
          "type": "address"
        }
      ],
      "name": "transferOwnership",
      "outputs": [],
      "stateMutability": "nonpayable",
      "type": "function"
    },
    {
      "inputs": [
        {
          "internalType": "uint256",
          "name": "",
          "type": "uint256"
        }
      ],
      "name": "uri",
      "outputs": [
        {
          "internalType": "string",
          "name": "",
          "type": "string"
        }
      ],
      "stateMutability": "view",
      "type": "function"
    },
    {
      "inputs": [
        {
          "internalType": "uint256",
          "name": "tokenId",
          "type": "uint256"
        },
        {
          "internalType": "uint256",
          "name": "amount",
          "type": "uint256"
        },
        {
          "internalType": "address",
          "name": "transferer",
          "type": "address"
        }
      ],
      "name": "burn",
      "outputs": [],
      "stateMutability": "nonpayable",
      "type": "function"
    },
    {
      "inputs": [
        {
          "internalType": "address",
          "name": "erc721ContractAddress",
          "type": "address"
        },
        {
          "internalType": "uint256",
          "name": "erc721TokenId",
          "type": "uint256"
        },
        {
          "internalType": "uint256",
          "name": "erc1155TokenId",
          "type": "uint256"
        },
        {
          "internalType": "uint256",
          "name": "erc1155Amount",
          "type": "uint256"
        },
        {
          "internalType": "uint256",
          "name": "totalFractionsAmount",
          "type": "uint256"
        },
        {
          "internalType": "address",
          "name": "transferer",
          "type": "address"
        },
        {
          "internalType": "string",
          "name": "tokenURI",
          "type": "string"
        }
      ],
      "name": "mint",
      "outputs": [],
      "stateMutability": "nonpayable",
      "type": "function"
    },
    {
      "inputs": [
        {
          "internalType": "address",
          "name": "from",
          "type": "address"
        },
        {
          "internalType": "address",
          "name": "to",
          "type": "address"
        },
        {
          "internalType": "uint256",
          "name": "id",
          "type": "uint256"
        },
        {
          "internalType": "uint256",
          "name": "amount",
          "type": "uint256"
        },
        {
          "internalType": "bytes",
          "name": "data",
          "type": "bytes"
        }
      ],
      "name": "transferFrom",
      "outputs": [],
      "stateMutability": "nonpayable",
      "type": "function"
    },
    {
      "inputs": [
        {
          "internalType": "uint256",
          "name": "_tokenId",
          "type": "uint256"
        }
      ],
      "name": "getTokenData",
      "outputs": [
        {
          "internalType": "address",
          "name": "erc721ContractAddress",
          "type": "address"
        },
        {
          "internalType": "uint256",
          "name": "erc721TokenId",
          "type": "uint256"
        },
        {
          "internalType": "uint256",
          "name": "totalFractinsAmount",
          "type": "uint256"
        },
        {
          "internalType": "string",
          "name": "tokenURL",
          "type": "string"
        }
      ],
      "stateMutability": "view",
      "type": "function"
    },
    {
      "inputs": [
        {
          "internalType": "uint256",
          "name": "_tokenId",
          "type": "uint256"
        }
      ],
      "name": "getTotalFractionsAmount",
      "outputs": [
        {
          "internalType": "uint256",
          "name": "",
          "type": "uint256"
        }
      ],
      "stateMutability": "view",
      "type": "function"
    },
    {
      "inputs": [
        {
          "internalType": "uint256",
          "name": "_tokenId",
          "type": "uint256"
        }
      ],
      "name": "getErc721ContractAddress",
      "outputs": [
        {
          "internalType": "address",
          "name": "",
          "type": "address"
        }
      ],
      "stateMutability": "view",
      "type": "function"
    },
    {
      "inputs": [],
      "name": "pause",
      "outputs": [],
      "stateMutability": "nonpayable",
      "type": "function"
    }
  ],
  "bytecode": "0x608060405234801561001057600080fd5b50613bc1806100206000396000f3fe608060405234801561001057600080fd5b50600436106101205760003560e01c8063715018a6116100ad578063a22cb46511610071578063a22cb46514610305578063b09afec114610321578063e985e9c514610354578063f242432a14610384578063f2fde38b146103a057610120565b8063715018a61461029b578063749388c4146102a55780638456cb59146102c15780638da5cb5b146102cb578063971a5847146102e957610120565b806333d59207116100f457806333d59207146101d15780634e1273f4146102015780635c975abb14610231578063605105f01461024f57806366d0330c1461026b57610120565b8062fdd58e1461012557806301ffc9a7146101555780630e89341c146101855780632eb2c2d6146101b5575b600080fd5b61013f600480360381019061013a9190612351565b6103bc565b60405161014c91906123a0565b60405180910390f35b61016f600480360381019061016a9190612413565b610486565b60405161017c919061245b565b60405180910390f35b61019f600480360381019061019a9190612476565b610568565b6040516101ac919061253c565b60405180910390f35b6101cf60048036038101906101ca919061275b565b6105fc565b005b6101eb60048036038101906101e69190612476565b61069d565b6040516101f891906123a0565b60405180910390f35b61021b600480360381019061021691906128ed565b6106bd565b6040516102289190612a23565b60405180910390f35b6102396107d6565b604051610246919061245b565b60405180910390f35b61026960048036038101906102649190612a45565b6107ed565b005b61028560048036038101906102809190612476565b610875565b6040516102929190612aeb565b60405180910390f35b6102a36108b5565b005b6102bf60048036038101906102ba9190612b06565b61093d565b005b6102c9610a6f565b005b6102d3610af5565b6040516102e09190612aeb565b60405180910390f35b61030360048036038101906102fe9190612bfa565b610b1f565b005b61031f600480360381019061031a9190612ce4565b610d76565b005b61033b60048036038101906103369190612476565b610d8c565b60405161034b9493929190612d24565b60405180910390f35b61036e60048036038101906103699190612d70565b610ea9565b60405161037b919061245b565b60405180910390f35b61039e60048036038101906103999190612a45565b610f3d565b005b6103ba60048036038101906103b59190612db0565b610fde565b005b60008073ffffffffffffffffffffffffffffffffffffffff168373ffffffffffffffffffffffffffffffffffffffff16141561042d576040517f08c379a000000000000000000000000000000000000000000000000000000000815260040161042490612e4f565b60405180910390fd5b6065600083815260200190815260200160002060008473ffffffffffffffffffffffffffffffffffffffff1673ffffffffffffffffffffffffffffffffffffffff16815260200190815260200160002054905092915050565b60007fd9b67a26000000000000000000000000000000000000000000000000000000007bffffffffffffffffffffffffffffffffffffffffffffffffffffffff1916827bffffffffffffffffffffffffffffffffffffffffffffffffffffffff1916148061055157507f0e89341c000000000000000000000000000000000000000000000000000000007bffffffffffffffffffffffffffffffffffffffffffffffffffffffff1916827bffffffffffffffffffffffffffffffffffffffffffffffffffffffff1916145b806105615750610560826110d6565b5b9050919050565b60606067805461057790612e9e565b80601f01602080910402602001604051908101604052809291908181526020018280546105a390612e9e565b80156105f05780601f106105c5576101008083540402835291602001916105f0565b820191906000526020600020905b8154815290600101906020018083116105d357829003601f168201915b50505050509050919050565b610604611140565b73ffffffffffffffffffffffffffffffffffffffff168573ffffffffffffffffffffffffffffffffffffffff16148061064a575061064985610644611140565b610ea9565b5b610689576040517f08c379a000000000000000000000000000000000000000000000000000000000815260040161068090612f42565b60405180910390fd5b6106968585858585611148565b5050505050565b600060fb6000838152602001908152602001600020600201549050919050565b60608151835114610703576040517f08c379a00000000000000000000000000000000000000000000000000000000081526004016106fa90612fd4565b60405180910390fd5b6000835167ffffffffffffffff8111156107205761071f612563565b5b60405190808252806020026020018201604052801561074e5781602001602082028036833780820191505090505b50905060005b84518110156107cb5761079b85828151811061077357610772612ff4565b5b602002602001015185838151811061078e5761078d612ff4565b5b60200260200101516103bc565b8282815181106107ae576107ad612ff4565b5b602002602001018181525050806107c490613052565b9050610754565b508091505092915050565b6000609760009054906101000a900460ff16905090565b6107f56107d6565b15610835576040517f08c379a000000000000000000000000000000000000000000000000000000000815260040161082c906130e7565b60405180910390fd5b600061084186856103bc565b9050600061084f86866103bc565b905061085e8787878787610f3d565b61086c87878787868661145f565b50505050505050565b600060fb600083815260200190815260200160002060000160009054906101000a900473ffffffffffffffffffffffffffffffffffffffff169050919050565b6108bd611140565b73ffffffffffffffffffffffffffffffffffffffff166108db610af5565b73ffffffffffffffffffffffffffffffffffffffff1614610931576040517f08c379a000000000000000000000000000000000000000000000000000000000815260040161092890613153565b60405180910390fd5b61093b6000611467565b565b610945611140565b73ffffffffffffffffffffffffffffffffffffffff16610963610af5565b73ffffffffffffffffffffffffffffffffffffffff16146109b9576040517f08c379a00000000000000000000000000000000000000000000000000000000081526004016109b090613153565b60405180910390fd5b6109c16107d6565b15610a01576040517f08c379a00000000000000000000000000000000000000000000000000000000081526004016109f8906130e7565b60405180910390fd5b6000610a0d82856103bc565b905082811015610a52576040517f08c379a0000000000000000000000000000000000000000000000000000000008152600401610a49906131e5565b60405180910390fd5b610a5d82858561152d565b610a698484848461174c565b50505050565b610a77611140565b73ffffffffffffffffffffffffffffffffffffffff16610a95610af5565b73ffffffffffffffffffffffffffffffffffffffff1614610aeb576040517f08c379a0000000000000000000000000000000000000000000000000000000008152600401610ae290613153565b60405180910390fd5b610af3611752565b565b600060c960009054906101000a900473ffffffffffffffffffffffffffffffffffffffff16905090565b610b27611140565b73ffffffffffffffffffffffffffffffffffffffff16610b45610af5565b73ffffffffffffffffffffffffffffffffffffffff1614610b9b576040517f08c379a0000000000000000000000000000000000000000000000000000000008152600401610b9290613153565b60405180910390fd5b610ba36107d6565b15610be3576040517f08c379a0000000000000000000000000000000000000000000000000000000008152600401610bda906130e7565b60405180910390fd5b610bfe828686604051806020016040528060008152506117f5565b600060019050600073ffffffffffffffffffffffffffffffffffffffff1660fb600088815260200190815260200160002060000160009054906101000a900473ffffffffffffffffffffffffffffffffffffffff1673ffffffffffffffffffffffffffffffffffffffff161415610d6157610c776121c8565b88816000019073ffffffffffffffffffffffffffffffffffffffff16908173ffffffffffffffffffffffffffffffffffffffff168152505087816020018181525050848160400181815250508281606001819052508060fb600089815260200190815260200160002060008201518160000160006101000a81548173ffffffffffffffffffffffffffffffffffffffff021916908373ffffffffffffffffffffffffffffffffffffffff16021790555060208201518160010155604082015181600201556060820151816003019080519060200190610d57929190612206565b5090505060009150505b610d6c86848361198c565b5050505050505050565b610d88610d81611140565b8383611991565b5050565b6000806000606060fb600086815260200190815260200160002060000160009054906101000a900473ffffffffffffffffffffffffffffffffffffffff1660fb60008781526020019081526020016000206001015460fb60008881526020019081526020016000206002015460fb6000898152602001908152602001600020600301808054610e1a90612e9e565b80601f0160208091040260200160405190810160405280929190818152602001828054610e4690612e9e565b8015610e935780601f10610e6857610100808354040283529160200191610e93565b820191906000526020600020905b815481529060010190602001808311610e7657829003601f168201915b5050505050905093509350935093509193509193565b6000606660008473ffffffffffffffffffffffffffffffffffffffff1673ffffffffffffffffffffffffffffffffffffffff16815260200190815260200160002060008373ffffffffffffffffffffffffffffffffffffffff1673ffffffffffffffffffffffffffffffffffffffff16815260200190815260200160002060009054906101000a900460ff16905092915050565b610f45611140565b73ffffffffffffffffffffffffffffffffffffffff168573ffffffffffffffffffffffffffffffffffffffff161480610f8b5750610f8a85610f85611140565b610ea9565b5b610fca576040517f08c379a0000000000000000000000000000000000000000000000000000000008152600401610fc190613277565b60405180910390fd5b610fd78585858585611afe565b5050505050565b610fe6611140565b73ffffffffffffffffffffffffffffffffffffffff16611004610af5565b73ffffffffffffffffffffffffffffffffffffffff161461105a576040517f08c379a000000000000000000000000000000000000000000000000000000000815260040161105190613153565b60405180910390fd5b600073ffffffffffffffffffffffffffffffffffffffff168173ffffffffffffffffffffffffffffffffffffffff1614156110ca576040517f08c379a00000000000000000000000000000000000000000000000000000000081526004016110c190613309565b60405180910390fd5b6110d381611467565b50565b60007f01ffc9a7000000000000000000000000000000000000000000000000000000007bffffffffffffffffffffffffffffffffffffffffffffffffffffffff1916827bffffffffffffffffffffffffffffffffffffffffffffffffffffffff1916149050919050565b600033905090565b815183511461118c576040517f08c379a00000000000000000000000000000000000000000000000000000000081526004016111839061339b565b60405180910390fd5b600073ffffffffffffffffffffffffffffffffffffffff168473ffffffffffffffffffffffffffffffffffffffff1614156111fc576040517f08c379a00000000000000000000000000000000000000000000000000000000081526004016111f39061342d565b60405180910390fd5b6000611206611140565b9050611216818787878787611d83565b60005b84518110156113ca57600085828151811061123757611236612ff4565b5b60200260200101519050600085838151811061125657611255612ff4565b5b6020026020010151905060006065600084815260200190815260200160002060008b73ffffffffffffffffffffffffffffffffffffffff1673ffffffffffffffffffffffffffffffffffffffff168152602001908152602001600020549050818110156112f8576040517f08c379a00000000000000000000000000000000000000000000000000000000081526004016112ef906134bf565b60405180910390fd5b8181036065600085815260200190815260200160002060008c73ffffffffffffffffffffffffffffffffffffffff1673ffffffffffffffffffffffffffffffffffffffff16815260200190815260200160002081905550816065600085815260200190815260200160002060008b73ffffffffffffffffffffffffffffffffffffffff1673ffffffffffffffffffffffffffffffffffffffff16815260200190815260200160002060008282546113af91906134df565b92505081905550505050806113c390613052565b9050611219565b508473ffffffffffffffffffffffffffffffffffffffff168673ffffffffffffffffffffffffffffffffffffffff168273ffffffffffffffffffffffffffffffffffffffff167f4a39dc06d4c0dbc64b70af90fd698a233a518aa5d07e595d983b8c0526c8f7fb8787604051611441929190613535565b60405180910390a4611457818787878787611d8b565b505050505050565b505050505050565b600060c960009054906101000a900473ffffffffffffffffffffffffffffffffffffffff1690508160c960006101000a81548173ffffffffffffffffffffffffffffffffffffffff021916908373ffffffffffffffffffffffffffffffffffffffff1602179055508173ffffffffffffffffffffffffffffffffffffffff168173ffffffffffffffffffffffffffffffffffffffff167f8be0079c531659141344cd1fd0a4f28419497f9722a3daafe3b4186f6b6457e060405160405180910390a35050565b600073ffffffffffffffffffffffffffffffffffffffff168373ffffffffffffffffffffffffffffffffffffffff16141561159d576040517f08c379a0000000000000000000000000000000000000000000000000000000008152600401611594906135de565b60405180910390fd5b60006115a7611140565b90506115d7818560006115b987611f63565b6115c287611f63565b60405180602001604052806000815250611d83565b60006065600085815260200190815260200160002060008673ffffffffffffffffffffffffffffffffffffffff1673ffffffffffffffffffffffffffffffffffffffff1681526020019081526020016000205490508281101561166f576040517f08c379a000000000000000000000000000000000000000000000000000000000815260040161166690613670565b60405180910390fd5b8281036065600086815260200190815260200160002060008773ffffffffffffffffffffffffffffffffffffffff1673ffffffffffffffffffffffffffffffffffffffff16815260200190815260200160002081905550600073ffffffffffffffffffffffffffffffffffffffff168573ffffffffffffffffffffffffffffffffffffffff168373ffffffffffffffffffffffffffffffffffffffff167fc3d58168c5ae7397731d063d5bbf3d657854427343f4c083240f7aacaa2d0f62878760405161173d929190613690565b60405180910390a45050505050565b50505050565b61175a6107d6565b1561179a576040517f08c379a000000000000000000000000000000000000000000000000000000000815260040161179190613705565b60405180910390fd5b6001609760006101000a81548160ff0219169083151502179055507f62e78cea01bee320cd4e420270b5ea74000d11b0c9f74754ebdbfc544b05a2586117de611140565b6040516117eb9190612aeb565b60405180910390a1565b600073ffffffffffffffffffffffffffffffffffffffff168473ffffffffffffffffffffffffffffffffffffffff161415611865576040517f08c379a000000000000000000000000000000000000000000000000000000000815260040161185c90613797565b60405180910390fd5b600061186f611140565b90506118908160008761188188611f63565b61188a88611f63565b87611d83565b826065600086815260200190815260200160002060008773ffffffffffffffffffffffffffffffffffffffff1673ffffffffffffffffffffffffffffffffffffffff16815260200190815260200160002060008282546118f091906134df565b925050819055508473ffffffffffffffffffffffffffffffffffffffff16600073ffffffffffffffffffffffffffffffffffffffff168273ffffffffffffffffffffffffffffffffffffffff167fc3d58168c5ae7397731d063d5bbf3d657854427343f4c083240f7aacaa2d0f62878760405161196e929190613690565b60405180910390a461198581600087878787611fdd565b5050505050565b505050565b8173ffffffffffffffffffffffffffffffffffffffff168373ffffffffffffffffffffffffffffffffffffffff161415611a00576040517f08c379a00000000000000000000000000000000000000000000000000000000081526004016119f790613829565b60405180910390fd5b80606660008573ffffffffffffffffffffffffffffffffffffffff1673ffffffffffffffffffffffffffffffffffffffff16815260200190815260200160002060008473ffffffffffffffffffffffffffffffffffffffff1673ffffffffffffffffffffffffffffffffffffffff16815260200190815260200160002060006101000a81548160ff0219169083151502179055508173ffffffffffffffffffffffffffffffffffffffff168373ffffffffffffffffffffffffffffffffffffffff167f17307eab39ab6107e8899845ad3d59bd9653f200f220920489ca2b5937696c3183604051611af1919061245b565b60405180910390a3505050565b600073ffffffffffffffffffffffffffffffffffffffff168473ffffffffffffffffffffffffffffffffffffffff161415611b6e576040517f08c379a0000000000000000000000000000000000000000000000000000000008152600401611b659061342d565b60405180910390fd5b6000611b78611140565b9050611b98818787611b8988611f63565b611b9288611f63565b87611d83565b60006065600086815260200190815260200160002060008873ffffffffffffffffffffffffffffffffffffffff1673ffffffffffffffffffffffffffffffffffffffff16815260200190815260200160002054905083811015611c30576040517f08c379a0000000000000000000000000000000000000000000000000000000008152600401611c27906134bf565b60405180910390fd5b8381036065600087815260200190815260200160002060008973ffffffffffffffffffffffffffffffffffffffff1673ffffffffffffffffffffffffffffffffffffffff16815260200190815260200160002081905550836065600087815260200190815260200160002060008873ffffffffffffffffffffffffffffffffffffffff1673ffffffffffffffffffffffffffffffffffffffff1681526020019081526020016000206000828254611ce791906134df565b925050819055508573ffffffffffffffffffffffffffffffffffffffff168773ffffffffffffffffffffffffffffffffffffffff168373ffffffffffffffffffffffffffffffffffffffff167fc3d58168c5ae7397731d063d5bbf3d657854427343f4c083240f7aacaa2d0f628888604051611d64929190613690565b60405180910390a4611d7a828888888888611fdd565b50505050505050565b505050505050565b611daa8473ffffffffffffffffffffffffffffffffffffffff166121b5565b15611f5b578373ffffffffffffffffffffffffffffffffffffffff1663bc197c8187878686866040518663ffffffff1660e01b8152600401611df095949392919061389e565b6020604051808303816000875af1925050508015611e2c57506040513d601f19601f82011682018060405250810190611e29919061391b565b60015b611ed257611e38613955565b806308c379a01415611e955750611e4d613977565b80611e585750611e97565b806040517f08c379a0000000000000000000000000000000000000000000000000000000008152600401611e8c919061253c565b60405180910390fd5b505b6040517f08c379a0000000000000000000000000000000000000000000000000000000008152600401611ec990613a7f565b60405180910390fd5b63bc197c8160e01b7bffffffffffffffffffffffffffffffffffffffffffffffffffffffff1916817bffffffffffffffffffffffffffffffffffffffffffffffffffffffff191614611f59576040517f08c379a0000000000000000000000000000000000000000000000000000000008152600401611f5090613b11565b60405180910390fd5b505b505050505050565b60606000600167ffffffffffffffff811115611f8257611f81612563565b5b604051908082528060200260200182016040528015611fb05781602001602082028036833780820191505090505b5090508281600081518110611fc857611fc7612ff4565b5b60200260200101818152505080915050919050565b611ffc8473ffffffffffffffffffffffffffffffffffffffff166121b5565b156121ad578373ffffffffffffffffffffffffffffffffffffffff1663f23a6e6187878686866040518663ffffffff1660e01b8152600401612042959493929190613b31565b6020604051808303816000875af192505050801561207e57506040513d601f19601f8201168201806040525081019061207b919061391b565b60015b6121245761208a613955565b806308c379a014156120e7575061209f613977565b806120aa57506120e9565b806040517f08c379a00000000000000000000000000000000000000000000000000000000081526004016120de919061253c565b60405180910390fd5b505b6040517f08c379a000000000000000000000000000000000000000000000000000000000815260040161211b90613a7f565b60405180910390fd5b63f23a6e6160e01b7bffffffffffffffffffffffffffffffffffffffffffffffffffffffff1916817bffffffffffffffffffffffffffffffffffffffffffffffffffffffff1916146121ab576040517f08c379a00000000000000000000000000000000000000000000000000000000081526004016121a290613b11565b60405180910390fd5b505b505050505050565b600080823b905060008111915050919050565b6040518060800160405280600073ffffffffffffffffffffffffffffffffffffffff1681526020016000815260200160008152602001606081525090565b82805461221290612e9e565b90600052602060002090601f016020900481019282612234576000855561227b565b82601f1061224d57805160ff191683800117855561227b565b8280016001018555821561227b579182015b8281111561227a57825182559160200191906001019061225f565b5b509050612288919061228c565b5090565b5b808211156122a557600081600090555060010161228d565b5090565b6000604051905090565b600080fd5b600080fd5b600073ffffffffffffffffffffffffffffffffffffffff82169050919050565b60006122e8826122bd565b9050919050565b6122f8816122dd565b811461230357600080fd5b50565b600081359050612315816122ef565b92915050565b6000819050919050565b61232e8161231b565b811461233957600080fd5b50565b60008135905061234b81612325565b92915050565b60008060408385031215612368576123676122b3565b5b600061237685828601612306565b92505060206123878582860161233c565b9150509250929050565b61239a8161231b565b82525050565b60006020820190506123b56000830184612391565b92915050565b60007fffffffff0000000000000000000000000000000000000000000000000000000082169050919050565b6123f0816123bb565b81146123fb57600080fd5b50565b60008135905061240d816123e7565b92915050565b600060208284031215612429576124286122b3565b5b6000612437848285016123fe565b91505092915050565b60008115159050919050565b61245581612440565b82525050565b6000602082019050612470600083018461244c565b92915050565b60006020828403121561248c5761248b6122b3565b5b600061249a8482850161233c565b91505092915050565b600081519050919050565b600082825260208201905092915050565b60005b838110156124dd5780820151818401526020810190506124c2565b838111156124ec576000848401525b50505050565b6000601f19601f8301169050919050565b600061250e826124a3565b61251881856124ae565b93506125288185602086016124bf565b612531816124f2565b840191505092915050565b600060208201905081810360008301526125568184612503565b905092915050565b600080fd5b7f4e487b7100000000000000000000000000000000000000000000000000000000600052604160045260246000fd5b61259b826124f2565b810181811067ffffffffffffffff821117156125ba576125b9612563565b5b80604052505050565b60006125cd6122a9565b90506125d98282612592565b919050565b600067ffffffffffffffff8211156125f9576125f8612563565b5b602082029050602081019050919050565b600080fd5b600061262261261d846125de565b6125c3565b905080838252602082019050602084028301858111156126455761264461260a565b5b835b8181101561266e578061265a888261233c565b845260208401935050602081019050612647565b5050509392505050565b600082601f83011261268d5761268c61255e565b5b813561269d84826020860161260f565b91505092915050565b600080fd5b600067ffffffffffffffff8211156126c6576126c5612563565b5b6126cf826124f2565b9050602081019050919050565b82818337600083830152505050565b60006126fe6126f9846126ab565b6125c3565b90508281526020810184848401111561271a576127196126a6565b5b6127258482856126dc565b509392505050565b600082601f8301126127425761274161255e565b5b81356127528482602086016126eb565b91505092915050565b600080600080600060a08688031215612777576127766122b3565b5b600061278588828901612306565b955050602061279688828901612306565b945050604086013567ffffffffffffffff8111156127b7576127b66122b8565b5b6127c388828901612678565b935050606086013567ffffffffffffffff8111156127e4576127e36122b8565b5b6127f088828901612678565b925050608086013567ffffffffffffffff811115612811576128106122b8565b5b61281d8882890161272d565b9150509295509295909350565b600067ffffffffffffffff82111561284557612844612563565b5b602082029050602081019050919050565b60006128696128648461282a565b6125c3565b9050808382526020820190506020840283018581111561288c5761288b61260a565b5b835b818110156128b557806128a18882612306565b84526020840193505060208101905061288e565b5050509392505050565b600082601f8301126128d4576128d361255e565b5b81356128e4848260208601612856565b91505092915050565b60008060408385031215612904576129036122b3565b5b600083013567ffffffffffffffff811115612922576129216122b8565b5b61292e858286016128bf565b925050602083013567ffffffffffffffff81111561294f5761294e6122b8565b5b61295b85828601612678565b9150509250929050565b600081519050919050565b600082825260208201905092915050565b6000819050602082019050919050565b61299a8161231b565b82525050565b60006129ac8383612991565b60208301905092915050565b6000602082019050919050565b60006129d082612965565b6129da8185612970565b93506129e583612981565b8060005b83811015612a165781516129fd88826129a0565b9750612a08836129b8565b9250506001810190506129e9565b5085935050505092915050565b60006020820190508181036000830152612a3d81846129c5565b905092915050565b600080600080600060a08688031215612a6157612a606122b3565b5b6000612a6f88828901612306565b9550506020612a8088828901612306565b9450506040612a918882890161233c565b9350506060612aa28882890161233c565b925050608086013567ffffffffffffffff811115612ac357612ac26122b8565b5b612acf8882890161272d565b9150509295509295909350565b612ae5816122dd565b82525050565b6000602082019050612b006000830184612adc565b92915050565b600080600060608486031215612b1f57612b1e6122b3565b5b6000612b2d8682870161233c565b9350506020612b3e8682870161233c565b9250506040612b4f86828701612306565b9150509250925092565b600067ffffffffffffffff821115612b7457612b73612563565b5b612b7d826124f2565b9050602081019050919050565b6000612b9d612b9884612b59565b6125c3565b905082815260208101848484011115612bb957612bb86126a6565b5b612bc48482856126dc565b509392505050565b600082601f830112612be157612be061255e565b5b8135612bf1848260208601612b8a565b91505092915050565b600080600080600080600060e0888a031215612c1957612c186122b3565b5b6000612c278a828b01612306565b9750506020612c388a828b0161233c565b9650506040612c498a828b0161233c565b9550506060612c5a8a828b0161233c565b9450506080612c6b8a828b0161233c565b93505060a0612c7c8a828b01612306565b92505060c088013567ffffffffffffffff811115612c9d57612c9c6122b8565b5b612ca98a828b01612bcc565b91505092959891949750929550565b612cc181612440565b8114612ccc57600080fd5b50565b600081359050612cde81612cb8565b92915050565b60008060408385031215612cfb57612cfa6122b3565b5b6000612d0985828601612306565b9250506020612d1a85828601612ccf565b9150509250929050565b6000608082019050612d396000830187612adc565b612d466020830186612391565b612d536040830185612391565b8181036060830152612d658184612503565b905095945050505050565b60008060408385031215612d8757612d866122b3565b5b6000612d9585828601612306565b9250506020612da685828601612306565b9150509250929050565b600060208284031215612dc657612dc56122b3565b5b6000612dd484828501612306565b91505092915050565b7f455243313135353a2062616c616e636520717565727920666f7220746865207a60008201527f65726f2061646472657373000000000000000000000000000000000000000000602082015250565b6000612e39602b836124ae565b9150612e4482612ddd565b604082019050919050565b60006020820190508181036000830152612e6881612e2c565b9050919050565b7f4e487b7100000000000000000000000000000000000000000000000000000000600052602260045260246000fd5b60006002820490506001821680612eb657607f821691505b60208210811415612eca57612ec9612e6f565b5b50919050565b7f455243313135353a207472616e736665722063616c6c6572206973206e6f742060008201527f6f776e6572206e6f7220617070726f7665640000000000000000000000000000602082015250565b6000612f2c6032836124ae565b9150612f3782612ed0565b604082019050919050565b60006020820190508181036000830152612f5b81612f1f565b9050919050565b7f455243313135353a206163636f756e747320616e6420696473206c656e67746860008201527f206d69736d617463680000000000000000000000000000000000000000000000602082015250565b6000612fbe6029836124ae565b9150612fc982612f62565b604082019050919050565b60006020820190508181036000830152612fed81612fb1565b9050919050565b7f4e487b7100000000000000000000000000000000000000000000000000000000600052603260045260246000fd5b7f4e487b7100000000000000000000000000000000000000000000000000000000600052601160045260246000fd5b600061305d8261231b565b91507fffffffffffffffffffffffffffffffffffffffffffffffffffffffffffffffff8214156130905761308f613023565b5b600182019050919050565b7f4e6f7420616c6c6f776564207768696c65207061757365640000000000000000600082015250565b60006130d16018836124ae565b91506130dc8261309b565b602082019050919050565b60006020820190508181036000830152613100816130c4565b9050919050565b7f4f776e61626c653a2063616c6c6572206973206e6f7420746865206f776e6572600082015250565b600061313d6020836124ae565b915061314882613107565b602082019050919050565b6000602082019050818103600083015261316c81613130565b9050919050565b7f7472616e7366657265722068617320746f206f776e20657175616c206f72206d60008201527f6f726520736861726573207468616e2074686520676976656e20616d6f756e74602082015250565b60006131cf6040836124ae565b91506131da82613173565b604082019050919050565b600060208201905081810360008301526131fe816131c2565b9050919050565b7f455243313135353a2063616c6c6572206973206e6f74206f776e6572206e6f7260008201527f20617070726f7665640000000000000000000000000000000000000000000000602082015250565b60006132616029836124ae565b915061326c82613205565b604082019050919050565b6000602082019050818103600083015261329081613254565b9050919050565b7f4f776e61626c653a206e6577206f776e657220697320746865207a65726f206160008201527f6464726573730000000000000000000000000000000000000000000000000000602082015250565b60006132f36026836124ae565b91506132fe82613297565b604082019050919050565b60006020820190508181036000830152613322816132e6565b9050919050565b7f455243313135353a2069647320616e6420616d6f756e7473206c656e6774682060008201527f6d69736d61746368000000000000000000000000000000000000000000000000602082015250565b60006133856028836124ae565b915061339082613329565b604082019050919050565b600060208201905081810360008301526133b481613378565b9050919050565b7f455243313135353a207472616e7366657220746f20746865207a65726f20616460008201527f6472657373000000000000000000000000000000000000000000000000000000602082015250565b60006134176025836124ae565b9150613422826133bb565b604082019050919050565b600060208201905081810360008301526134468161340a565b9050919050565b7f455243313135353a20696e73756666696369656e742062616c616e636520666f60008201527f72207472616e7366657200000000000000000000000000000000000000000000602082015250565b60006134a9602a836124ae565b91506134b48261344d565b604082019050919050565b600060208201905081810360008301526134d88161349c565b9050919050565b60006134ea8261231b565b91506134f58361231b565b9250827fffffffffffffffffffffffffffffffffffffffffffffffffffffffffffffffff0382111561352a57613529613023565b5b828201905092915050565b6000604082019050818103600083015261354f81856129c5565b9050818103602083015261356381846129c5565b90509392505050565b7f455243313135353a206275726e2066726f6d20746865207a65726f206164647260008201527f6573730000000000000000000000000000000000000000000000000000000000602082015250565b60006135c86023836124ae565b91506135d38261356c565b604082019050919050565b600060208201905081810360008301526135f7816135bb565b9050919050565b7f455243313135353a206275726e20616d6f756e7420657863656564732062616c60008201527f616e636500000000000000000000000000000000000000000000000000000000602082015250565b600061365a6024836124ae565b9150613665826135fe565b604082019050919050565b600060208201905081810360008301526136898161364d565b9050919050565b60006040820190506136a56000830185612391565b6136b26020830184612391565b9392505050565b7f5061757361626c653a2070617573656400000000000000000000000000000000600082015250565b60006136ef6010836124ae565b91506136fa826136b9565b602082019050919050565b6000602082019050818103600083015261371e816136e2565b9050919050565b7f455243313135353a206d696e7420746f20746865207a65726f2061646472657360008201527f7300000000000000000000000000000000000000000000000000000000000000602082015250565b60006137816021836124ae565b915061378c82613725565b604082019050919050565b600060208201905081810360008301526137b081613774565b9050919050565b7f455243313135353a2073657474696e6720617070726f76616c2073746174757360008201527f20666f722073656c660000000000000000000000000000000000000000000000602082015250565b60006138136029836124ae565b915061381e826137b7565b604082019050919050565b6000602082019050818103600083015261384281613806565b9050919050565b600081519050919050565b600082825260208201905092915050565b600061387082613849565b61387a8185613854565b935061388a8185602086016124bf565b613893816124f2565b840191505092915050565b600060a0820190506138b36000830188612adc565b6138c06020830187612adc565b81810360408301526138d281866129c5565b905081810360608301526138e681856129c5565b905081810360808301526138fa8184613865565b90509695505050505050565b600081519050613915816123e7565b92915050565b600060208284031215613931576139306122b3565b5b600061393f84828501613906565b91505092915050565b60008160e01c9050919050565b600060033d11156139745760046000803e613971600051613948565b90505b90565b600060443d101561398757613a0a565b61398f6122a9565b60043d036004823e80513d602482011167ffffffffffffffff821117156139b7575050613a0a565b808201805167ffffffffffffffff8111156139d55750505050613a0a565b80602083010160043d0385018111156139f2575050505050613a0a565b613a0182602001850186612592565b82955050505050505b90565b7f455243313135353a207472616e7366657220746f206e6f6e204552433131353560008201527f526563656976657220696d706c656d656e746572000000000000000000000000602082015250565b6000613a696034836124ae565b9150613a7482613a0d565b604082019050919050565b60006020820190508181036000830152613a9881613a5c565b9050919050565b7f455243313135353a204552433131353552656365697665722072656a6563746560008201527f6420746f6b656e73000000000000000000000000000000000000000000000000602082015250565b6000613afb6028836124ae565b9150613b0682613a9f565b604082019050919050565b60006020820190508181036000830152613b2a81613aee565b9050919050565b600060a082019050613b466000830188612adc565b613b536020830187612adc565b613b606040830186612391565b613b6d6060830185612391565b8181036080830152613b7f8184613865565b9050969550505050505056fea2646970667358221220cae7fddf5ff6f1e269cc67e931b8b61b2158a71353fd12009b9a92f5ab6ad6d664736f6c634300080a0033",
  "immutableReferences": {},
  "source": "// SPDX-License-Identifier: MIT\n\npragma solidity ^0.8.0;\n\nimport \"@openzeppelin/contracts-upgradeable/token/ERC1155/ERC1155Upgradeable.sol\";\nimport \"@openzeppelin/contracts-upgradeable/security/PausableUpgradeable.sol\";\nimport \"@openzeppelin/contracts-upgradeable/proxy/utils/Initializable.sol\";\nimport \"@openzeppelin/contracts/token/ERC721/extensions/ERC721URIStorage.sol\";\nimport \"@openzeppelin/contracts-upgradeable/access/OwnableUpgradeable.sol\";\nimport \"./INftFractionsRepository.sol\";\n\ncontract NftFractionsRepositoryBase is Initializable, ERC1155Upgradeable, PausableUpgradeable, OwnableUpgradeable, INftFractionsRepository {\n\n  struct Token {\n    address erc721ContractAddress;\n    uint256 erc721TokenId;\n    uint256 totalFractionsAmount;\n    string tokenURI;\n  }\n\n  mapping(uint256 => Token) internal tokens;\n\n  function __NftFractionsRepositoryBase_init(string memory uri_) internal initializer {\n    __Context_init_unchained();\n    __ERC165_init_unchained();\n    __Pausable_init_unchained();\n    __ERC1155_init_unchained(uri_);\n    __Ownable_init_unchained();\n  }\n\n  function burn(uint256 tokenId, uint256 amount, address transferer) external override onlyOwner() {\n    require(!paused(), \"Not allowed while paused\");\n    uint256 transfererAmount = balanceOf(transferer, tokenId);\n    require(transfererAmount >= amount, \"transferer has to own equal or more shares than the given amount\");\n    _burn(transferer, tokenId, amount);\n    _afterBurn(tokenId, amount, transferer, transfererAmount);\n  }\n\n  function mint(address erc721ContractAddress, uint256 erc721TokenId, uint256 erc1155TokenId, uint256 erc1155Amount, uint256 totalFractionsAmount, address transferer, string memory tokenURI) external override onlyOwner() {\n    require(!paused(), \"Not allowed while paused\");\n    _mint(transferer, erc1155TokenId, erc1155Amount, \"\");\n\n    bool existingToken = true;\n    if (tokens[erc1155TokenId].erc721ContractAddress == address(0)) {\n      Token memory token;\n      token.erc721ContractAddress = erc721ContractAddress;\n      token.erc721TokenId = erc721TokenId;\n      token.totalFractionsAmount = totalFractionsAmount;\n      token.tokenURI = tokenURI;\n      tokens[erc1155TokenId] = token;\n      existingToken = false;\n    }\n\n    _afterMint(erc1155TokenId, transferer, existingToken);\n  }\n\n  function transferFrom(address from, address to, uint256 id, uint256 amount, bytes memory data) external override {\n    require(!paused(), \"Not allowed while paused\");\n    uint256 fromBalanceBefore = balanceOf(from, id);\n    uint256 toBalanceBefore = balanceOf(to, id);\n    safeTransferFrom(from, to, id, amount, data);\n    _afterTransferFrom(from, to, id, amount, fromBalanceBefore, toBalanceBefore);\n  }\n\n  function getTokenData(uint256 _tokenId) public view returns (address erc721ContractAddress, uint256 erc721TokenId, uint256 totalFractinsAmount, string memory tokenURL) {\n    return (tokens[_tokenId].erc721ContractAddress, tokens[_tokenId].erc721TokenId, tokens[_tokenId].totalFractionsAmount, tokens[_tokenId].tokenURI);\n  }\n\n  function getTotalFractionsAmount(uint256 _tokenId) external view override returns (uint256) {\n    return (tokens[_tokenId].totalFractionsAmount);\n  }\n\n  function getErc721ContractAddress(uint256 _tokenId) external view override returns (address) {\n    return (tokens[_tokenId].erc721ContractAddress);\n  }\n\n  function pause() public onlyOwner() {\n    _pause();\n  }\n\n  function _afterBurn(uint256 tokenId, uint256 amount, address transferer, uint256 transferersAmount) internal virtual {}\n\n  function _afterMint(uint256 erc1155TokenId, address transferer, bool existingToken) internal virtual {}\n\n  function _afterTransferFrom(address from, address to, uint256 id, uint256 amount, uint256 fromBalanceBefore, uint256 toBalanceBefore) internal virtual {}\n}",
  "sourcePath": "/home/janus/work/react.js-solidity_nft-fractions-dex/contracts/NftFractionsRepositoryBase.sol",
  "compiler": {
    "name": "solc",
    "version": "0.8.10+commit.fc410830.Emscripten.clang"
  },
  "schemaVersion": "3.4.3",
  "updatedAt": "2021-12-20T05:12:28.244Z",
  "devdoc": {
    "kind": "dev",
    "methods": {
      "balanceOf(address,uint256)": {
        "details": "See {IERC1155-balanceOf}. Requirements: - `account` cannot be the zero address."
      },
      "balanceOfBatch(address[],uint256[])": {
        "details": "See {IERC1155-balanceOfBatch}. Requirements: - `accounts` and `ids` must have the same length."
      },
      "isApprovedForAll(address,address)": {
        "details": "See {IERC1155-isApprovedForAll}."
      },
      "owner()": {
        "details": "Returns the address of the current owner."
      },
      "paused()": {
        "details": "Returns true if the contract is paused, and false otherwise."
      },
      "renounceOwnership()": {
        "details": "Leaves the contract without owner. It will not be possible to call `onlyOwner` functions anymore. Can only be called by the current owner. NOTE: Renouncing ownership will leave the contract without an owner, thereby removing any functionality that is only available to the owner."
      },
      "safeBatchTransferFrom(address,address,uint256[],uint256[],bytes)": {
        "details": "See {IERC1155-safeBatchTransferFrom}."
      },
      "safeTransferFrom(address,address,uint256,uint256,bytes)": {
        "details": "See {IERC1155-safeTransferFrom}."
      },
      "setApprovalForAll(address,bool)": {
        "details": "See {IERC1155-setApprovalForAll}."
      },
      "supportsInterface(bytes4)": {
        "details": "See {IERC165-supportsInterface}."
      },
      "transferOwnership(address)": {
        "details": "Transfers ownership of the contract to a new account (`newOwner`). Can only be called by the current owner."
      },
      "uri(uint256)": {
        "details": "See {IERC1155MetadataURI-uri}. This implementation returns the same URI for *all* token types. It relies on the token type ID substitution mechanism https://eips.ethereum.org/EIPS/eip-1155#metadata[defined in the EIP]. Clients calling this function must replace the `\\{id\\}` substring with the actual token type ID."
      }
    },
    "version": 1
  },
  "userdoc": {
    "kind": "user",
    "methods": {},
    "version": 1
  }
}