{
  "contractName": "BscNftFractionsRepository",
  "abi": [
    {
      "anonymous": false,
      "inputs": [
        {
          "indexed": true,
          "internalType": "address",
          "name": "account",
          "type": "address"
        },
        {
          "indexed": true,
          "internalType": "address",
          "name": "operator",
          "type": "address"
        },
        {
          "indexed": false,
          "internalType": "bool",
          "name": "approved",
          "type": "bool"
        }
      ],
      "name": "ApprovalForAll",
      "type": "event"
    },
    {
      "anonymous": false,
      "inputs": [
        {
          "indexed": true,
          "internalType": "address",
          "name": "previousOwner",
          "type": "address"
        },
        {
          "indexed": true,
          "internalType": "address",
          "name": "newOwner",
          "type": "address"
        }
      ],
      "name": "OwnershipTransferred",
      "type": "event"
    },
    {
      "anonymous": false,
      "inputs": [
        {
          "indexed": false,
          "internalType": "address",
          "name": "account",
          "type": "address"
        }
      ],
      "name": "Paused",
      "type": "event"
    },
    {
      "anonymous": false,
      "inputs": [
        {
          "indexed": true,
          "internalType": "address",
          "name": "operator",
          "type": "address"
        },
        {
          "indexed": true,
          "internalType": "address",
          "name": "from",
          "type": "address"
        },
        {
          "indexed": true,
          "internalType": "address",
          "name": "to",
          "type": "address"
        },
        {
          "indexed": false,
          "internalType": "uint256[]",
          "name": "ids",
          "type": "uint256[]"
        },
        {
          "indexed": false,
          "internalType": "uint256[]",
          "name": "values",
          "type": "uint256[]"
        }
      ],
      "name": "TransferBatch",
      "type": "event"
    },
    {
      "anonymous": false,
      "inputs": [
        {
          "indexed": true,
          "internalType": "address",
          "name": "operator",
          "type": "address"
        },
        {
          "indexed": true,
          "internalType": "address",
          "name": "from",
          "type": "address"
        },
        {
          "indexed": true,
          "internalType": "address",
          "name": "to",
          "type": "address"
        },
        {
          "indexed": false,
          "internalType": "uint256",
          "name": "id",
          "type": "uint256"
        },
        {
          "indexed": false,
          "internalType": "uint256",
          "name": "value",
          "type": "uint256"
        }
      ],
      "name": "TransferSingle",
      "type": "event"
    },
    {
      "anonymous": false,
      "inputs": [
        {
          "indexed": false,
          "internalType": "string",
          "name": "value",
          "type": "string"
        },
        {
          "indexed": true,
          "internalType": "uint256",
          "name": "id",
          "type": "uint256"
        }
      ],
      "name": "URI",
      "type": "event"
    },
    {
      "anonymous": false,
      "inputs": [
        {
          "indexed": false,
          "internalType": "address",
          "name": "account",
          "type": "address"
        }
      ],
      "name": "Unpaused",
      "type": "event"
    },
    {
      "inputs": [
        {
          "internalType": "address",
          "name": "account",
          "type": "address"
        },
        {
          "internalType": "uint256",
          "name": "id",
          "type": "uint256"
        }
      ],
      "name": "balanceOf",
      "outputs": [
        {
          "internalType": "uint256",
          "name": "",
          "type": "uint256"
        }
      ],
      "stateMutability": "view",
      "type": "function"
    },
    {
      "inputs": [
        {
          "internalType": "address[]",
          "name": "accounts",
          "type": "address[]"
        },
        {
          "internalType": "uint256[]",
          "name": "ids",
          "type": "uint256[]"
        }
      ],
      "name": "balanceOfBatch",
      "outputs": [
        {
          "internalType": "uint256[]",
          "name": "",
          "type": "uint256[]"
        }
      ],
      "stateMutability": "view",
      "type": "function"
    },
    {
      "inputs": [
        {
          "internalType": "uint256",
          "name": "tokenId",
          "type": "uint256"
        },
        {
          "internalType": "uint256",
          "name": "amount",
          "type": "uint256"
        },
        {
          "internalType": "address",
          "name": "transferer",
          "type": "address"
        }
      ],
      "name": "burn",
      "outputs": [],
      "stateMutability": "nonpayable",
      "type": "function"
    },
    {
      "inputs": [
        {
          "internalType": "uint256",
          "name": "_tokenId",
          "type": "uint256"
        }
      ],
      "name": "getErc721ContractAddress",
      "outputs": [
        {
          "internalType": "address",
          "name": "",
          "type": "address"
        }
      ],
      "stateMutability": "view",
      "type": "function"
    },
    {
      "inputs": [
        {
          "internalType": "uint256",
          "name": "_tokenId",
          "type": "uint256"
        }
      ],
      "name": "getTokenData",
      "outputs": [
        {
          "internalType": "address",
          "name": "erc721ContractAddress",
          "type": "address"
        },
        {
          "internalType": "uint256",
          "name": "erc721TokenId",
          "type": "uint256"
        },
        {
          "internalType": "uint256",
          "name": "totalFractinsAmount",
          "type": "uint256"
        },
        {
          "internalType": "string",
          "name": "tokenURL",
          "type": "string"
        }
      ],
      "stateMutability": "view",
      "type": "function"
    },
    {
      "inputs": [
        {
          "internalType": "uint256",
          "name": "_tokenId",
          "type": "uint256"
        }
      ],
      "name": "getTotalFractionsAmount",
      "outputs": [
        {
          "internalType": "uint256",
          "name": "",
          "type": "uint256"
        }
      ],
      "stateMutability": "view",
      "type": "function"
    },
    {
      "inputs": [
        {
          "internalType": "address",
          "name": "account",
          "type": "address"
        },
        {
          "internalType": "address",
          "name": "operator",
          "type": "address"
        }
      ],
      "name": "isApprovedForAll",
      "outputs": [
        {
          "internalType": "bool",
          "name": "",
          "type": "bool"
        }
      ],
      "stateMutability": "view",
      "type": "function"
    },
    {
      "inputs": [
        {
          "internalType": "address",
          "name": "erc721ContractAddress",
          "type": "address"
        },
        {
          "internalType": "uint256",
          "name": "erc721TokenId",
          "type": "uint256"
        },
        {
          "internalType": "uint256",
          "name": "erc1155TokenId",
          "type": "uint256"
        },
        {
          "internalType": "uint256",
          "name": "erc1155Amount",
          "type": "uint256"
        },
        {
          "internalType": "uint256",
          "name": "totalFractionsAmount",
          "type": "uint256"
        },
        {
          "internalType": "address",
          "name": "transferer",
          "type": "address"
        },
        {
          "internalType": "string",
          "name": "tokenURI",
          "type": "string"
        }
      ],
      "name": "mint",
      "outputs": [],
      "stateMutability": "nonpayable",
      "type": "function"
    },
    {
      "inputs": [],
      "name": "owner",
      "outputs": [
        {
          "internalType": "address",
          "name": "",
          "type": "address"
        }
      ],
      "stateMutability": "view",
      "type": "function"
    },
    {
      "inputs": [],
      "name": "pause",
      "outputs": [],
      "stateMutability": "nonpayable",
      "type": "function"
    },
    {
      "inputs": [],
      "name": "paused",
      "outputs": [
        {
          "internalType": "bool",
          "name": "",
          "type": "bool"
        }
      ],
      "stateMutability": "view",
      "type": "function"
    },
    {
      "inputs": [],
      "name": "renounceOwnership",
      "outputs": [],
      "stateMutability": "nonpayable",
      "type": "function"
    },
    {
      "inputs": [
        {
          "internalType": "address",
          "name": "from",
          "type": "address"
        },
        {
          "internalType": "address",
          "name": "to",
          "type": "address"
        },
        {
          "internalType": "uint256[]",
          "name": "ids",
          "type": "uint256[]"
        },
        {
          "internalType": "uint256[]",
          "name": "amounts",
          "type": "uint256[]"
        },
        {
          "internalType": "bytes",
          "name": "data",
          "type": "bytes"
        }
      ],
      "name": "safeBatchTransferFrom",
      "outputs": [],
      "stateMutability": "nonpayable",
      "type": "function"
    },
    {
      "inputs": [
        {
          "internalType": "address",
          "name": "from",
          "type": "address"
        },
        {
          "internalType": "address",
          "name": "to",
          "type": "address"
        },
        {
          "internalType": "uint256",
          "name": "id",
          "type": "uint256"
        },
        {
          "internalType": "uint256",
          "name": "amount",
          "type": "uint256"
        },
        {
          "internalType": "bytes",
          "name": "data",
          "type": "bytes"
        }
      ],
      "name": "safeTransferFrom",
      "outputs": [],
      "stateMutability": "nonpayable",
      "type": "function"
    },
    {
      "inputs": [
        {
          "internalType": "address",
          "name": "operator",
          "type": "address"
        },
        {
          "internalType": "bool",
          "name": "approved",
          "type": "bool"
        }
      ],
      "name": "setApprovalForAll",
      "outputs": [],
      "stateMutability": "nonpayable",
      "type": "function"
    },
    {
      "inputs": [
        {
          "internalType": "bytes4",
          "name": "interfaceId",
          "type": "bytes4"
        }
      ],
      "name": "supportsInterface",
      "outputs": [
        {
          "internalType": "bool",
          "name": "",
          "type": "bool"
        }
      ],
      "stateMutability": "view",
      "type": "function"
    },
    {
      "inputs": [
        {
          "internalType": "address",
          "name": "from",
          "type": "address"
        },
        {
          "internalType": "address",
          "name": "to",
          "type": "address"
        },
        {
          "internalType": "uint256",
          "name": "id",
          "type": "uint256"
        },
        {
          "internalType": "uint256",
          "name": "amount",
          "type": "uint256"
        },
        {
          "internalType": "bytes",
          "name": "data",
          "type": "bytes"
        }
      ],
      "name": "transferFrom",
      "outputs": [],
      "stateMutability": "nonpayable",
      "type": "function"
    },
    {
      "inputs": [
        {
          "internalType": "address",
          "name": "newOwner",
          "type": "address"
        }
      ],
      "name": "transferOwnership",
      "outputs": [],
      "stateMutability": "nonpayable",
      "type": "function"
    },
    {
      "inputs": [
        {
          "internalType": "uint256",
          "name": "",
          "type": "uint256"
        }
      ],
      "name": "uri",
      "outputs": [
        {
          "internalType": "string",
          "name": "",
          "type": "string"
        }
      ],
      "stateMutability": "view",
      "type": "function"
    },
    {
      "inputs": [
        {
          "internalType": "string",
          "name": "uri_",
          "type": "string"
        }
      ],
      "name": "initialize",
      "outputs": [],
      "stateMutability": "nonpayable",
      "type": "function"
    },
    {
      "inputs": [
        {
          "internalType": "address",
          "name": "shareOwner",
          "type": "address"
        }
      ],
      "name": "getTokenIdsByShareOwner",
      "outputs": [
        {
          "internalType": "uint256[]",
          "name": "",
          "type": "uint256[]"
        }
      ],
      "stateMutability": "view",
      "type": "function"
    },
    {
      "inputs": [
        {
          "internalType": "uint256",
          "name": "tokenId",
          "type": "uint256"
        }
      ],
      "name": "getOwnersByTokenId",
      "outputs": [
        {
          "internalType": "address[]",
          "name": "",
          "type": "address[]"
        }
      ],
      "stateMutability": "view",
      "type": "function"
    },
    {
      "inputs": [],
      "name": "getTokenIds",
      "outputs": [
        {
          "internalType": "uint256[]",
          "name": "",
          "type": "uint256[]"
        }
      ],
      "stateMutability": "view",
      "type": "function"
    }
  ],
  "bytecode": "0x608060405234801561001057600080fd5b50614f62806100206000396000f3fe608060405234801561001057600080fd5b506004361061014c5760003560e01c8063715018a6116100c3578063a7c29b5c1161007c578063a7c29b5c1461039b578063b09afec1146103cb578063e985e9c5146103fe578063f242432a1461042e578063f2fde38b1461044a578063f62d1888146104665761014c565b8063715018a614610315578063749388c41461031f5780638456cb591461033b5780638da5cb5b14610345578063971a584714610363578063a22cb4651461037f5761014c565b806333d592071161011557806333d592071461022d5780634e1273f41461025d5780635c975abb1461028d578063605105f0146102ab57806366d0330c146102c757806367f718a9146102f75761014c565b8062fdd58e1461015157806301ffc9a7146101815780630e89341c146101b1578063180e1ef8146101e15780632eb2c2d614610211575b600080fd5b61016b60048036038101906101669190613442565b610482565b6040516101789190613491565b60405180910390f35b61019b60048036038101906101969190613504565b61054c565b6040516101a8919061354c565b60405180910390f35b6101cb60048036038101906101c69190613567565b61062e565b6040516101d8919061362d565b60405180910390f35b6101fb60048036038101906101f6919061364f565b6106c2565b604051610208919061373a565b60405180910390f35b61022b60048036038101906102269190613959565b610759565b005b61024760048036038101906102429190613567565b6107fa565b6040516102549190613491565b60405180910390f35b61027760048036038101906102729190613aeb565b61081a565b604051610284919061373a565b60405180910390f35b610295610933565b6040516102a2919061354c565b60405180910390f35b6102c560048036038101906102c09190613b63565b61094a565b005b6102e160048036038101906102dc9190613567565b6109d2565b6040516102ee9190613c09565b60405180910390f35b6102ff610a12565b60405161030c919061373a565b60405180910390f35b61031d610a6a565b005b61033960048036038101906103349190613c24565b610af2565b005b610343610c24565b005b61034d610caa565b60405161035a9190613c09565b60405180910390f35b61037d60048036038101906103789190613d18565b610cd4565b005b61039960048036038101906103949190613e02565b610f2b565b005b6103b560048036038101906103b09190613567565b610f41565b6040516103c29190613f00565b60405180910390f35b6103e560048036038101906103e09190613567565b610fe2565b6040516103f59493929190613f22565b60405180910390f35b61041860048036038101906104139190613f6e565b6110ff565b604051610425919061354c565b60405180910390f35b61044860048036038101906104439190613b63565b611193565b005b610464600480360381019061045f919061364f565b611234565b005b610480600480360381019061047b9190613fae565b61132c565b005b60008073ffffffffffffffffffffffffffffffffffffffff168373ffffffffffffffffffffffffffffffffffffffff1614156104f3576040517f08c379a00000000000000000000000000000000000000000000000000000000081526004016104ea90614069565b60405180910390fd5b6065600083815260200190815260200160002060008473ffffffffffffffffffffffffffffffffffffffff1673ffffffffffffffffffffffffffffffffffffffff16815260200190815260200160002054905092915050565b60007fd9b67a26000000000000000000000000000000000000000000000000000000007bffffffffffffffffffffffffffffffffffffffffffffffffffffffff1916827bffffffffffffffffffffffffffffffffffffffffffffffffffffffff1916148061061757507f0e89341c000000000000000000000000000000000000000000000000000000007bffffffffffffffffffffffffffffffffffffffffffffffffffffffff1916827bffffffffffffffffffffffffffffffffffffffffffffffffffffffff1916145b8061062757506106268261141a565b5b9050919050565b60606067805461063d906140b8565b80601f0160208091040260200160405190810160405280929190818152602001828054610669906140b8565b80156106b65780601f1061068b576101008083540402835291602001916106b6565b820191906000526020600020905b81548152906001019060200180831161069957829003601f168201915b50505050509050919050565b606060fc60008373ffffffffffffffffffffffffffffffffffffffff1673ffffffffffffffffffffffffffffffffffffffff16815260200190815260200160002080548060200260200160405190810160405280929190818152602001828054801561074d57602002820191906000526020600020905b815481526020019060010190808311610739575b50505050509050919050565b610761611484565b73ffffffffffffffffffffffffffffffffffffffff168573ffffffffffffffffffffffffffffffffffffffff1614806107a757506107a6856107a1611484565b6110ff565b5b6107e6576040517f08c379a00000000000000000000000000000000000000000000000000000000081526004016107dd9061415c565b60405180910390fd5b6107f3858585858561148c565b5050505050565b600060fb6000838152602001908152602001600020600201549050919050565b60608151835114610860576040517f08c379a0000000000000000000000000000000000000000000000000000000008152600401610857906141ee565b60405180910390fd5b6000835167ffffffffffffffff81111561087d5761087c613761565b5b6040519080825280602002602001820160405280156108ab5781602001602082028036833780820191505090505b50905060005b8451811015610928576108f88582815181106108d0576108cf61420e565b5b60200260200101518583815181106108eb576108ea61420e565b5b6020026020010151610482565b82828151811061090b5761090a61420e565b5b602002602001018181525050806109219061426c565b90506108b1565b508091505092915050565b6000609760009054906101000a900460ff16905090565b610952610933565b15610992576040517f08c379a000000000000000000000000000000000000000000000000000000000815260040161098990614301565b60405180910390fd5b600061099e8685610482565b905060006109ac8686610482565b90506109bb8787878787611193565b6109c98787878786866117a3565b50505050505050565b600060fb600083815260200190815260200160002060000160009054906101000a900473ffffffffffffffffffffffffffffffffffffffff169050919050565b606060fe805480602002602001604051908101604052809291908181526020018280548015610a6057602002820191906000526020600020905b815481526020019060010190808311610a4c575b5050505050905090565b610a72611484565b73ffffffffffffffffffffffffffffffffffffffff16610a90610caa565b73ffffffffffffffffffffffffffffffffffffffff1614610ae6576040517f08c379a0000000000000000000000000000000000000000000000000000000008152600401610add9061436d565b60405180910390fd5b610af06000611a8a565b565b610afa611484565b73ffffffffffffffffffffffffffffffffffffffff16610b18610caa565b73ffffffffffffffffffffffffffffffffffffffff1614610b6e576040517f08c379a0000000000000000000000000000000000000000000000000000000008152600401610b659061436d565b60405180910390fd5b610b76610933565b15610bb6576040517f08c379a0000000000000000000000000000000000000000000000000000000008152600401610bad90614301565b60405180910390fd5b6000610bc28285610482565b905082811015610c07576040517f08c379a0000000000000000000000000000000000000000000000000000000008152600401610bfe906143ff565b60405180910390fd5b610c12828585611b50565b610c1e84848484611d6f565b50505050565b610c2c611484565b73ffffffffffffffffffffffffffffffffffffffff16610c4a610caa565b73ffffffffffffffffffffffffffffffffffffffff1614610ca0576040517f08c379a0000000000000000000000000000000000000000000000000000000008152600401610c979061436d565b60405180910390fd5b610ca8611d92565b565b600060c960009054906101000a900473ffffffffffffffffffffffffffffffffffffffff16905090565b610cdc611484565b73ffffffffffffffffffffffffffffffffffffffff16610cfa610caa565b73ffffffffffffffffffffffffffffffffffffffff1614610d50576040517f08c379a0000000000000000000000000000000000000000000000000000000008152600401610d479061436d565b60405180910390fd5b610d58610933565b15610d98576040517f08c379a0000000000000000000000000000000000000000000000000000000008152600401610d8f90614301565b60405180910390fd5b610db382868660405180602001604052806000815250611e35565b600060019050600073ffffffffffffffffffffffffffffffffffffffff1660fb600088815260200190815260200160002060000160009054906101000a900473ffffffffffffffffffffffffffffffffffffffff1673ffffffffffffffffffffffffffffffffffffffff161415610f1657610e2c6132b9565b88816000019073ffffffffffffffffffffffffffffffffffffffff16908173ffffffffffffffffffffffffffffffffffffffff168152505087816020018181525050848160400181815250508281606001819052508060fb600089815260200190815260200160002060008201518160000160006101000a81548173ffffffffffffffffffffffffffffffffffffffff021916908373ffffffffffffffffffffffffffffffffffffffff16021790555060208201518160010155604082015181600201556060820151816003019080519060200190610f0c9291906132f7565b5090505060009150505b610f21868483611fcc565b5050505050505050565b610f3d610f36611484565b838361238e565b5050565b606060fd6000838152602001908152602001600020805480602002602001604051908101604052809291908181526020018280548015610fd657602002820191906000526020600020905b8160009054906101000a900473ffffffffffffffffffffffffffffffffffffffff1673ffffffffffffffffffffffffffffffffffffffff1681526020019060010190808311610f8c575b50505050509050919050565b6000806000606060fb600086815260200190815260200160002060000160009054906101000a900473ffffffffffffffffffffffffffffffffffffffff1660fb60008781526020019081526020016000206001015460fb60008881526020019081526020016000206002015460fb6000898152602001908152602001600020600301808054611070906140b8565b80601f016020809104026020016040519081016040528092919081815260200182805461109c906140b8565b80156110e95780601f106110be576101008083540402835291602001916110e9565b820191906000526020600020905b8154815290600101906020018083116110cc57829003601f168201915b5050505050905093509350935093509193509193565b6000606660008473ffffffffffffffffffffffffffffffffffffffff1673ffffffffffffffffffffffffffffffffffffffff16815260200190815260200160002060008373ffffffffffffffffffffffffffffffffffffffff1673ffffffffffffffffffffffffffffffffffffffff16815260200190815260200160002060009054906101000a900460ff16905092915050565b61119b611484565b73ffffffffffffffffffffffffffffffffffffffff168573ffffffffffffffffffffffffffffffffffffffff1614806111e157506111e0856111db611484565b6110ff565b5b611220576040517f08c379a000000000000000000000000000000000000000000000000000000000815260040161121790614491565b60405180910390fd5b61122d85858585856124fb565b5050505050565b61123c611484565b73ffffffffffffffffffffffffffffffffffffffff1661125a610caa565b73ffffffffffffffffffffffffffffffffffffffff16146112b0576040517f08c379a00000000000000000000000000000000000000000000000000000000081526004016112a79061436d565b60405180910390fd5b600073ffffffffffffffffffffffffffffffffffffffff168173ffffffffffffffffffffffffffffffffffffffff161415611320576040517f08c379a000000000000000000000000000000000000000000000000000000000815260040161131790614523565b60405180910390fd5b61132981611a8a565b50565b600060019054906101000a900460ff166113545760008054906101000a900460ff161561135d565b61135c612780565b5b61139c576040517f08c379a0000000000000000000000000000000000000000000000000000000008152600401611393906145b5565b60405180910390fd5b60008060019054906101000a900460ff1615905080156113ec576001600060016101000a81548160ff02191690831515021790555060016000806101000a81548160ff0219169083151502179055505b6113f582612791565b80156114165760008060016101000a81548160ff0219169083151502179055505b5050565b60007f01ffc9a7000000000000000000000000000000000000000000000000000000007bffffffffffffffffffffffffffffffffffffffffffffffffffffffff1916827bffffffffffffffffffffffffffffffffffffffffffffffffffffffff1916149050919050565b600033905090565b81518351146114d0576040517f08c379a00000000000000000000000000000000000000000000000000000000081526004016114c790614647565b60405180910390fd5b600073ffffffffffffffffffffffffffffffffffffffff168473ffffffffffffffffffffffffffffffffffffffff161415611540576040517f08c379a0000000000000000000000000000000000000000000000000000000008152600401611537906146d9565b60405180910390fd5b600061154a611484565b905061155a81878787878761289f565b60005b845181101561170e57600085828151811061157b5761157a61420e565b5b60200260200101519050600085838151811061159a5761159961420e565b5b6020026020010151905060006065600084815260200190815260200160002060008b73ffffffffffffffffffffffffffffffffffffffff1673ffffffffffffffffffffffffffffffffffffffff1681526020019081526020016000205490508181101561163c576040517f08c379a00000000000000000000000000000000000000000000000000000000081526004016116339061476b565b60405180910390fd5b8181036065600085815260200190815260200160002060008c73ffffffffffffffffffffffffffffffffffffffff1673ffffffffffffffffffffffffffffffffffffffff16815260200190815260200160002081905550816065600085815260200190815260200160002060008b73ffffffffffffffffffffffffffffffffffffffff1673ffffffffffffffffffffffffffffffffffffffff16815260200190815260200160002060008282546116f3919061478b565b92505081905550505050806117079061426c565b905061155d565b508473ffffffffffffffffffffffffffffffffffffffff168673ffffffffffffffffffffffffffffffffffffffff168273ffffffffffffffffffffffffffffffffffffffff167f4a39dc06d4c0dbc64b70af90fd698a233a518aa5d07e595d983b8c0526c8f7fb87876040516117859291906147e1565b60405180910390a461179b8187878787876128a7565b505050505050565b81831061199e57600060fd60008681526020019081526020016000208054905090506000805b8281101561186f5760fd600088815260200190815260200160002081815481106117f6576117f561420e565b5b9060005260206000200160009054906101000a900473ffffffffffffffffffffffffffffffffffffffff1673ffffffffffffffffffffffffffffffffffffffff168973ffffffffffffffffffffffffffffffffffffffff16141561185c5780915061186f565b80806118679061426c565b9150506117c9565b5060fd60008781526020019081526020016000206001836118909190614818565b815481106118a1576118a061420e565b5b9060005260206000200160009054906101000a900473ffffffffffffffffffffffffffffffffffffffff1660fd600088815260200190815260200160002082815481106118f1576118f061420e565b5b9060005260206000200160006101000a81548173ffffffffffffffffffffffffffffffffffffffff021916908373ffffffffffffffffffffffffffffffffffffffff16021790555060fd600087815260200190815260200160002080548061195c5761195b61484c565b5b6001900381819060005260206000200160006101000a81549073ffffffffffffffffffffffffffffffffffffffff0219169055905561199b8887612a7f565b50505b6000811415611a825760fd6000858152602001908152602001600020859080600181540180825580915050600190039060005260206000200160009091909190916101000a81548173ffffffffffffffffffffffffffffffffffffffff021916908373ffffffffffffffffffffffffffffffffffffffff16021790555060fc60008673ffffffffffffffffffffffffffffffffffffffff1673ffffffffffffffffffffffffffffffffffffffff1681526020019081526020016000208490806001815401808255809150506001900390600052602060002001600090919091909150555b505050505050565b600060c960009054906101000a900473ffffffffffffffffffffffffffffffffffffffff1690508160c960006101000a81548173ffffffffffffffffffffffffffffffffffffffff021916908373ffffffffffffffffffffffffffffffffffffffff1602179055508173ffffffffffffffffffffffffffffffffffffffff168173ffffffffffffffffffffffffffffffffffffffff167f8be0079c531659141344cd1fd0a4f28419497f9722a3daafe3b4186f6b6457e060405160405180910390a35050565b600073ffffffffffffffffffffffffffffffffffffffff168373ffffffffffffffffffffffffffffffffffffffff161415611bc0576040517f08c379a0000000000000000000000000000000000000000000000000000000008152600401611bb7906148ed565b60405180910390fd5b6000611bca611484565b9050611bfa81856000611bdc87612c83565b611be587612c83565b6040518060200160405280600081525061289f565b60006065600085815260200190815260200160002060008673ffffffffffffffffffffffffffffffffffffffff1673ffffffffffffffffffffffffffffffffffffffff16815260200190815260200160002054905082811015611c92576040517f08c379a0000000000000000000000000000000000000000000000000000000008152600401611c899061497f565b60405180910390fd5b8281036065600086815260200190815260200160002060008773ffffffffffffffffffffffffffffffffffffffff1673ffffffffffffffffffffffffffffffffffffffff16815260200190815260200160002081905550600073ffffffffffffffffffffffffffffffffffffffff168573ffffffffffffffffffffffffffffffffffffffff168373ffffffffffffffffffffffffffffffffffffffff167fc3d58168c5ae7397731d063d5bbf3d657854427343f4c083240f7aacaa2d0f628787604051611d6092919061499f565b60405180910390a45050505050565b82811415611d8c57611d818285612a7f565b611d8b8285612cfd565b5b50505050565b611d9a610933565b15611dda576040517f08c379a0000000000000000000000000000000000000000000000000000000008152600401611dd190614a14565b60405180910390fd5b6001609760006101000a81548160ff0219169083151502179055507f62e78cea01bee320cd4e420270b5ea74000d11b0c9f74754ebdbfc544b05a258611e1e611484565b604051611e2b9190613c09565b60405180910390a1565b600073ffffffffffffffffffffffffffffffffffffffff168473ffffffffffffffffffffffffffffffffffffffff161415611ea5576040517f08c379a0000000000000000000000000000000000000000000000000000000008152600401611e9c90614aa6565b60405180910390fd5b6000611eaf611484565b9050611ed081600087611ec188612c83565b611eca88612c83565b8761289f565b826065600086815260200190815260200160002060008773ffffffffffffffffffffffffffffffffffffffff1673ffffffffffffffffffffffffffffffffffffffff1681526020019081526020016000206000828254611f30919061478b565b925050819055508473ffffffffffffffffffffffffffffffffffffffff16600073ffffffffffffffffffffffffffffffffffffffff168273ffffffffffffffffffffffffffffffffffffffff167fc3d58168c5ae7397731d063d5bbf3d657854427343f4c083240f7aacaa2d0f628787604051611fae92919061499f565b60405180910390a4611fc581600087878787612eea565b5050505050565b80611ffb5760fe8390806001815401808255809150506001900390600052602060002001600090919091909150555b600060fc60008473ffffffffffffffffffffffffffffffffffffffff1673ffffffffffffffffffffffffffffffffffffffff16815260200190815260200160002080549050905060008114156120b65760fc60008473ffffffffffffffffffffffffffffffffffffffff1673ffffffffffffffffffffffffffffffffffffffff1681526020019081526020016000208490806001815401808255809150506001900390600052602060002001600090919091909150556121b9565b60005b818110156121b75760fc60008573ffffffffffffffffffffffffffffffffffffffff1673ffffffffffffffffffffffffffffffffffffffff16815260200190815260200160002081815481106121125761211161420e565b5b9060005260206000200154851415612129576121b7565b6001826121369190614818565b8114156121a45760fc60008573ffffffffffffffffffffffffffffffffffffffff1673ffffffffffffffffffffffffffffffffffffffff1681526020019081526020016000208590806001815401808255809150506001900390600052602060002001600090919091909150555b80806121af9061426c565b9150506120b9565b505b600060fd600086815260200190815260200160002080549050905060008114156122565760fd6000868152602001908152602001600020849080600181540180825580915050600190039060005260206000200160009091909190916101000a81548173ffffffffffffffffffffffffffffffffffffffff021916908373ffffffffffffffffffffffffffffffffffffffff160217905550612387565b60005b818110156123855760fd600087815260200190815260200160002081815481106122865761228561420e565b5b9060005260206000200160009054906101000a900473ffffffffffffffffffffffffffffffffffffffff1673ffffffffffffffffffffffffffffffffffffffff168573ffffffffffffffffffffffffffffffffffffffff1614156122e957612385565b6001826122f69190614818565b8114156123725760fd6000878152602001908152602001600020859080600181540180825580915050600190039060005260206000200160009091909190916101000a81548173ffffffffffffffffffffffffffffffffffffffff021916908373ffffffffffffffffffffffffffffffffffffffff1602179055505b808061237d9061426c565b915050612259565b505b5050505050565b8173ffffffffffffffffffffffffffffffffffffffff168373ffffffffffffffffffffffffffffffffffffffff1614156123fd576040517f08c379a00000000000000000000000000000000000000000000000000000000081526004016123f490614b38565b60405180910390fd5b80606660008573ffffffffffffffffffffffffffffffffffffffff1673ffffffffffffffffffffffffffffffffffffffff16815260200190815260200160002060008473ffffffffffffffffffffffffffffffffffffffff1673ffffffffffffffffffffffffffffffffffffffff16815260200190815260200160002060006101000a81548160ff0219169083151502179055508173ffffffffffffffffffffffffffffffffffffffff168373ffffffffffffffffffffffffffffffffffffffff167f17307eab39ab6107e8899845ad3d59bd9653f200f220920489ca2b5937696c31836040516124ee919061354c565b60405180910390a3505050565b600073ffffffffffffffffffffffffffffffffffffffff168473ffffffffffffffffffffffffffffffffffffffff16141561256b576040517f08c379a0000000000000000000000000000000000000000000000000000000008152600401612562906146d9565b60405180910390fd5b6000612575611484565b905061259581878761258688612c83565b61258f88612c83565b8761289f565b60006065600086815260200190815260200160002060008873ffffffffffffffffffffffffffffffffffffffff1673ffffffffffffffffffffffffffffffffffffffff1681526020019081526020016000205490508381101561262d576040517f08c379a00000000000000000000000000000000000000000000000000000000081526004016126249061476b565b60405180910390fd5b8381036065600087815260200190815260200160002060008973ffffffffffffffffffffffffffffffffffffffff1673ffffffffffffffffffffffffffffffffffffffff16815260200190815260200160002081905550836065600087815260200190815260200160002060008873ffffffffffffffffffffffffffffffffffffffff1673ffffffffffffffffffffffffffffffffffffffff16815260200190815260200160002060008282546126e4919061478b565b925050819055508573ffffffffffffffffffffffffffffffffffffffff168773ffffffffffffffffffffffffffffffffffffffff168373ffffffffffffffffffffffffffffffffffffffff167fc3d58168c5ae7397731d063d5bbf3d657854427343f4c083240f7aacaa2d0f62888860405161276192919061499f565b60405180910390a4612777828888888888612eea565b50505050505050565b600061278b306130c2565b15905090565b600060019054906101000a900460ff166127b95760008054906101000a900460ff16156127c2565b6127c1612780565b5b612801576040517f08c379a00000000000000000000000000000000000000000000000000000000081526004016127f8906145b5565b60405180910390fd5b60008060019054906101000a900460ff161590508015612851576001600060016101000a81548160ff02191690831515021790555060016000806101000a81548160ff0219169083151502179055505b6128596130d5565b612861613126565b612869613177565b612872826131e3565b61287a61323e565b801561289b5760008060016101000a81548160ff0219169083151502179055505b5050565b505050505050565b6128c68473ffffffffffffffffffffffffffffffffffffffff166130c2565b15612a77578373ffffffffffffffffffffffffffffffffffffffff1663bc197c8187878686866040518663ffffffff1660e01b815260040161290c959493929190614bad565b6020604051808303816000875af192505050801561294857506040513d601f19601f820116820180604052508101906129459190614c2a565b60015b6129ee57612954614c64565b806308c379a014156129b15750612969614c86565b8061297457506129b3565b806040517f08c379a00000000000000000000000000000000000000000000000000000000081526004016129a8919061362d565b60405180910390fd5b505b6040517f08c379a00000000000000000000000000000000000000000000000000000000081526004016129e590614d8e565b60405180910390fd5b63bc197c8160e01b7bffffffffffffffffffffffffffffffffffffffffffffffffffffffff1916817bffffffffffffffffffffffffffffffffffffffffffffffffffffffff191614612a75576040517f08c379a0000000000000000000000000000000000000000000000000000000008152600401612a6c90614e20565b60405180910390fd5b505b505050505050565b600060fc60008473ffffffffffffffffffffffffffffffffffffffff1673ffffffffffffffffffffffffffffffffffffffff1681526020019081526020016000208054905090506000805b82811015612b505760fc60008673ffffffffffffffffffffffffffffffffffffffff1673ffffffffffffffffffffffffffffffffffffffff1681526020019081526020016000208181548110612b2357612b2261420e565b5b9060005260206000200154841415612b3d57809150612b50565b8080612b489061426c565b915050612aca565b5060fc60008573ffffffffffffffffffffffffffffffffffffffff1673ffffffffffffffffffffffffffffffffffffffff168152602001908152602001600020600183612b9d9190614818565b81548110612bae57612bad61420e565b5b906000526020600020015460fc60008673ffffffffffffffffffffffffffffffffffffffff1673ffffffffffffffffffffffffffffffffffffffff1681526020019081526020016000208281548110612c0a57612c0961420e565b5b906000526020600020018190555060fc60008573ffffffffffffffffffffffffffffffffffffffff1673ffffffffffffffffffffffffffffffffffffffff168152602001908152602001600020805480612c6757612c6661484c565b5b6001900381819060005260206000200160009055905550505050565b60606000600167ffffffffffffffff811115612ca257612ca1613761565b5b604051908082528060200260200182016040528015612cd05781602001602082028036833780820191505090505b5090508281600081518110612ce857612ce761420e565b5b60200260200101818152505080915050919050565b600060fd60008381526020019081526020016000208054905090506000805b82811015612dc25760fd60008581526020019081526020016000208181548110612d4957612d4861420e565b5b9060005260206000200160009054906101000a900473ffffffffffffffffffffffffffffffffffffffff1673ffffffffffffffffffffffffffffffffffffffff168573ffffffffffffffffffffffffffffffffffffffff161415612daf57809150612dc2565b8080612dba9061426c565b915050612d1c565b5060fd6000848152602001908152602001600020600183612de39190614818565b81548110612df457612df361420e565b5b9060005260206000200160009054906101000a900473ffffffffffffffffffffffffffffffffffffffff1660fd60008581526020019081526020016000208281548110612e4457612e4361420e565b5b9060005260206000200160006101000a81548173ffffffffffffffffffffffffffffffffffffffff021916908373ffffffffffffffffffffffffffffffffffffffff16021790555060fd6000848152602001908152602001600020805480612eaf57612eae61484c565b5b6001900381819060005260206000200160006101000a81549073ffffffffffffffffffffffffffffffffffffffff0219169055905550505050565b612f098473ffffffffffffffffffffffffffffffffffffffff166130c2565b156130ba578373ffffffffffffffffffffffffffffffffffffffff1663f23a6e6187878686866040518663ffffffff1660e01b8152600401612f4f959493929190614e40565b6020604051808303816000875af1925050508015612f8b57506040513d601f19601f82011682018060405250810190612f889190614c2a565b60015b61303157612f97614c64565b806308c379a01415612ff45750612fac614c86565b80612fb75750612ff6565b806040517f08c379a0000000000000000000000000000000000000000000000000000000008152600401612feb919061362d565b60405180910390fd5b505b6040517f08c379a000000000000000000000000000000000000000000000000000000000815260040161302890614d8e565b60405180910390fd5b63f23a6e6160e01b7bffffffffffffffffffffffffffffffffffffffffffffffffffffffff1916817bffffffffffffffffffffffffffffffffffffffffffffffffffffffff1916146130b8576040517f08c379a00000000000000000000000000000000000000000000000000000000081526004016130af90614e20565b60405180910390fd5b505b505050505050565b600080823b905060008111915050919050565b600060019054906101000a900460ff16613124576040517f08c379a000000000000000000000000000000000000000000000000000000000815260040161311b90614f0c565b60405180910390fd5b565b600060019054906101000a900460ff16613175576040517f08c379a000000000000000000000000000000000000000000000000000000000815260040161316c90614f0c565b60405180910390fd5b565b600060019054906101000a900460ff166131c6576040517f08c379a00000000000000000000000000000000000000000000000000000000081526004016131bd90614f0c565b60405180910390fd5b6000609760006101000a81548160ff021916908315150217905550565b600060019054906101000a900460ff16613232576040517f08c379a000000000000000000000000000000000000000000000000000000000815260040161322990614f0c565b60405180910390fd5b61323b8161329f565b50565b600060019054906101000a900460ff1661328d576040517f08c379a000000000000000000000000000000000000000000000000000000000815260040161328490614f0c565b60405180910390fd5b61329d613298611484565b611a8a565b565b80606790805190602001906132b59291906132f7565b5050565b6040518060800160405280600073ffffffffffffffffffffffffffffffffffffffff1681526020016000815260200160008152602001606081525090565b828054613303906140b8565b90600052602060002090601f016020900481019282613325576000855561336c565b82601f1061333e57805160ff191683800117855561336c565b8280016001018555821561336c579182015b8281111561336b578251825591602001919060010190613350565b5b509050613379919061337d565b5090565b5b8082111561339657600081600090555060010161337e565b5090565b6000604051905090565b600080fd5b600080fd5b600073ffffffffffffffffffffffffffffffffffffffff82169050919050565b60006133d9826133ae565b9050919050565b6133e9816133ce565b81146133f457600080fd5b50565b600081359050613406816133e0565b92915050565b6000819050919050565b61341f8161340c565b811461342a57600080fd5b50565b60008135905061343c81613416565b92915050565b60008060408385031215613459576134586133a4565b5b6000613467858286016133f7565b92505060206134788582860161342d565b9150509250929050565b61348b8161340c565b82525050565b60006020820190506134a66000830184613482565b92915050565b60007fffffffff0000000000000000000000000000000000000000000000000000000082169050919050565b6134e1816134ac565b81146134ec57600080fd5b50565b6000813590506134fe816134d8565b92915050565b60006020828403121561351a576135196133a4565b5b6000613528848285016134ef565b91505092915050565b60008115159050919050565b61354681613531565b82525050565b6000602082019050613561600083018461353d565b92915050565b60006020828403121561357d5761357c6133a4565b5b600061358b8482850161342d565b91505092915050565b600081519050919050565b600082825260208201905092915050565b60005b838110156135ce5780820151818401526020810190506135b3565b838111156135dd576000848401525b50505050565b6000601f19601f8301169050919050565b60006135ff82613594565b613609818561359f565b93506136198185602086016135b0565b613622816135e3565b840191505092915050565b6000602082019050818103600083015261364781846135f4565b905092915050565b600060208284031215613665576136646133a4565b5b6000613673848285016133f7565b91505092915050565b600081519050919050565b600082825260208201905092915050565b6000819050602082019050919050565b6136b18161340c565b82525050565b60006136c383836136a8565b60208301905092915050565b6000602082019050919050565b60006136e78261367c565b6136f18185613687565b93506136fc83613698565b8060005b8381101561372d57815161371488826136b7565b975061371f836136cf565b925050600181019050613700565b5085935050505092915050565b6000602082019050818103600083015261375481846136dc565b905092915050565b600080fd5b7f4e487b7100000000000000000000000000000000000000000000000000000000600052604160045260246000fd5b613799826135e3565b810181811067ffffffffffffffff821117156137b8576137b7613761565b5b80604052505050565b60006137cb61339a565b90506137d78282613790565b919050565b600067ffffffffffffffff8211156137f7576137f6613761565b5b602082029050602081019050919050565b600080fd5b600061382061381b846137dc565b6137c1565b9050808382526020820190506020840283018581111561384357613842613808565b5b835b8181101561386c5780613858888261342d565b845260208401935050602081019050613845565b5050509392505050565b600082601f83011261388b5761388a61375c565b5b813561389b84826020860161380d565b91505092915050565b600080fd5b600067ffffffffffffffff8211156138c4576138c3613761565b5b6138cd826135e3565b9050602081019050919050565b82818337600083830152505050565b60006138fc6138f7846138a9565b6137c1565b905082815260208101848484011115613918576139176138a4565b5b6139238482856138da565b509392505050565b600082601f8301126139405761393f61375c565b5b81356139508482602086016138e9565b91505092915050565b600080600080600060a08688031215613975576139746133a4565b5b6000613983888289016133f7565b9550506020613994888289016133f7565b945050604086013567ffffffffffffffff8111156139b5576139b46133a9565b5b6139c188828901613876565b935050606086013567ffffffffffffffff8111156139e2576139e16133a9565b5b6139ee88828901613876565b925050608086013567ffffffffffffffff811115613a0f57613a0e6133a9565b5b613a1b8882890161392b565b9150509295509295909350565b600067ffffffffffffffff821115613a4357613a42613761565b5b602082029050602081019050919050565b6000613a67613a6284613a28565b6137c1565b90508083825260208201905060208402830185811115613a8a57613a89613808565b5b835b81811015613ab35780613a9f88826133f7565b845260208401935050602081019050613a8c565b5050509392505050565b600082601f830112613ad257613ad161375c565b5b8135613ae2848260208601613a54565b91505092915050565b60008060408385031215613b0257613b016133a4565b5b600083013567ffffffffffffffff811115613b2057613b1f6133a9565b5b613b2c85828601613abd565b925050602083013567ffffffffffffffff811115613b4d57613b4c6133a9565b5b613b5985828601613876565b9150509250929050565b600080600080600060a08688031215613b7f57613b7e6133a4565b5b6000613b8d888289016133f7565b9550506020613b9e888289016133f7565b9450506040613baf8882890161342d565b9350506060613bc08882890161342d565b925050608086013567ffffffffffffffff811115613be157613be06133a9565b5b613bed8882890161392b565b9150509295509295909350565b613c03816133ce565b82525050565b6000602082019050613c1e6000830184613bfa565b92915050565b600080600060608486031215613c3d57613c3c6133a4565b5b6000613c4b8682870161342d565b9350506020613c5c8682870161342d565b9250506040613c6d868287016133f7565b9150509250925092565b600067ffffffffffffffff821115613c9257613c91613761565b5b613c9b826135e3565b9050602081019050919050565b6000613cbb613cb684613c77565b6137c1565b905082815260208101848484011115613cd757613cd66138a4565b5b613ce28482856138da565b509392505050565b600082601f830112613cff57613cfe61375c565b5b8135613d0f848260208601613ca8565b91505092915050565b600080600080600080600060e0888a031215613d3757613d366133a4565b5b6000613d458a828b016133f7565b9750506020613d568a828b0161342d565b9650506040613d678a828b0161342d565b9550506060613d788a828b0161342d565b9450506080613d898a828b0161342d565b93505060a0613d9a8a828b016133f7565b92505060c088013567ffffffffffffffff811115613dbb57613dba6133a9565b5b613dc78a828b01613cea565b91505092959891949750929550565b613ddf81613531565b8114613dea57600080fd5b50565b600081359050613dfc81613dd6565b92915050565b60008060408385031215613e1957613e186133a4565b5b6000613e27858286016133f7565b9250506020613e3885828601613ded565b9150509250929050565b600081519050919050565b600082825260208201905092915050565b6000819050602082019050919050565b613e77816133ce565b82525050565b6000613e898383613e6e565b60208301905092915050565b6000602082019050919050565b6000613ead82613e42565b613eb78185613e4d565b9350613ec283613e5e565b8060005b83811015613ef3578151613eda8882613e7d565b9750613ee583613e95565b925050600181019050613ec6565b5085935050505092915050565b60006020820190508181036000830152613f1a8184613ea2565b905092915050565b6000608082019050613f376000830187613bfa565b613f446020830186613482565b613f516040830185613482565b8181036060830152613f6381846135f4565b905095945050505050565b60008060408385031215613f8557613f846133a4565b5b6000613f93858286016133f7565b9250506020613fa4858286016133f7565b9150509250929050565b600060208284031215613fc457613fc36133a4565b5b600082013567ffffffffffffffff811115613fe257613fe16133a9565b5b613fee84828501613cea565b91505092915050565b7f455243313135353a2062616c616e636520717565727920666f7220746865207a60008201527f65726f2061646472657373000000000000000000000000000000000000000000602082015250565b6000614053602b8361359f565b915061405e82613ff7565b604082019050919050565b6000602082019050818103600083015261408281614046565b9050919050565b7f4e487b7100000000000000000000000000000000000000000000000000000000600052602260045260246000fd5b600060028204905060018216806140d057607f821691505b602082108114156140e4576140e3614089565b5b50919050565b7f455243313135353a207472616e736665722063616c6c6572206973206e6f742060008201527f6f776e6572206e6f7220617070726f7665640000000000000000000000000000602082015250565b600061414660328361359f565b9150614151826140ea565b604082019050919050565b6000602082019050818103600083015261417581614139565b9050919050565b7f455243313135353a206163636f756e747320616e6420696473206c656e67746860008201527f206d69736d617463680000000000000000000000000000000000000000000000602082015250565b60006141d860298361359f565b91506141e38261417c565b604082019050919050565b60006020820190508181036000830152614207816141cb565b9050919050565b7f4e487b7100000000000000000000000000000000000000000000000000000000600052603260045260246000fd5b7f4e487b7100000000000000000000000000000000000000000000000000000000600052601160045260246000fd5b60006142778261340c565b91507fffffffffffffffffffffffffffffffffffffffffffffffffffffffffffffffff8214156142aa576142a961423d565b5b600182019050919050565b7f4e6f7420616c6c6f776564207768696c65207061757365640000000000000000600082015250565b60006142eb60188361359f565b91506142f6826142b5565b602082019050919050565b6000602082019050818103600083015261431a816142de565b9050919050565b7f4f776e61626c653a2063616c6c6572206973206e6f7420746865206f776e6572600082015250565b600061435760208361359f565b915061436282614321565b602082019050919050565b600060208201905081810360008301526143868161434a565b9050919050565b7f7472616e7366657265722068617320746f206f776e20657175616c206f72206d60008201527f6f726520736861726573207468616e2074686520676976656e20616d6f756e74602082015250565b60006143e960408361359f565b91506143f48261438d565b604082019050919050565b60006020820190508181036000830152614418816143dc565b9050919050565b7f455243313135353a2063616c6c6572206973206e6f74206f776e6572206e6f7260008201527f20617070726f7665640000000000000000000000000000000000000000000000602082015250565b600061447b60298361359f565b91506144868261441f565b604082019050919050565b600060208201905081810360008301526144aa8161446e565b9050919050565b7f4f776e61626c653a206e6577206f776e657220697320746865207a65726f206160008201527f6464726573730000000000000000000000000000000000000000000000000000602082015250565b600061450d60268361359f565b9150614518826144b1565b604082019050919050565b6000602082019050818103600083015261453c81614500565b9050919050565b7f496e697469616c697a61626c653a20636f6e747261637420697320616c72656160008201527f647920696e697469616c697a6564000000000000000000000000000000000000602082015250565b600061459f602e8361359f565b91506145aa82614543565b604082019050919050565b600060208201905081810360008301526145ce81614592565b9050919050565b7f455243313135353a2069647320616e6420616d6f756e7473206c656e6774682060008201527f6d69736d61746368000000000000000000000000000000000000000000000000602082015250565b600061463160288361359f565b915061463c826145d5565b604082019050919050565b6000602082019050818103600083015261466081614624565b9050919050565b7f455243313135353a207472616e7366657220746f20746865207a65726f20616460008201527f6472657373000000000000000000000000000000000000000000000000000000602082015250565b60006146c360258361359f565b91506146ce82614667565b604082019050919050565b600060208201905081810360008301526146f2816146b6565b9050919050565b7f455243313135353a20696e73756666696369656e742062616c616e636520666f60008201527f72207472616e7366657200000000000000000000000000000000000000000000602082015250565b6000614755602a8361359f565b9150614760826146f9565b604082019050919050565b6000602082019050818103600083015261478481614748565b9050919050565b60006147968261340c565b91506147a18361340c565b9250827fffffffffffffffffffffffffffffffffffffffffffffffffffffffffffffffff038211156147d6576147d561423d565b5b828201905092915050565b600060408201905081810360008301526147fb81856136dc565b9050818103602083015261480f81846136dc565b90509392505050565b60006148238261340c565b915061482e8361340c565b9250828210156148415761484061423d565b5b828203905092915050565b7f4e487b7100000000000000000000000000000000000000000000000000000000600052603160045260246000fd5b7f455243313135353a206275726e2066726f6d20746865207a65726f206164647260008201527f6573730000000000000000000000000000000000000000000000000000000000602082015250565b60006148d760238361359f565b91506148e28261487b565b604082019050919050565b60006020820190508181036000830152614906816148ca565b9050919050565b7f455243313135353a206275726e20616d6f756e7420657863656564732062616c60008201527f616e636500000000000000000000000000000000000000000000000000000000602082015250565b600061496960248361359f565b91506149748261490d565b604082019050919050565b600060208201905081810360008301526149988161495c565b9050919050565b60006040820190506149b46000830185613482565b6149c16020830184613482565b9392505050565b7f5061757361626c653a2070617573656400000000000000000000000000000000600082015250565b60006149fe60108361359f565b9150614a09826149c8565b602082019050919050565b60006020820190508181036000830152614a2d816149f1565b9050919050565b7f455243313135353a206d696e7420746f20746865207a65726f2061646472657360008201527f7300000000000000000000000000000000000000000000000000000000000000602082015250565b6000614a9060218361359f565b9150614a9b82614a34565b604082019050919050565b60006020820190508181036000830152614abf81614a83565b9050919050565b7f455243313135353a2073657474696e6720617070726f76616c2073746174757360008201527f20666f722073656c660000000000000000000000000000000000000000000000602082015250565b6000614b2260298361359f565b9150614b2d82614ac6565b604082019050919050565b60006020820190508181036000830152614b5181614b15565b9050919050565b600081519050919050565b600082825260208201905092915050565b6000614b7f82614b58565b614b898185614b63565b9350614b998185602086016135b0565b614ba2816135e3565b840191505092915050565b600060a082019050614bc26000830188613bfa565b614bcf6020830187613bfa565b8181036040830152614be181866136dc565b90508181036060830152614bf581856136dc565b90508181036080830152614c098184614b74565b90509695505050505050565b600081519050614c24816134d8565b92915050565b600060208284031215614c4057614c3f6133a4565b5b6000614c4e84828501614c15565b91505092915050565b60008160e01c9050919050565b600060033d1115614c835760046000803e614c80600051614c57565b90505b90565b600060443d1015614c9657614d19565b614c9e61339a565b60043d036004823e80513d602482011167ffffffffffffffff82111715614cc6575050614d19565b808201805167ffffffffffffffff811115614ce45750505050614d19565b80602083010160043d038501811115614d01575050505050614d19565b614d1082602001850186613790565b82955050505050505b90565b7f455243313135353a207472616e7366657220746f206e6f6e204552433131353560008201527f526563656976657220696d706c656d656e746572000000000000000000000000602082015250565b6000614d7860348361359f565b9150614d8382614d1c565b604082019050919050565b60006020820190508181036000830152614da781614d6b565b9050919050565b7f455243313135353a204552433131353552656365697665722072656a6563746560008201527f6420746f6b656e73000000000000000000000000000000000000000000000000602082015250565b6000614e0a60288361359f565b9150614e1582614dae565b604082019050919050565b60006020820190508181036000830152614e3981614dfd565b9050919050565b600060a082019050614e556000830188613bfa565b614e626020830187613bfa565b614e6f6040830186613482565b614e7c6060830185613482565b8181036080830152614e8e8184614b74565b90509695505050505050565b7f496e697469616c697a61626c653a20636f6e7472616374206973206e6f74206960008201527f6e697469616c697a696e67000000000000000000000000000000000000000000602082015250565b6000614ef6602b8361359f565b9150614f0182614e9a565b604082019050919050565b60006020820190508181036000830152614f2581614ee9565b905091905056fea26469706673582212208110609b1e655af4d1f00142eca3efea5fa151702411128439eedd8d38fec6b764736f6c634300080a0033",
  "immutableReferences": {},
  "source": "// SPDX-License-Identifier: MIT\n\npragma solidity ^0.8.0;\n\nimport \"./NftFractionsRepositoryBase.sol\";\n\ncontract BscNftFractionsRepository is NftFractionsRepositoryBase {\n\n  mapping(address => uint256[]) tokenIdsByShareOwner;\n\n  mapping(uint256 => address[]) ownersByTokenId;\n\n  uint256[] tokenIds;\n\n  function initialize(string memory uri_) public initializer {\n    __NftFractionsRepositoryBase_init(uri_);\n  }\n\n  function _afterBurn(uint256 tokenId, uint256 amount, address transferer, uint256 transferersAmount) internal override {\n    if (transferersAmount == amount) {\n      deleteIdFromTokenIdsByShareOwner(transferer, tokenId);\n      deleteOwnerFromOwnersByTokenId(transferer, tokenId);\n    }\n  }\n\n  function _afterMint(uint256 erc1155TokenId, address transferer, bool existingToken) internal override {\n    if (!existingToken) {\n      tokenIds.push(erc1155TokenId);\n    }\n\n    uint256 nrOfTokensByTransferer = tokenIdsByShareOwner[transferer].length;\n\n    if (nrOfTokensByTransferer == 0) {\n      tokenIdsByShareOwner[transferer].push(erc1155TokenId);\n    } else {\n      for (uint256 i; i < nrOfTokensByTransferer; i++) {\n        if (erc1155TokenId == tokenIdsByShareOwner[transferer][i]) {\n          break;\n        }\n        if (i == nrOfTokensByTransferer - 1) {\n          tokenIdsByShareOwner[transferer].push(erc1155TokenId);\n        }\n      }\n    }\n\n    uint256 nrOfOwnerByTokenId = ownersByTokenId[erc1155TokenId].length;\n    if (nrOfOwnerByTokenId == 0) {\n      ownersByTokenId[erc1155TokenId].push(transferer);\n    } else {\n      for (uint256 i; i < nrOfOwnerByTokenId; i++) {\n        if (transferer == ownersByTokenId[erc1155TokenId][i]) {\n          break;\n        }\n        if (i == nrOfOwnerByTokenId - 1) {\n          ownersByTokenId[erc1155TokenId].push(transferer);\n        }\n      }\n    }\n  }\n\n  function _afterTransferFrom(address from, address to, uint256 id, uint256 amount, uint256 fromBalanceBefore, uint256 toBalanceBefore) internal override {\n    if (amount >= fromBalanceBefore) {\n      uint256 nrOfOwners = ownersByTokenId[id].length;\n      uint256 ownerPosition;\n      for (uint256 i; i < nrOfOwners; i++) {\n        if (from == ownersByTokenId[id][i]) {\n          ownerPosition = i;\n          break;\n        }\n      }\n      ownersByTokenId[id][ownerPosition] = ownersByTokenId[id][nrOfOwners - 1];\n      ownersByTokenId[id].pop();\n      deleteIdFromTokenIdsByShareOwner(from, id);\n    }\n    if (toBalanceBefore == 0) {\n      ownersByTokenId[id].push(to);\n      tokenIdsByShareOwner[to].push(id);\n    }\n  }\n\n  function getTokenIdsByShareOwner(address shareOwner) public view returns (uint256[] memory) {\n    return tokenIdsByShareOwner[shareOwner];\n  }\n\n  function getOwnersByTokenId(uint256 tokenId) public view returns (address[] memory) {\n    return ownersByTokenId[tokenId];\n  }\n\n  function getTokenIds() public view returns (uint256[] memory) {\n    return tokenIds;\n  }\n\n  function deleteIdFromTokenIdsByShareOwner(address owner, uint256 id) private {\n    uint256 nrOfTokensByShareOwner = tokenIdsByShareOwner[owner].length;\n    uint256 tokenIdPositionInShareOwner;\n    for (uint256 i; i < nrOfTokensByShareOwner; i++) {\n      if (id == tokenIdsByShareOwner[owner][i]) {\n        tokenIdPositionInShareOwner = i;\n        break;\n      }\n    }\n\n    tokenIdsByShareOwner[owner][tokenIdPositionInShareOwner] = tokenIdsByShareOwner[owner][nrOfTokensByShareOwner - 1];\n    tokenIdsByShareOwner[owner].pop();\n  }\n\n  function deleteOwnerFromOwnersByTokenId(address owner, uint256 id) private {\n    uint256 nrOfOwnersByTokenId = ownersByTokenId[id].length;\n    uint256 ownerPositionInOwners;\n    for (uint256 i; i < nrOfOwnersByTokenId; i++) {\n      if (owner == ownersByTokenId[id][i]) {\n        ownerPositionInOwners = i;\n        break;\n      }\n    }\n    ownersByTokenId[id][ownerPositionInOwners] = ownersByTokenId[id][nrOfOwnersByTokenId - 1];\n    ownersByTokenId[id].pop();\n  }\n}",
  "sourcePath": "/home/janus/work/react.js-solidity_nft-fractions-dex/contracts/BscNftFractionsRepository.sol",
  "compiler": {
    "name": "solc",
    "version": "0.8.10+commit.fc410830.Emscripten.clang"
  },
  "schemaVersion": "3.4.3",
  "updatedAt": "2021-12-16T21:30:19.564Z",
  "devdoc": {
    "kind": "dev",
    "methods": {
      "balanceOf(address,uint256)": {
        "details": "See {IERC1155-balanceOf}. Requirements: - `account` cannot be the zero address."
      },
      "balanceOfBatch(address[],uint256[])": {
        "details": "See {IERC1155-balanceOfBatch}. Requirements: - `accounts` and `ids` must have the same length."
      },
      "isApprovedForAll(address,address)": {
        "details": "See {IERC1155-isApprovedForAll}."
      },
      "owner()": {
        "details": "Returns the address of the current owner."
      },
      "paused()": {
        "details": "Returns true if the contract is paused, and false otherwise."
      },
      "renounceOwnership()": {
        "details": "Leaves the contract without owner. It will not be possible to call `onlyOwner` functions anymore. Can only be called by the current owner. NOTE: Renouncing ownership will leave the contract without an owner, thereby removing any functionality that is only available to the owner."
      },
      "safeBatchTransferFrom(address,address,uint256[],uint256[],bytes)": {
        "details": "See {IERC1155-safeBatchTransferFrom}."
      },
      "safeTransferFrom(address,address,uint256,uint256,bytes)": {
        "details": "See {IERC1155-safeTransferFrom}."
      },
      "setApprovalForAll(address,bool)": {
        "details": "See {IERC1155-setApprovalForAll}."
      },
      "supportsInterface(bytes4)": {
        "details": "See {IERC165-supportsInterface}."
      },
      "transferOwnership(address)": {
        "details": "Transfers ownership of the contract to a new account (`newOwner`). Can only be called by the current owner."
      },
      "uri(uint256)": {
        "details": "See {IERC1155MetadataURI-uri}. This implementation returns the same URI for *all* token types. It relies on the token type ID substitution mechanism https://eips.ethereum.org/EIPS/eip-1155#metadata[defined in the EIP]. Clients calling this function must replace the `\\{id\\}` substring with the actual token type ID."
      }
    },
    "version": 1
  },
  "userdoc": {
    "kind": "user",
    "methods": {},
    "version": 1
  }
}