{
  "contractName": "MaticNftFractionsRepository",
  "abi": [
    {
      "anonymous": false,
      "inputs": [
        {
          "indexed": true,
          "internalType": "address",
          "name": "account",
          "type": "address"
        },
        {
          "indexed": true,
          "internalType": "address",
          "name": "operator",
          "type": "address"
        },
        {
          "indexed": false,
          "internalType": "bool",
          "name": "approved",
          "type": "bool"
        }
      ],
      "name": "ApprovalForAll",
      "type": "event"
    },
    {
      "anonymous": false,
      "inputs": [
        {
          "indexed": false,
          "internalType": "uint256",
          "name": "erc1155TokenId",
          "type": "uint256"
        },
        {
          "indexed": false,
          "internalType": "address",
          "name": "erc721ContractAddress",
          "type": "address"
        },
        {
          "indexed": false,
          "internalType": "uint256",
          "name": "erc721TokenId",
          "type": "uint256"
        },
        {
          "indexed": false,
          "internalType": "uint256",
          "name": "totalFractionsAmount",
          "type": "uint256"
        },
        {
          "indexed": false,
          "internalType": "string",
          "name": "tokenURI",
          "type": "string"
        }
      ],
      "name": "DepositNft",
      "type": "event"
    },
    {
      "anonymous": false,
      "inputs": [
        {
          "indexed": true,
          "internalType": "address",
          "name": "previousOwner",
          "type": "address"
        },
        {
          "indexed": true,
          "internalType": "address",
          "name": "newOwner",
          "type": "address"
        }
      ],
      "name": "OwnershipTransferred",
      "type": "event"
    },
    {
      "anonymous": false,
      "inputs": [
        {
          "indexed": false,
          "internalType": "address",
          "name": "account",
          "type": "address"
        }
      ],
      "name": "Paused",
      "type": "event"
    },
    {
      "anonymous": false,
      "inputs": [
        {
          "indexed": true,
          "internalType": "address",
          "name": "operator",
          "type": "address"
        },
        {
          "indexed": true,
          "internalType": "address",
          "name": "from",
          "type": "address"
        },
        {
          "indexed": true,
          "internalType": "address",
          "name": "to",
          "type": "address"
        },
        {
          "indexed": false,
          "internalType": "uint256[]",
          "name": "ids",
          "type": "uint256[]"
        },
        {
          "indexed": false,
          "internalType": "uint256[]",
          "name": "values",
          "type": "uint256[]"
        }
      ],
      "name": "TransferBatch",
      "type": "event"
    },
    {
      "anonymous": false,
      "inputs": [
        {
          "indexed": true,
          "internalType": "address",
          "name": "operator",
          "type": "address"
        },
        {
          "indexed": true,
          "internalType": "address",
          "name": "from",
          "type": "address"
        },
        {
          "indexed": true,
          "internalType": "address",
          "name": "to",
          "type": "address"
        },
        {
          "indexed": false,
          "internalType": "uint256",
          "name": "id",
          "type": "uint256"
        },
        {
          "indexed": false,
          "internalType": "uint256",
          "name": "value",
          "type": "uint256"
        }
      ],
      "name": "TransferSingle",
      "type": "event"
    },
    {
      "anonymous": false,
      "inputs": [
        {
          "indexed": false,
          "internalType": "string",
          "name": "value",
          "type": "string"
        },
        {
          "indexed": true,
          "internalType": "uint256",
          "name": "id",
          "type": "uint256"
        }
      ],
      "name": "URI",
      "type": "event"
    },
    {
      "anonymous": false,
      "inputs": [
        {
          "indexed": false,
          "internalType": "address",
          "name": "account",
          "type": "address"
        }
      ],
      "name": "Unpaused",
      "type": "event"
    },
    {
      "anonymous": false,
      "inputs": [
        {
          "indexed": false,
          "internalType": "uint256",
          "name": "erc1155TokenId",
          "type": "uint256"
        },
        {
          "indexed": false,
          "internalType": "address",
          "name": "erc721ContractAddress",
          "type": "address"
        },
        {
          "indexed": false,
          "internalType": "uint256",
          "name": "erc721TokenId",
          "type": "uint256"
        }
      ],
      "name": "WithdrawNft",
      "type": "event"
    },
    {
      "inputs": [
        {
          "internalType": "address",
          "name": "account",
          "type": "address"
        },
        {
          "internalType": "uint256",
          "name": "id",
          "type": "uint256"
        }
      ],
      "name": "balanceOf",
      "outputs": [
        {
          "internalType": "uint256",
          "name": "",
          "type": "uint256"
        }
      ],
      "stateMutability": "view",
      "type": "function"
    },
    {
      "inputs": [
        {
          "internalType": "address[]",
          "name": "accounts",
          "type": "address[]"
        },
        {
          "internalType": "uint256[]",
          "name": "ids",
          "type": "uint256[]"
        }
      ],
      "name": "balanceOfBatch",
      "outputs": [
        {
          "internalType": "uint256[]",
          "name": "",
          "type": "uint256[]"
        }
      ],
      "stateMutability": "view",
      "type": "function"
    },
    {
      "inputs": [
        {
          "internalType": "uint256",
          "name": "tokenId",
          "type": "uint256"
        },
        {
          "internalType": "uint256",
          "name": "amount",
          "type": "uint256"
        },
        {
          "internalType": "address",
          "name": "transferer",
          "type": "address"
        }
      ],
      "name": "burn",
      "outputs": [],
      "stateMutability": "nonpayable",
      "type": "function"
    },
    {
      "inputs": [
        {
          "internalType": "uint256",
          "name": "_tokenId",
          "type": "uint256"
        }
      ],
      "name": "getErc721ContractAddress",
      "outputs": [
        {
          "internalType": "address",
          "name": "",
          "type": "address"
        }
      ],
      "stateMutability": "view",
      "type": "function"
    },
    {
      "inputs": [
        {
          "internalType": "uint256",
          "name": "_tokenId",
          "type": "uint256"
        }
      ],
      "name": "getTokenData",
      "outputs": [
        {
          "internalType": "address",
          "name": "erc721ContractAddress",
          "type": "address"
        },
        {
          "internalType": "uint256",
          "name": "erc721TokenId",
          "type": "uint256"
        },
        {
          "internalType": "uint256",
          "name": "totalFractinsAmount",
          "type": "uint256"
        },
        {
          "internalType": "string",
          "name": "tokenURL",
          "type": "string"
        }
      ],
      "stateMutability": "view",
      "type": "function"
    },
    {
      "inputs": [
        {
          "internalType": "uint256",
          "name": "_tokenId",
          "type": "uint256"
        }
      ],
      "name": "getTotalFractionsAmount",
      "outputs": [
        {
          "internalType": "uint256",
          "name": "",
          "type": "uint256"
        }
      ],
      "stateMutability": "view",
      "type": "function"
    },
    {
      "inputs": [
        {
          "internalType": "address",
          "name": "account",
          "type": "address"
        },
        {
          "internalType": "address",
          "name": "operator",
          "type": "address"
        }
      ],
      "name": "isApprovedForAll",
      "outputs": [
        {
          "internalType": "bool",
          "name": "",
          "type": "bool"
        }
      ],
      "stateMutability": "view",
      "type": "function"
    },
    {
      "inputs": [
        {
          "internalType": "address",
          "name": "erc721ContractAddress",
          "type": "address"
        },
        {
          "internalType": "uint256",
          "name": "erc721TokenId",
          "type": "uint256"
        },
        {
          "internalType": "uint256",
          "name": "erc1155TokenId",
          "type": "uint256"
        },
        {
          "internalType": "uint256",
          "name": "erc1155Amount",
          "type": "uint256"
        },
        {
          "internalType": "uint256",
          "name": "totalFractionsAmount",
          "type": "uint256"
        },
        {
          "internalType": "address",
          "name": "transferer",
          "type": "address"
        },
        {
          "internalType": "string",
          "name": "tokenURI",
          "type": "string"
        }
      ],
      "name": "mint",
      "outputs": [],
      "stateMutability": "nonpayable",
      "type": "function"
    },
    {
      "inputs": [],
      "name": "owner",
      "outputs": [
        {
          "internalType": "address",
          "name": "",
          "type": "address"
        }
      ],
      "stateMutability": "view",
      "type": "function"
    },
    {
      "inputs": [],
      "name": "pause",
      "outputs": [],
      "stateMutability": "nonpayable",
      "type": "function"
    },
    {
      "inputs": [],
      "name": "paused",
      "outputs": [
        {
          "internalType": "bool",
          "name": "",
          "type": "bool"
        }
      ],
      "stateMutability": "view",
      "type": "function"
    },
    {
      "inputs": [],
      "name": "renounceOwnership",
      "outputs": [],
      "stateMutability": "nonpayable",
      "type": "function"
    },
    {
      "inputs": [
        {
          "internalType": "address",
          "name": "from",
          "type": "address"
        },
        {
          "internalType": "address",
          "name": "to",
          "type": "address"
        },
        {
          "internalType": "uint256[]",
          "name": "ids",
          "type": "uint256[]"
        },
        {
          "internalType": "uint256[]",
          "name": "amounts",
          "type": "uint256[]"
        },
        {
          "internalType": "bytes",
          "name": "data",
          "type": "bytes"
        }
      ],
      "name": "safeBatchTransferFrom",
      "outputs": [],
      "stateMutability": "nonpayable",
      "type": "function"
    },
    {
      "inputs": [
        {
          "internalType": "address",
          "name": "from",
          "type": "address"
        },
        {
          "internalType": "address",
          "name": "to",
          "type": "address"
        },
        {
          "internalType": "uint256",
          "name": "id",
          "type": "uint256"
        },
        {
          "internalType": "uint256",
          "name": "amount",
          "type": "uint256"
        },
        {
          "internalType": "bytes",
          "name": "data",
          "type": "bytes"
        }
      ],
      "name": "safeTransferFrom",
      "outputs": [],
      "stateMutability": "nonpayable",
      "type": "function"
    },
    {
      "inputs": [
        {
          "internalType": "address",
          "name": "operator",
          "type": "address"
        },
        {
          "internalType": "bool",
          "name": "approved",
          "type": "bool"
        }
      ],
      "name": "setApprovalForAll",
      "outputs": [],
      "stateMutability": "nonpayable",
      "type": "function"
    },
    {
      "inputs": [
        {
          "internalType": "bytes4",
          "name": "interfaceId",
          "type": "bytes4"
        }
      ],
      "name": "supportsInterface",
      "outputs": [
        {
          "internalType": "bool",
          "name": "",
          "type": "bool"
        }
      ],
      "stateMutability": "view",
      "type": "function"
    },
    {
      "inputs": [
        {
          "internalType": "address",
          "name": "from",
          "type": "address"
        },
        {
          "internalType": "address",
          "name": "to",
          "type": "address"
        },
        {
          "internalType": "uint256",
          "name": "id",
          "type": "uint256"
        },
        {
          "internalType": "uint256",
          "name": "amount",
          "type": "uint256"
        },
        {
          "internalType": "bytes",
          "name": "data",
          "type": "bytes"
        }
      ],
      "name": "transferFrom",
      "outputs": [],
      "stateMutability": "nonpayable",
      "type": "function"
    },
    {
      "inputs": [
        {
          "internalType": "address",
          "name": "newOwner",
          "type": "address"
        }
      ],
      "name": "transferOwnership",
      "outputs": [],
      "stateMutability": "nonpayable",
      "type": "function"
    },
    {
      "inputs": [
        {
          "internalType": "uint256",
          "name": "",
          "type": "uint256"
        }
      ],
      "name": "uri",
      "outputs": [
        {
          "internalType": "string",
          "name": "",
          "type": "string"
        }
      ],
      "stateMutability": "view",
      "type": "function"
    },
    {
      "inputs": [
        {
          "internalType": "string",
          "name": "uri_",
          "type": "string"
        }
      ],
      "name": "initialize",
      "outputs": [],
      "stateMutability": "nonpayable",
      "type": "function"
    },
    {
      "inputs": [
        {
          "internalType": "address",
          "name": "erc721ContractAddress",
          "type": "address"
        },
        {
          "internalType": "uint256",
          "name": "erc721TokenId",
          "type": "uint256"
        },
        {
          "internalType": "uint256",
          "name": "fractionsAmountToMint",
          "type": "uint256"
        }
      ],
      "name": "depositNft",
      "outputs": [],
      "stateMutability": "nonpayable",
      "type": "function"
    },
    {
      "inputs": [
        {
          "internalType": "uint256",
          "name": "tokenId",
          "type": "uint256"
        }
      ],
      "name": "withdrawNft",
      "outputs": [],
      "stateMutability": "nonpayable",
      "type": "function"
    }
  ],
  "bytecode": "0x608060405234801561001057600080fd5b50614ae7806100206000396000f3fe608060405234801561001057600080fd5b50600436106101415760003560e01c80638456cb59116100b8578063b09afec11161007c578063b09afec11461035e578063e09a3cb414610391578063e985e9c5146103ad578063f242432a146103dd578063f2fde38b146103f9578063f62d18881461041557610141565b80638456cb59146102e25780638da5cb5b146102ec578063910efae81461030a578063971a584714610326578063a22cb4651461034257610141565b80634e1273f41161010a5780634e1273f4146102225780635c975abb14610252578063605105f01461027057806366d0330c1461028c578063715018a6146102bc578063749388c4146102c657610141565b8062fdd58e1461014657806301ffc9a7146101765780630e89341c146101a65780632eb2c2d6146101d657806333d59207146101f2575b600080fd5b610160600480360381019061015b9190612dd0565b610431565b60405161016d9190612e1f565b60405180910390f35b610190600480360381019061018b9190612e92565b6104fb565b60405161019d9190612eda565b60405180910390f35b6101c060048036038101906101bb9190612ef5565b6105dd565b6040516101cd9190612fbb565b60405180910390f35b6101f060048036038101906101eb91906131da565b610671565b005b61020c60048036038101906102079190612ef5565b610712565b6040516102199190612e1f565b60405180910390f35b61023c6004803603810190610237919061336c565b610732565b60405161024991906134a2565b60405180910390f35b61025a61084b565b6040516102679190612eda565b60405180910390f35b61028a600480360381019061028591906134c4565b610862565b005b6102a660048036038101906102a19190612ef5565b6108ea565b6040516102b3919061356a565b60405180910390f35b6102c461092a565b005b6102e060048036038101906102db9190613585565b6109b2565b005b6102ea610ae4565b005b6102f4610b6a565b604051610301919061356a565b60405180910390f35b610324600480360381019061031f9190612ef5565b610b94565b005b610340600480360381019061033b9190613679565b610dbc565b005b61035c60048036038101906103579190613763565b611013565b005b61037860048036038101906103739190612ef5565b611029565b60405161038894939291906137a3565b60405180910390f35b6103ab60048036038101906103a691906137ef565b611146565b005b6103c760048036038101906103c29190613842565b6114d3565b6040516103d49190612eda565b60405180910390f35b6103f760048036038101906103f291906134c4565b611567565b005b610413600480360381019061040e9190613882565b611608565b005b61042f600480360381019061042a91906138af565b611700565b005b60008073ffffffffffffffffffffffffffffffffffffffff168373ffffffffffffffffffffffffffffffffffffffff1614156104a2576040517f08c379a00000000000000000000000000000000000000000000000000000000081526004016104999061396a565b60405180910390fd5b6065600083815260200190815260200160002060008473ffffffffffffffffffffffffffffffffffffffff1673ffffffffffffffffffffffffffffffffffffffff16815260200190815260200160002054905092915050565b60007fd9b67a26000000000000000000000000000000000000000000000000000000007bffffffffffffffffffffffffffffffffffffffffffffffffffffffff1916827bffffffffffffffffffffffffffffffffffffffffffffffffffffffff191614806105c657507f0e89341c000000000000000000000000000000000000000000000000000000007bffffffffffffffffffffffffffffffffffffffffffffffffffffffff1916827bffffffffffffffffffffffffffffffffffffffffffffffffffffffff1916145b806105d657506105d5826117ee565b5b9050919050565b6060606780546105ec906139b9565b80601f0160208091040260200160405190810160405280929190818152602001828054610618906139b9565b80156106655780601f1061063a57610100808354040283529160200191610665565b820191906000526020600020905b81548152906001019060200180831161064857829003601f168201915b50505050509050919050565b610679611858565b73ffffffffffffffffffffffffffffffffffffffff168573ffffffffffffffffffffffffffffffffffffffff1614806106bf57506106be856106b9611858565b6114d3565b5b6106fe576040517f08c379a00000000000000000000000000000000000000000000000000000000081526004016106f590613a5d565b60405180910390fd5b61070b8585858585611860565b5050505050565b600060fb6000838152602001908152602001600020600201549050919050565b60608151835114610778576040517f08c379a000000000000000000000000000000000000000000000000000000000815260040161076f90613aef565b60405180910390fd5b6000835167ffffffffffffffff81111561079557610794612fe2565b5b6040519080825280602002602001820160405280156107c35781602001602082028036833780820191505090505b50905060005b8451811015610840576108108582815181106107e8576107e7613b0f565b5b602002602001015185838151811061080357610802613b0f565b5b6020026020010151610431565b82828151811061082357610822613b0f565b5b6020026020010181815250508061083990613b6d565b90506107c9565b508091505092915050565b6000609760009054906101000a900460ff16905090565b61086a61084b565b156108aa576040517f08c379a00000000000000000000000000000000000000000000000000000000081526004016108a190613c02565b60405180910390fd5b60006108b68685610431565b905060006108c48686610431565b90506108d38787878787611567565b6108e1878787878686611b77565b50505050505050565b600060fb600083815260200190815260200160002060000160009054906101000a900473ffffffffffffffffffffffffffffffffffffffff169050919050565b610932611858565b73ffffffffffffffffffffffffffffffffffffffff16610950610b6a565b73ffffffffffffffffffffffffffffffffffffffff16146109a6576040517f08c379a000000000000000000000000000000000000000000000000000000000815260040161099d90613c6e565b60405180910390fd5b6109b06000611b7f565b565b6109ba611858565b73ffffffffffffffffffffffffffffffffffffffff166109d8610b6a565b73ffffffffffffffffffffffffffffffffffffffff1614610a2e576040517f08c379a0000000000000000000000000000000000000000000000000000000008152600401610a2590613c6e565b60405180910390fd5b610a3661084b565b15610a76576040517f08c379a0000000000000000000000000000000000000000000000000000000008152600401610a6d90613c02565b60405180910390fd5b6000610a828285610431565b905082811015610ac7576040517f08c379a0000000000000000000000000000000000000000000000000000000008152600401610abe90613d00565b60405180910390fd5b610ad2828585611c45565b610ade84848484611e64565b50505050565b610aec611858565b73ffffffffffffffffffffffffffffffffffffffff16610b0a610b6a565b73ffffffffffffffffffffffffffffffffffffffff1614610b60576040517f08c379a0000000000000000000000000000000000000000000000000000000008152600401610b5790613c6e565b60405180910390fd5b610b68611e6a565b565b600060c960009054906101000a900473ffffffffffffffffffffffffffffffffffffffff16905090565b610b9c61084b565b15610bdc576040517f08c379a0000000000000000000000000000000000000000000000000000000008152600401610bd390613c02565b60405180910390fd5b600060fb60008381526020019081526020016000206002015490506000610c033384610431565b9050808214610c47576040517f08c379a0000000000000000000000000000000000000000000000000000000008152600401610c3e90613d92565b60405180910390fd5b600060fb600085815260200190815260200160002060000160009054906101000a900473ffffffffffffffffffffffffffffffffffffffff169050600060fb600086815260200190815260200160002060010154905060008290508073ffffffffffffffffffffffffffffffffffffffff166323b872dd3033856040518463ffffffff1660e01b8152600401610cdf93929190613db2565b600060405180830381600087803b158015610cf957600080fd5b505af1158015610d0d573d6000803e3d6000fd5b50505050610d1c338787611c45565b60fb6000878152602001908152602001600020600080820160006101000a81549073ffffffffffffffffffffffffffffffffffffffff021916905560018201600090556002820160009055600382016000610d779190612c07565b50507f93099f51c64ef1232856a1b30fa669561cf1d6a628ef780bb9ed4f6872c36fff868484604051610dac93929190613de9565b60405180910390a1505050505050565b610dc4611858565b73ffffffffffffffffffffffffffffffffffffffff16610de2610b6a565b73ffffffffffffffffffffffffffffffffffffffff1614610e38576040517f08c379a0000000000000000000000000000000000000000000000000000000008152600401610e2f90613c6e565b60405180910390fd5b610e4061084b565b15610e80576040517f08c379a0000000000000000000000000000000000000000000000000000000008152600401610e7790613c02565b60405180910390fd5b610e9b82868660405180602001604052806000815250611f0d565b600060019050600073ffffffffffffffffffffffffffffffffffffffff1660fb600088815260200190815260200160002060000160009054906101000a900473ffffffffffffffffffffffffffffffffffffffff1673ffffffffffffffffffffffffffffffffffffffff161415610ffe57610f14612c47565b88816000019073ffffffffffffffffffffffffffffffffffffffff16908173ffffffffffffffffffffffffffffffffffffffff168152505087816020018181525050848160400181815250508281606001819052508060fb600089815260200190815260200160002060008201518160000160006101000a81548173ffffffffffffffffffffffffffffffffffffffff021916908373ffffffffffffffffffffffffffffffffffffffff16021790555060208201518160010155604082015181600201556060820151816003019080519060200190610ff4929190612c85565b5090505060009150505b6110098684836120a4565b5050505050505050565b61102561101e611858565b83836120a9565b5050565b6000806000606060fb600086815260200190815260200160002060000160009054906101000a900473ffffffffffffffffffffffffffffffffffffffff1660fb60008781526020019081526020016000206001015460fb60008881526020019081526020016000206002015460fb60008981526020019081526020016000206003018080546110b7906139b9565b80601f01602080910402602001604051908101604052809291908181526020018280546110e3906139b9565b80156111305780601f1061110557610100808354040283529160200191611130565b820191906000526020600020905b81548152906001019060200180831161111357829003601f168201915b5050505050905093509350935093509193509193565b61114e61084b565b1561118e576040517f08c379a000000000000000000000000000000000000000000000000000000000815260040161118590613c02565b60405180910390fd5b60008390503373ffffffffffffffffffffffffffffffffffffffff168173ffffffffffffffffffffffffffffffffffffffff16636352211e856040518263ffffffff1660e01b81526004016111e39190612e1f565b602060405180830381865afa158015611200573d6000803e3d6000fd5b505050506040513d601f19601f820116820180604052508101906112249190613e35565b73ffffffffffffffffffffffffffffffffffffffff161461127a576040517f08c379a000000000000000000000000000000000000000000000000000000000815260040161127190613ed4565b60405180910390fd5b8073ffffffffffffffffffffffffffffffffffffffff166323b872dd3330866040518463ffffffff1660e01b81526004016112b793929190613db2565b600060405180830381600087803b1580156112d157600080fd5b505af11580156112e5573d6000803e3d6000fd5b505050506112f360fc612216565b60006112ff60fc61222c565b905061131c33828560405180602001604052806000815250611f0d565b60608273ffffffffffffffffffffffffffffffffffffffff1663c87b56dd866040518263ffffffff1660e01b81526004016113579190612e1f565b600060405180830381865afa158015611374573d6000803e3d6000fd5b505050506040513d6000823e3d601f19601f8201168201806040525081019061139d9190613f64565b90506113a7612c47565b86816000019073ffffffffffffffffffffffffffffffffffffffff16908173ffffffffffffffffffffffffffffffffffffffff168152505085816020018181525050848160400181815250508181606001819052508060fb600085815260200190815260200160002060008201518160000160006101000a81548173ffffffffffffffffffffffffffffffffffffffff021916908373ffffffffffffffffffffffffffffffffffffffff16021790555060208201518160010155604082015181600201556060820151816003019080519060200190611487929190612c85565b509050507fc418f7a91f366be09b65548b396e0f63940f86274faace87fe5e604acd5f43c983888888866040516114c2959493929190613fad565b60405180910390a150505050505050565b6000606660008473ffffffffffffffffffffffffffffffffffffffff1673ffffffffffffffffffffffffffffffffffffffff16815260200190815260200160002060008373ffffffffffffffffffffffffffffffffffffffff1673ffffffffffffffffffffffffffffffffffffffff16815260200190815260200160002060009054906101000a900460ff16905092915050565b61156f611858565b73ffffffffffffffffffffffffffffffffffffffff168573ffffffffffffffffffffffffffffffffffffffff1614806115b557506115b4856115af611858565b6114d3565b5b6115f4576040517f08c379a00000000000000000000000000000000000000000000000000000000081526004016115eb90614079565b60405180910390fd5b611601858585858561223a565b5050505050565b611610611858565b73ffffffffffffffffffffffffffffffffffffffff1661162e610b6a565b73ffffffffffffffffffffffffffffffffffffffff1614611684576040517f08c379a000000000000000000000000000000000000000000000000000000000815260040161167b90613c6e565b60405180910390fd5b600073ffffffffffffffffffffffffffffffffffffffff168173ffffffffffffffffffffffffffffffffffffffff1614156116f4576040517f08c379a00000000000000000000000000000000000000000000000000000000081526004016116eb9061410b565b60405180910390fd5b6116fd81611b7f565b50565b600060019054906101000a900460ff166117285760008054906101000a900460ff1615611731565b6117306124bf565b5b611770576040517f08c379a00000000000000000000000000000000000000000000000000000000081526004016117679061419d565b60405180910390fd5b60008060019054906101000a900460ff1615905080156117c0576001600060016101000a81548160ff02191690831515021790555060016000806101000a81548160ff0219169083151502179055505b6117c9826124d0565b80156117ea5760008060016101000a81548160ff0219169083151502179055505b5050565b60007f01ffc9a7000000000000000000000000000000000000000000000000000000007bffffffffffffffffffffffffffffffffffffffffffffffffffffffff1916827bffffffffffffffffffffffffffffffffffffffffffffffffffffffff1916149050919050565b600033905090565b81518351146118a4576040517f08c379a000000000000000000000000000000000000000000000000000000000815260040161189b9061422f565b60405180910390fd5b600073ffffffffffffffffffffffffffffffffffffffff168473ffffffffffffffffffffffffffffffffffffffff161415611914576040517f08c379a000000000000000000000000000000000000000000000000000000000815260040161190b906142c1565b60405180910390fd5b600061191e611858565b905061192e8187878787876125de565b60005b8451811015611ae257600085828151811061194f5761194e613b0f565b5b60200260200101519050600085838151811061196e5761196d613b0f565b5b6020026020010151905060006065600084815260200190815260200160002060008b73ffffffffffffffffffffffffffffffffffffffff1673ffffffffffffffffffffffffffffffffffffffff16815260200190815260200160002054905081811015611a10576040517f08c379a0000000000000000000000000000000000000000000000000000000008152600401611a0790614353565b60405180910390fd5b8181036065600085815260200190815260200160002060008c73ffffffffffffffffffffffffffffffffffffffff1673ffffffffffffffffffffffffffffffffffffffff16815260200190815260200160002081905550816065600085815260200190815260200160002060008b73ffffffffffffffffffffffffffffffffffffffff1673ffffffffffffffffffffffffffffffffffffffff1681526020019081526020016000206000828254611ac79190614373565b9250508190555050505080611adb90613b6d565b9050611931565b508473ffffffffffffffffffffffffffffffffffffffff168673ffffffffffffffffffffffffffffffffffffffff168273ffffffffffffffffffffffffffffffffffffffff167f4a39dc06d4c0dbc64b70af90fd698a233a518aa5d07e595d983b8c0526c8f7fb8787604051611b599291906143c9565b60405180910390a4611b6f8187878787876125e6565b505050505050565b505050505050565b600060c960009054906101000a900473ffffffffffffffffffffffffffffffffffffffff1690508160c960006101000a81548173ffffffffffffffffffffffffffffffffffffffff021916908373ffffffffffffffffffffffffffffffffffffffff1602179055508173ffffffffffffffffffffffffffffffffffffffff168173ffffffffffffffffffffffffffffffffffffffff167f8be0079c531659141344cd1fd0a4f28419497f9722a3daafe3b4186f6b6457e060405160405180910390a35050565b600073ffffffffffffffffffffffffffffffffffffffff168373ffffffffffffffffffffffffffffffffffffffff161415611cb5576040517f08c379a0000000000000000000000000000000000000000000000000000000008152600401611cac90614472565b60405180910390fd5b6000611cbf611858565b9050611cef81856000611cd1876127be565b611cda876127be565b604051806020016040528060008152506125de565b60006065600085815260200190815260200160002060008673ffffffffffffffffffffffffffffffffffffffff1673ffffffffffffffffffffffffffffffffffffffff16815260200190815260200160002054905082811015611d87576040517f08c379a0000000000000000000000000000000000000000000000000000000008152600401611d7e90614504565b60405180910390fd5b8281036065600086815260200190815260200160002060008773ffffffffffffffffffffffffffffffffffffffff1673ffffffffffffffffffffffffffffffffffffffff16815260200190815260200160002081905550600073ffffffffffffffffffffffffffffffffffffffff168573ffffffffffffffffffffffffffffffffffffffff168373ffffffffffffffffffffffffffffffffffffffff167fc3d58168c5ae7397731d063d5bbf3d657854427343f4c083240f7aacaa2d0f628787604051611e55929190614524565b60405180910390a45050505050565b50505050565b611e7261084b565b15611eb2576040517f08c379a0000000000000000000000000000000000000000000000000000000008152600401611ea990614599565b60405180910390fd5b6001609760006101000a81548160ff0219169083151502179055507f62e78cea01bee320cd4e420270b5ea74000d11b0c9f74754ebdbfc544b05a258611ef6611858565b604051611f03919061356a565b60405180910390a1565b600073ffffffffffffffffffffffffffffffffffffffff168473ffffffffffffffffffffffffffffffffffffffff161415611f7d576040517f08c379a0000000000000000000000000000000000000000000000000000000008152600401611f749061462b565b60405180910390fd5b6000611f87611858565b9050611fa881600087611f99886127be565b611fa2886127be565b876125de565b826065600086815260200190815260200160002060008773ffffffffffffffffffffffffffffffffffffffff1673ffffffffffffffffffffffffffffffffffffffff16815260200190815260200160002060008282546120089190614373565b925050819055508473ffffffffffffffffffffffffffffffffffffffff16600073ffffffffffffffffffffffffffffffffffffffff168273ffffffffffffffffffffffffffffffffffffffff167fc3d58168c5ae7397731d063d5bbf3d657854427343f4c083240f7aacaa2d0f628787604051612086929190614524565b60405180910390a461209d81600087878787612838565b5050505050565b505050565b8173ffffffffffffffffffffffffffffffffffffffff168373ffffffffffffffffffffffffffffffffffffffff161415612118576040517f08c379a000000000000000000000000000000000000000000000000000000000815260040161210f906146bd565b60405180910390fd5b80606660008573ffffffffffffffffffffffffffffffffffffffff1673ffffffffffffffffffffffffffffffffffffffff16815260200190815260200160002060008473ffffffffffffffffffffffffffffffffffffffff1673ffffffffffffffffffffffffffffffffffffffff16815260200190815260200160002060006101000a81548160ff0219169083151502179055508173ffffffffffffffffffffffffffffffffffffffff168373ffffffffffffffffffffffffffffffffffffffff167f17307eab39ab6107e8899845ad3d59bd9653f200f220920489ca2b5937696c31836040516122099190612eda565b60405180910390a3505050565b6001816000016000828254019250508190555050565b600081600001549050919050565b600073ffffffffffffffffffffffffffffffffffffffff168473ffffffffffffffffffffffffffffffffffffffff1614156122aa576040517f08c379a00000000000000000000000000000000000000000000000000000000081526004016122a1906142c1565b60405180910390fd5b60006122b4611858565b90506122d48187876122c5886127be565b6122ce886127be565b876125de565b60006065600086815260200190815260200160002060008873ffffffffffffffffffffffffffffffffffffffff1673ffffffffffffffffffffffffffffffffffffffff1681526020019081526020016000205490508381101561236c576040517f08c379a000000000000000000000000000000000000000000000000000000000815260040161236390614353565b60405180910390fd5b8381036065600087815260200190815260200160002060008973ffffffffffffffffffffffffffffffffffffffff1673ffffffffffffffffffffffffffffffffffffffff16815260200190815260200160002081905550836065600087815260200190815260200160002060008873ffffffffffffffffffffffffffffffffffffffff1673ffffffffffffffffffffffffffffffffffffffff16815260200190815260200160002060008282546124239190614373565b925050819055508573ffffffffffffffffffffffffffffffffffffffff168773ffffffffffffffffffffffffffffffffffffffff168373ffffffffffffffffffffffffffffffffffffffff167fc3d58168c5ae7397731d063d5bbf3d657854427343f4c083240f7aacaa2d0f6288886040516124a0929190614524565b60405180910390a46124b6828888888888612838565b50505050505050565b60006124ca30612a10565b15905090565b600060019054906101000a900460ff166124f85760008054906101000a900460ff1615612501565b6125006124bf565b5b612540576040517f08c379a00000000000000000000000000000000000000000000000000000000081526004016125379061419d565b60405180910390fd5b60008060019054906101000a900460ff161590508015612590576001600060016101000a81548160ff02191690831515021790555060016000806101000a81548160ff0219169083151502179055505b612598612a23565b6125a0612a74565b6125a8612ac5565b6125b182612b31565b6125b9612b8c565b80156125da5760008060016101000a81548160ff0219169083151502179055505b5050565b505050505050565b6126058473ffffffffffffffffffffffffffffffffffffffff16612a10565b156127b6578373ffffffffffffffffffffffffffffffffffffffff1663bc197c8187878686866040518663ffffffff1660e01b815260040161264b959493929190614732565b6020604051808303816000875af192505050801561268757506040513d601f19601f8201168201806040525081019061268491906147af565b60015b61272d576126936147e9565b806308c379a014156126f057506126a861480b565b806126b357506126f2565b806040517f08c379a00000000000000000000000000000000000000000000000000000000081526004016126e79190612fbb565b60405180910390fd5b505b6040517f08c379a000000000000000000000000000000000000000000000000000000000815260040161272490614913565b60405180910390fd5b63bc197c8160e01b7bffffffffffffffffffffffffffffffffffffffffffffffffffffffff1916817bffffffffffffffffffffffffffffffffffffffffffffffffffffffff1916146127b4576040517f08c379a00000000000000000000000000000000000000000000000000000000081526004016127ab906149a5565b60405180910390fd5b505b505050505050565b60606000600167ffffffffffffffff8111156127dd576127dc612fe2565b5b60405190808252806020026020018201604052801561280b5781602001602082028036833780820191505090505b509050828160008151811061282357612822613b0f565b5b60200260200101818152505080915050919050565b6128578473ffffffffffffffffffffffffffffffffffffffff16612a10565b15612a08578373ffffffffffffffffffffffffffffffffffffffff1663f23a6e6187878686866040518663ffffffff1660e01b815260040161289d9594939291906149c5565b6020604051808303816000875af19250505080156128d957506040513d601f19601f820116820180604052508101906128d691906147af565b60015b61297f576128e56147e9565b806308c379a0141561294257506128fa61480b565b806129055750612944565b806040517f08c379a00000000000000000000000000000000000000000000000000000000081526004016129399190612fbb565b60405180910390fd5b505b6040517f08c379a000000000000000000000000000000000000000000000000000000000815260040161297690614913565b60405180910390fd5b63f23a6e6160e01b7bffffffffffffffffffffffffffffffffffffffffffffffffffffffff1916817bffffffffffffffffffffffffffffffffffffffffffffffffffffffff191614612a06576040517f08c379a00000000000000000000000000000000000000000000000000000000081526004016129fd906149a5565b60405180910390fd5b505b505050505050565b600080823b905060008111915050919050565b600060019054906101000a900460ff16612a72576040517f08c379a0000000000000000000000000000000000000000000000000000000008152600401612a6990614a91565b60405180910390fd5b565b600060019054906101000a900460ff16612ac3576040517f08c379a0000000000000000000000000000000000000000000000000000000008152600401612aba90614a91565b60405180910390fd5b565b600060019054906101000a900460ff16612b14576040517f08c379a0000000000000000000000000000000000000000000000000000000008152600401612b0b90614a91565b60405180910390fd5b6000609760006101000a81548160ff021916908315150217905550565b600060019054906101000a900460ff16612b80576040517f08c379a0000000000000000000000000000000000000000000000000000000008152600401612b7790614a91565b60405180910390fd5b612b8981612bed565b50565b600060019054906101000a900460ff16612bdb576040517f08c379a0000000000000000000000000000000000000000000000000000000008152600401612bd290614a91565b60405180910390fd5b612beb612be6611858565b611b7f565b565b8060679080519060200190612c03929190612c85565b5050565b508054612c13906139b9565b6000825580601f10612c255750612c44565b601f016020900490600052602060002090810190612c439190612d0b565b5b50565b6040518060800160405280600073ffffffffffffffffffffffffffffffffffffffff1681526020016000815260200160008152602001606081525090565b828054612c91906139b9565b90600052602060002090601f016020900481019282612cb35760008555612cfa565b82601f10612ccc57805160ff1916838001178555612cfa565b82800160010185558215612cfa579182015b82811115612cf9578251825591602001919060010190612cde565b5b509050612d079190612d0b565b5090565b5b80821115612d24576000816000905550600101612d0c565b5090565b6000604051905090565b600080fd5b600080fd5b600073ffffffffffffffffffffffffffffffffffffffff82169050919050565b6000612d6782612d3c565b9050919050565b612d7781612d5c565b8114612d8257600080fd5b50565b600081359050612d9481612d6e565b92915050565b6000819050919050565b612dad81612d9a565b8114612db857600080fd5b50565b600081359050612dca81612da4565b92915050565b60008060408385031215612de757612de6612d32565b5b6000612df585828601612d85565b9250506020612e0685828601612dbb565b9150509250929050565b612e1981612d9a565b82525050565b6000602082019050612e346000830184612e10565b92915050565b60007fffffffff0000000000000000000000000000000000000000000000000000000082169050919050565b612e6f81612e3a565b8114612e7a57600080fd5b50565b600081359050612e8c81612e66565b92915050565b600060208284031215612ea857612ea7612d32565b5b6000612eb684828501612e7d565b91505092915050565b60008115159050919050565b612ed481612ebf565b82525050565b6000602082019050612eef6000830184612ecb565b92915050565b600060208284031215612f0b57612f0a612d32565b5b6000612f1984828501612dbb565b91505092915050565b600081519050919050565b600082825260208201905092915050565b60005b83811015612f5c578082015181840152602081019050612f41565b83811115612f6b576000848401525b50505050565b6000601f19601f8301169050919050565b6000612f8d82612f22565b612f978185612f2d565b9350612fa7818560208601612f3e565b612fb081612f71565b840191505092915050565b60006020820190508181036000830152612fd58184612f82565b905092915050565b600080fd5b7f4e487b7100000000000000000000000000000000000000000000000000000000600052604160045260246000fd5b61301a82612f71565b810181811067ffffffffffffffff8211171561303957613038612fe2565b5b80604052505050565b600061304c612d28565b90506130588282613011565b919050565b600067ffffffffffffffff82111561307857613077612fe2565b5b602082029050602081019050919050565b600080fd5b60006130a161309c8461305d565b613042565b905080838252602082019050602084028301858111156130c4576130c3613089565b5b835b818110156130ed57806130d98882612dbb565b8452602084019350506020810190506130c6565b5050509392505050565b600082601f83011261310c5761310b612fdd565b5b813561311c84826020860161308e565b91505092915050565b600080fd5b600067ffffffffffffffff82111561314557613144612fe2565b5b61314e82612f71565b9050602081019050919050565b82818337600083830152505050565b600061317d6131788461312a565b613042565b90508281526020810184848401111561319957613198613125565b5b6131a484828561315b565b509392505050565b600082601f8301126131c1576131c0612fdd565b5b81356131d184826020860161316a565b91505092915050565b600080600080600060a086880312156131f6576131f5612d32565b5b600061320488828901612d85565b955050602061321588828901612d85565b945050604086013567ffffffffffffffff81111561323657613235612d37565b5b613242888289016130f7565b935050606086013567ffffffffffffffff81111561326357613262612d37565b5b61326f888289016130f7565b925050608086013567ffffffffffffffff8111156132905761328f612d37565b5b61329c888289016131ac565b9150509295509295909350565b600067ffffffffffffffff8211156132c4576132c3612fe2565b5b602082029050602081019050919050565b60006132e86132e3846132a9565b613042565b9050808382526020820190506020840283018581111561330b5761330a613089565b5b835b8181101561333457806133208882612d85565b84526020840193505060208101905061330d565b5050509392505050565b600082601f83011261335357613352612fdd565b5b81356133638482602086016132d5565b91505092915050565b6000806040838503121561338357613382612d32565b5b600083013567ffffffffffffffff8111156133a1576133a0612d37565b5b6133ad8582860161333e565b925050602083013567ffffffffffffffff8111156133ce576133cd612d37565b5b6133da858286016130f7565b9150509250929050565b600081519050919050565b600082825260208201905092915050565b6000819050602082019050919050565b61341981612d9a565b82525050565b600061342b8383613410565b60208301905092915050565b6000602082019050919050565b600061344f826133e4565b61345981856133ef565b935061346483613400565b8060005b8381101561349557815161347c888261341f565b975061348783613437565b925050600181019050613468565b5085935050505092915050565b600060208201905081810360008301526134bc8184613444565b905092915050565b600080600080600060a086880312156134e0576134df612d32565b5b60006134ee88828901612d85565b95505060206134ff88828901612d85565b945050604061351088828901612dbb565b935050606061352188828901612dbb565b925050608086013567ffffffffffffffff81111561354257613541612d37565b5b61354e888289016131ac565b9150509295509295909350565b61356481612d5c565b82525050565b600060208201905061357f600083018461355b565b92915050565b60008060006060848603121561359e5761359d612d32565b5b60006135ac86828701612dbb565b93505060206135bd86828701612dbb565b92505060406135ce86828701612d85565b9150509250925092565b600067ffffffffffffffff8211156135f3576135f2612fe2565b5b6135fc82612f71565b9050602081019050919050565b600061361c613617846135d8565b613042565b90508281526020810184848401111561363857613637613125565b5b61364384828561315b565b509392505050565b600082601f8301126136605761365f612fdd565b5b8135613670848260208601613609565b91505092915050565b600080600080600080600060e0888a03121561369857613697612d32565b5b60006136a68a828b01612d85565b97505060206136b78a828b01612dbb565b96505060406136c88a828b01612dbb565b95505060606136d98a828b01612dbb565b94505060806136ea8a828b01612dbb565b93505060a06136fb8a828b01612d85565b92505060c088013567ffffffffffffffff81111561371c5761371b612d37565b5b6137288a828b0161364b565b91505092959891949750929550565b61374081612ebf565b811461374b57600080fd5b50565b60008135905061375d81613737565b92915050565b6000806040838503121561377a57613779612d32565b5b600061378885828601612d85565b92505060206137998582860161374e565b9150509250929050565b60006080820190506137b8600083018761355b565b6137c56020830186612e10565b6137d26040830185612e10565b81810360608301526137e48184612f82565b905095945050505050565b60008060006060848603121561380857613807612d32565b5b600061381686828701612d85565b935050602061382786828701612dbb565b925050604061383886828701612dbb565b9150509250925092565b6000806040838503121561385957613858612d32565b5b600061386785828601612d85565b925050602061387885828601612d85565b9150509250929050565b60006020828403121561389857613897612d32565b5b60006138a684828501612d85565b91505092915050565b6000602082840312156138c5576138c4612d32565b5b600082013567ffffffffffffffff8111156138e3576138e2612d37565b5b6138ef8482850161364b565b91505092915050565b7f455243313135353a2062616c616e636520717565727920666f7220746865207a60008201527f65726f2061646472657373000000000000000000000000000000000000000000602082015250565b6000613954602b83612f2d565b915061395f826138f8565b604082019050919050565b6000602082019050818103600083015261398381613947565b9050919050565b7f4e487b7100000000000000000000000000000000000000000000000000000000600052602260045260246000fd5b600060028204905060018216806139d157607f821691505b602082108114156139e5576139e461398a565b5b50919050565b7f455243313135353a207472616e736665722063616c6c6572206973206e6f742060008201527f6f776e6572206e6f7220617070726f7665640000000000000000000000000000602082015250565b6000613a47603283612f2d565b9150613a52826139eb565b604082019050919050565b60006020820190508181036000830152613a7681613a3a565b9050919050565b7f455243313135353a206163636f756e747320616e6420696473206c656e67746860008201527f206d69736d617463680000000000000000000000000000000000000000000000602082015250565b6000613ad9602983612f2d565b9150613ae482613a7d565b604082019050919050565b60006020820190508181036000830152613b0881613acc565b9050919050565b7f4e487b7100000000000000000000000000000000000000000000000000000000600052603260045260246000fd5b7f4e487b7100000000000000000000000000000000000000000000000000000000600052601160045260246000fd5b6000613b7882612d9a565b91507fffffffffffffffffffffffffffffffffffffffffffffffffffffffffffffffff821415613bab57613baa613b3e565b5b600182019050919050565b7f4e6f7420616c6c6f776564207768696c65207061757365640000000000000000600082015250565b6000613bec601883612f2d565b9150613bf782613bb6565b602082019050919050565b60006020820190508181036000830152613c1b81613bdf565b9050919050565b7f4f776e61626c653a2063616c6c6572206973206e6f7420746865206f776e6572600082015250565b6000613c58602083612f2d565b9150613c6382613c22565b602082019050919050565b60006020820190508181036000830152613c8781613c4b565b9050919050565b7f7472616e7366657265722068617320746f206f776e20657175616c206f72206d60008201527f6f726520736861726573207468616e2074686520676976656e20616d6f756e74602082015250565b6000613cea604083612f2d565b9150613cf582613c8e565b604082019050919050565b60006020820190508181036000830152613d1981613cdd565b9050919050565b7f6d6573736167652073656e6465722068617320746f206f776e20616c6c206f6660008201527f2074686520736861726573000000000000000000000000000000000000000000602082015250565b6000613d7c602b83612f2d565b9150613d8782613d20565b604082019050919050565b60006020820190508181036000830152613dab81613d6f565b9050919050565b6000606082019050613dc7600083018661355b565b613dd4602083018561355b565b613de16040830184612e10565b949350505050565b6000606082019050613dfe6000830186612e10565b613e0b602083018561355b565b613e186040830184612e10565b949350505050565b600081519050613e2f81612d6e565b92915050565b600060208284031215613e4b57613e4a612d32565b5b6000613e5984828501613e20565b91505092915050565b7f6d73672073656e6465722068617320746f206f776e2074686520746f6b656e2060008201527f746f206465706f73697400000000000000000000000000000000000000000000602082015250565b6000613ebe602a83612f2d565b9150613ec982613e62565b604082019050919050565b60006020820190508181036000830152613eed81613eb1565b9050919050565b6000613f07613f02846135d8565b613042565b905082815260208101848484011115613f2357613f22613125565b5b613f2e848285612f3e565b509392505050565b600082601f830112613f4b57613f4a612fdd565b5b8151613f5b848260208601613ef4565b91505092915050565b600060208284031215613f7a57613f79612d32565b5b600082015167ffffffffffffffff811115613f9857613f97612d37565b5b613fa484828501613f36565b91505092915050565b600060a082019050613fc26000830188612e10565b613fcf602083018761355b565b613fdc6040830186612e10565b613fe96060830185612e10565b8181036080830152613ffb8184612f82565b90509695505050505050565b7f455243313135353a2063616c6c6572206973206e6f74206f776e6572206e6f7260008201527f20617070726f7665640000000000000000000000000000000000000000000000602082015250565b6000614063602983612f2d565b915061406e82614007565b604082019050919050565b6000602082019050818103600083015261409281614056565b9050919050565b7f4f776e61626c653a206e6577206f776e657220697320746865207a65726f206160008201527f6464726573730000000000000000000000000000000000000000000000000000602082015250565b60006140f5602683612f2d565b915061410082614099565b604082019050919050565b60006020820190508181036000830152614124816140e8565b9050919050565b7f496e697469616c697a61626c653a20636f6e747261637420697320616c72656160008201527f647920696e697469616c697a6564000000000000000000000000000000000000602082015250565b6000614187602e83612f2d565b91506141928261412b565b604082019050919050565b600060208201905081810360008301526141b68161417a565b9050919050565b7f455243313135353a2069647320616e6420616d6f756e7473206c656e6774682060008201527f6d69736d61746368000000000000000000000000000000000000000000000000602082015250565b6000614219602883612f2d565b9150614224826141bd565b604082019050919050565b600060208201905081810360008301526142488161420c565b9050919050565b7f455243313135353a207472616e7366657220746f20746865207a65726f20616460008201527f6472657373000000000000000000000000000000000000000000000000000000602082015250565b60006142ab602583612f2d565b91506142b68261424f565b604082019050919050565b600060208201905081810360008301526142da8161429e565b9050919050565b7f455243313135353a20696e73756666696369656e742062616c616e636520666f60008201527f72207472616e7366657200000000000000000000000000000000000000000000602082015250565b600061433d602a83612f2d565b9150614348826142e1565b604082019050919050565b6000602082019050818103600083015261436c81614330565b9050919050565b600061437e82612d9a565b915061438983612d9a565b9250827fffffffffffffffffffffffffffffffffffffffffffffffffffffffffffffffff038211156143be576143bd613b3e565b5b828201905092915050565b600060408201905081810360008301526143e38185613444565b905081810360208301526143f78184613444565b90509392505050565b7f455243313135353a206275726e2066726f6d20746865207a65726f206164647260008201527f6573730000000000000000000000000000000000000000000000000000000000602082015250565b600061445c602383612f2d565b915061446782614400565b604082019050919050565b6000602082019050818103600083015261448b8161444f565b9050919050565b7f455243313135353a206275726e20616d6f756e7420657863656564732062616c60008201527f616e636500000000000000000000000000000000000000000000000000000000602082015250565b60006144ee602483612f2d565b91506144f982614492565b604082019050919050565b6000602082019050818103600083015261451d816144e1565b9050919050565b60006040820190506145396000830185612e10565b6145466020830184612e10565b9392505050565b7f5061757361626c653a2070617573656400000000000000000000000000000000600082015250565b6000614583601083612f2d565b915061458e8261454d565b602082019050919050565b600060208201905081810360008301526145b281614576565b9050919050565b7f455243313135353a206d696e7420746f20746865207a65726f2061646472657360008201527f7300000000000000000000000000000000000000000000000000000000000000602082015250565b6000614615602183612f2d565b9150614620826145b9565b604082019050919050565b6000602082019050818103600083015261464481614608565b9050919050565b7f455243313135353a2073657474696e6720617070726f76616c2073746174757360008201527f20666f722073656c660000000000000000000000000000000000000000000000602082015250565b60006146a7602983612f2d565b91506146b28261464b565b604082019050919050565b600060208201905081810360008301526146d68161469a565b9050919050565b600081519050919050565b600082825260208201905092915050565b6000614704826146dd565b61470e81856146e8565b935061471e818560208601612f3e565b61472781612f71565b840191505092915050565b600060a082019050614747600083018861355b565b614754602083018761355b565b81810360408301526147668186613444565b9050818103606083015261477a8185613444565b9050818103608083015261478e81846146f9565b90509695505050505050565b6000815190506147a981612e66565b92915050565b6000602082840312156147c5576147c4612d32565b5b60006147d38482850161479a565b91505092915050565b60008160e01c9050919050565b600060033d11156148085760046000803e6148056000516147dc565b90505b90565b600060443d101561481b5761489e565b614823612d28565b60043d036004823e80513d602482011167ffffffffffffffff8211171561484b57505061489e565b808201805167ffffffffffffffff811115614869575050505061489e565b80602083010160043d03850181111561488657505050505061489e565b61489582602001850186613011565b82955050505050505b90565b7f455243313135353a207472616e7366657220746f206e6f6e204552433131353560008201527f526563656976657220696d706c656d656e746572000000000000000000000000602082015250565b60006148fd603483612f2d565b9150614908826148a1565b604082019050919050565b6000602082019050818103600083015261492c816148f0565b9050919050565b7f455243313135353a204552433131353552656365697665722072656a6563746560008201527f6420746f6b656e73000000000000000000000000000000000000000000000000602082015250565b600061498f602883612f2d565b915061499a82614933565b604082019050919050565b600060208201905081810360008301526149be81614982565b9050919050565b600060a0820190506149da600083018861355b565b6149e7602083018761355b565b6149f46040830186612e10565b614a016060830185612e10565b8181036080830152614a1381846146f9565b90509695505050505050565b7f496e697469616c697a61626c653a20636f6e7472616374206973206e6f74206960008201527f6e697469616c697a696e67000000000000000000000000000000000000000000602082015250565b6000614a7b602b83612f2d565b9150614a8682614a1f565b604082019050919050565b60006020820190508181036000830152614aaa81614a6e565b905091905056fea2646970667358221220034a9312d7db162b6f520264ffafa828ac22cec3bdc9da72a8bd34ab04dd3aee64736f6c634300080a0033",
  "immutableReferences": {},
  "source": "// SPDX-License-Identifier: MIT\n\npragma solidity ^0.8.0;\n\nimport \"@openzeppelin/contracts-upgradeable/utils/CountersUpgradeable.sol\";\nimport \"./NftFractionsRepositoryBase.sol\";\n\ncontract MaticNftFractionsRepository is NftFractionsRepositoryBase {\n  \n  using CountersUpgradeable for CountersUpgradeable.Counter;\n\n  event DepositNft(uint256 erc1155TokenId, address erc721ContractAddress, uint256 erc721TokenId, uint256 totalFractionsAmount, string tokenURI);\n\n  event WithdrawNft(uint256 erc1155TokenId, address erc721ContractAddress, uint256 erc721TokenId);\n\n  CountersUpgradeable.Counter private _ids;\n\n  function initialize(string memory uri_) public initializer {\n    __NftFractionsRepositoryBase_init(uri_);\n  }\n\n  function depositNft(address erc721ContractAddress, uint256 erc721TokenId, uint256 fractionsAmountToMint) external {\n    require(!paused(), \"Not allowed while paused\");\n    ERC721URIStorage erc721Contract = ERC721URIStorage(erc721ContractAddress);\n    require(erc721Contract.ownerOf(erc721TokenId) == msg.sender, \"msg sender has to own the token to deposit\");\n    erc721Contract.transferFrom(msg.sender, address(this), erc721TokenId);\n    _ids.increment();\n    uint256 newItemId = _ids.current();\n    _mint(msg.sender, newItemId, fractionsAmountToMint, \"\");\n    string memory tokenURI;\n    tokenURI = erc721Contract.tokenURI(erc721TokenId);\n    Token memory token;\n    token.erc721ContractAddress = erc721ContractAddress;\n    token.erc721TokenId = erc721TokenId;\n    token.totalFractionsAmount = fractionsAmountToMint;\n    token.tokenURI = tokenURI;\n    tokens[newItemId] = token;\n\n    emit DepositNft(newItemId, erc721ContractAddress, erc721TokenId, fractionsAmountToMint, tokenURI);\n  }\n\n  function withdrawNft(uint256 tokenId) external {\n    require(!paused(), \"Not allowed while paused\");\n    uint256 totalFractionsAmount = tokens[tokenId].totalFractionsAmount;\n    uint256 sendersAmount = balanceOf(msg.sender, tokenId);\n    require(totalFractionsAmount == sendersAmount, \"message sender has to own all of the shares\");\n\n    address erc721ContractAddress = tokens[tokenId].erc721ContractAddress;\n    uint256 erc721TokenId = tokens[tokenId].erc721TokenId;\n    IERC721 erc721Contract = IERC721(erc721ContractAddress);\n    erc721Contract.transferFrom(address(this), msg.sender, erc721TokenId);\n\n    _burn(msg.sender, tokenId, totalFractionsAmount);\n\n    delete tokens[tokenId];\n\n    emit WithdrawNft(tokenId, erc721ContractAddress, erc721TokenId);\n  }\n}",
  "sourcePath": "/home/janus/work/react.js-solidity_nft-fractions-dex/contracts/MaticNftFractionsRepository.sol",
  "compiler": {
    "name": "solc",
    "version": "0.8.10+commit.fc410830.Emscripten.clang"
  },
  "schemaVersion": "3.4.3",
  "updatedAt": "2021-12-16T21:30:19.603Z",
  "devdoc": {
    "kind": "dev",
    "methods": {
      "balanceOf(address,uint256)": {
        "details": "See {IERC1155-balanceOf}. Requirements: - `account` cannot be the zero address."
      },
      "balanceOfBatch(address[],uint256[])": {
        "details": "See {IERC1155-balanceOfBatch}. Requirements: - `accounts` and `ids` must have the same length."
      },
      "isApprovedForAll(address,address)": {
        "details": "See {IERC1155-isApprovedForAll}."
      },
      "owner()": {
        "details": "Returns the address of the current owner."
      },
      "paused()": {
        "details": "Returns true if the contract is paused, and false otherwise."
      },
      "renounceOwnership()": {
        "details": "Leaves the contract without owner. It will not be possible to call `onlyOwner` functions anymore. Can only be called by the current owner. NOTE: Renouncing ownership will leave the contract without an owner, thereby removing any functionality that is only available to the owner."
      },
      "safeBatchTransferFrom(address,address,uint256[],uint256[],bytes)": {
        "details": "See {IERC1155-safeBatchTransferFrom}."
      },
      "safeTransferFrom(address,address,uint256,uint256,bytes)": {
        "details": "See {IERC1155-safeTransferFrom}."
      },
      "setApprovalForAll(address,bool)": {
        "details": "See {IERC1155-setApprovalForAll}."
      },
      "supportsInterface(bytes4)": {
        "details": "See {IERC165-supportsInterface}."
      },
      "transferOwnership(address)": {
        "details": "Transfers ownership of the contract to a new account (`newOwner`). Can only be called by the current owner."
      },
      "uri(uint256)": {
        "details": "See {IERC1155MetadataURI-uri}. This implementation returns the same URI for *all* token types. It relies on the token type ID substitution mechanism https://eips.ethereum.org/EIPS/eip-1155#metadata[defined in the EIP]. Clients calling this function must replace the `\\{id\\}` substring with the actual token type ID."
      }
    },
    "version": 1
  },
  "userdoc": {
    "kind": "user",
    "methods": {},
    "version": 1
  }
}